:020000040000FA
:0400000007EF00F016
:0A0008005E8287ED0CF0C9EF0CF0EA
:1008000000416C6561746F72696F0065733A200016
:100810002569000020EECCF010EEB0F0070EDBCF23
:10082000E3FFE806FCE220EEC4F010EEA0F0070EB5
:10083000DBCFE3FFE806FCE263EC0DF07AEC0DF0B1
:10084000E6EC0CF08BEC0DF0010E036E080E046E5E
:10085000E1EC0BF08BEC0DF0000E0001BB6F050E10
:10086000BA6FAC0E586E000E596E100E5A6E080E0E
:100870005B6EF60E9C6FFF0E9D6FBAC09EF0BBC004
:100880009FF0D8909E379F379C519E279D519F2364
:10089000A00E9E25D96E000E9F21DA6EDECF5CF091
:1008A000DDCF5DF03CEC0CF0BAC005F0BBC006F04B
:1008B000000E086E010E076EAC0E096E000E0A6E79
:1008C00010EC0CF00001BA4BBB2BBBBF71EF04F076
:1008D000BB5109E1090EBA5DD8A071EF04F073EFC6
:1008E00004F031EF04F0000E066E000E056E000EEF
:1008F000086E020E076E0B0E096E080E0A6E10ECE3
:100900000CF0000E0001A96F000EA86F000EAB6F77
:10091000000EAA6FD2EC09F019C023F01AC024F01F
:1009200036EC0DF0000E0001B96F000EB86FD2EC7E
:1009300009F019C023F01AC024F0000E266E0A0E2A
:10094000256E09EC0BF023C0BEF024C0BFF00001FF
:10095000BE51B01909E1BF51B119D8B4B2EF04F0DA
:10096000B4EF04F097EF04F0BE51B21909E1BF51A2
:10097000B319D8B4BEEF04F0C0EF04F097EF04F061
:10098000BE51B41909E1BF51B519D8B4CAEF04F08A
:10099000CCEF04F097EF04F0BE51B61909E1BF5156
:1009A000B719D8B4D6EF04F0D8EF04F097EF04F0FD
:1009B000D890B835D96EB935DA6EB00ED926000E9A
:1009C000DA22BEC0DEFFBFC0DDFFB84BB92BB9BF16
:1009D000F3EF04F0B95109E1040EB85DD8A0F3EFCC
:1009E00004F0F5EF04F097EF04F0000EBD6F050E74
:1009F000BC6FAC0E586E000E596E100E5A6E080E7B
:100A00005B6EF60E9C6FFF0E9D6FBCC09EF0BDC06E
:100A10009FF0D8909E379F379C519E279D519F23D2
:100A2000B00E9E25D96E000E9F21DA6EDECF5CF0EF
:100A3000DDCF5DF03CEC0CF0BCC005F0BDC006F0B5
:100A4000000E086E020E076EAC0E096E000E0A6EE6
:100A500010EC0CF00B0E00019D6F260E9C6F5D0ECE
:100A6000E82EFED79C2FFCD79D2FFAD700D000018F
:100A7000BC4BBD2BBDBF46EF05F0BD5109E1090ED2
:100A8000BC5DD8A046EF05F048EF05F0F9EF04F0A3
:100A9000000EC16F000EC06F000EC36F000EC26F5C
:100AA000C251C01907E1C351C119D8A45AEF05F0CA
:100AB0005CEF05F07CEF05F0D890C235D96EC335F8
:100AC000DA6EA00ED926000EDA22D890C035E16E7B
:100AD000C135E26EB00EE126000EE222DE50E618CD
:100AE00007E1DE50E618D8A478EF05F07AEF05F0BC
:100AF0007CEF05F0AA4BAB2BC251C01909E1C351E1
:100B0000C119D8B486EF05F088EF05F0A8EF05F01D
:100B1000D890C235D96EC335DA6EA00ED926000E34
:100B2000DA22D890C035E16EC135E26EB00EE12612
:100B3000000EE222DE50E61807E1DE50E618D8A4E7
:100B4000A4EF05F0A6EF05F0A8EF05F0A84BA92B40
:100B5000C24BC32BC3BFB6EF05F0C35109E1040E6E
:100B6000C25DD8A0B6EF05F0B8EF05F050EF05F084
:100B7000C04BC12BC1BFC6EF05F0C15109E1040E46
:100B8000C05DD8A0C6EF05F0C8EF05F04CEF05F04A
:100B9000AC0E586E000E596E100E5A6E080E5B6E3B
:100BA000AAC05CF0ABC05DF03CEC0CF0000E066E31
:100BB000000E056E000E086E010E076EAC0E096E7B
:100BC000000E0A6E10EC0CF0AC0E586E000E596E52
:100BD000100E5A6E080E5B6EA8C05CF0A9C05DF0E6
:100BE0003CEC0CF0000E066E030E056E000E086E57
:100BF000010E076EAC0E096E000E0A6E10EC0CF0C2
:100C0000150E00019D6F4B0E9C6FBE0EE82EFED799
:100C10009C2FFCD79D2FFAD700F081EF04F007EF4F
:100C200000F01EC036F01FC037F020C038F021C0E1
:100C300039F022C03AF023C03BF024C03CF025C07C
:100C40003DF03DBE26EF06F029EF06F0010E2AEF3B
:100C500006F0000E346E356A34503510D8B433EFD8
:100C600006F035EF06F045EF06F03D1E3C1E3B1E3C
:100C70003A1E391E381E371E366C000E37223822B7
:100C800039223A223B223C223D22000165BF4BEF34
:100C900006F04DEF06F04EEF06F0669365BF5BEF92
:100CA00006F0655106E16405D8B059EF06F05BEF38
:100CB00006F061EF06F0000E316E010E306E65EF4A
:100CC00006F064C030F065C031F062C032F063C03D
:100CD00033F034503510D8A470EF06F072EF06F000
:100CE00079EF06F066A577EF06F079EF06F07CEF76
:100CF00006F03206D8A03306000E3F6E1F0E3E6E81
:100D0000000E896F00EF07F03E06D8A03F066A0E7E
:100D10003E24D96E000E3F20DA6E36C001F037C097
:100D200002F038C003F039C004F03AC005F03BC00F
:100D300006F03CC007F03DC008F00A0E096E000E38
:100D40000A6E000E0B6E000E0C6E000E0D6E000E85
:100D50000E6E000E0F6E000E106E20EC09F001C03A
:100D600026F002C027F003C028F004C029F005C017
:100D70002AF006C02BF007C02CF008C02DF026C0CA
:100D800013F028C014F0A9EC0CF01350300FDF6EF4
:100D90003006D8A031063206D8A0330636C001F09E
:100DA00037C002F038C003F039C004F03AC005F093
:100DB0003BC006F03CC007F03DC008F00A0E096ECB
:100DC000000E0A6E000E0B6E000E0C6E000E0D6E05
:100DD000000E0E6E000E0F6E000E106E5CEC08F032
:100DE00001C036F002C037F003C038F004C039F05B
:100DF00005C03AF006C03BF007C03CF008C03DF02B
:100E00003FBE0BEF07F03F5008E13E04D8A00BEFC8
:100E100007F00DEF07F03EEF07F0365037103810AF
:100E200039103A103B103C103D10D8A41AEF07F0CF
:100E30001CEF07F084EF06F031BE29EF07F03150C8
:100E400006E13004D8B027EF07F029EF07F084EF70
:100E500006F033BE34EF07F0335008E13204D8A077
:100E600034EF07F036EF07F03EEF07F0000166B30E
:100E70003CEF07F03EEF07F084EF06F034503510FA
:100E8000D8A445EF07F047EF07F04FEF07F0000158
:100E900066A54DEF07F04FEF07F06DEF07F03E0648
:100EA000D8A03F0634503510D8A459EF07F05BEFB7
:100EB00007F061EF07F0000E2F6E2B0E2E6E65EF20
:100EC00007F0000E2F6E2D0E2E6E6A0E3E24D96E88
:100ED000000E3F20DA6E2EC0DFFF1CC011F01DC0D7
:100EE00012F06A0E3E24136E000E3F20146E32C0C4
:100EF00015F033C016F0A6EC0AF011C01CF012C0B9
:100F00001DF0120042C0D9FF43C0DAFFDECFF6FF6A
:100F1000DDCFF7FF0800F550250AD8A492EF07F0BF
:100F200094EF07F040EF08F042C0D9FF43C0DAFF6A
:100F3000DE2A000EDD22000E0001636F000E626FDC
:100F400062C066F063C067F06469656942C0D9FF3A
:100F500043C0DAFFDECFF6FFDDCFF7FF0800F55024
:100F6000640AD8B4B6EF07F0B8EF07F0CAEF07F09D
:100F700042C0D9FF43C0DAFFDECFF6FFDDCFF7FF77
:100F80000800F550690AD8A4C8EF07F0CAEF07F0C7
:100F90000AEF08F042C0D9FF43C0DAFFDE2A000E94
:100FA000DD2244C0D9FF45C0DAFFDFCF46F0020E94
:100FB000DE26DFCF47F0000EDD2246C0D9FF47C056
:100FC000DAFFDECF48F0DDCF49F0000E49BEFF0E5C
:100FD0004A6E4B6E4C6E4D6E4E6E4F6E40C01CF0A6
:100FE00041C01DF048C01EF049C01FF04AC020F0AB
:100FF0004BC021F04CC022F04DC023F04EC024F075
:101000004FC025F011EC06F01CC040F01DC041F0AF
:101010005BEF08F042C0D9FF43C0DAFFDECFF6FF36
:10102000DDCFF7FF0800F550250AD8A41AEF08F025
:101030001CEF08F033EF08F042C0D9FF43C0DAFFDD
:10104000DE2A000EDD22000E026E250E016E40C06B
:1010500003F041C004F041EC0AF0000E416E010EB5
:10106000406E5BEF08F042C0D9FF43C0DAFFDE2AD2
:10107000000EDD22000E416E000E406E5BEF08F0A8
:1010800042C0D9FF43C0DAFFDECFF6FFDDCFF7FF66
:101090000800F550016E026A40C003F041C004F040
:1010A00041EC0AF042C0D9FF43C0DAFFDE2A000E4D
:1010B000DD222DEF08F01200000E126E10BE65EF5B
:1010C00008F063EF08F077EF08F0101E0F1E0E1EF9
:1010D0000D1E0C1E0B1E0A1E096C000E0A220B228E
:1010E0000C220D220E220F221022010E126E08BEBB
:1010F0007EEF08F07CEF08F090EF08F0081E071E66
:10110000061E051E041E031E021E016C000E022296
:10111000032204220522062207220822010E121AA7
:1011200020EE13F0070EDE6AE806FDE209500A1011
:101130000B100C100D100E100F101010D8B4A3EFE0
:1011400008F0A5EF08F0F7EF08F0010E116EB3EF0D
:1011500008F0D89009360A360B360C360D360E36A6
:101160000F361036112A10AEB8EF08F0BAEF08F0BB
:10117000A9EF08F0D8901336143615361636173600
:10118000183619361A360950015C0A5002580B50AD
:1011900003580C5004580D5005580E5006580F5067
:1011A000075810500858D8A0D8EF08F0DAEF08F028
:1011B000EBEF08F00950015E0A50025A0B50035A37
:1011C0000C50045A0D50055A0E50065A0F50075A2B
:1011D0001050085A1380D89010320F320E320D3250
:1011E0000C320B320A320932112EBAEF08F01250CB
:1011F000D8B4FDEF08F0FFEF08F00FEF09F01A1E6A
:10120000191E181E171E161E151E141E136C000E16
:101210001422152216221722182219221A2213C06C
:1012200001F014C002F015C003F016C004F017C09E
:1012300005F018C006F019C007F01AC008F0120037
:10124000000E126E08BE29EF09F027EF09F03BEF00
:1012500009F0081E071E061E051E041E031E021EA0
:10126000016C000E0222032204220522062207221C
:101270000822010E126E10BE42EF09F040EF09F095
:1012800052EF09F0101E0F1E0E1E0D1E0C1E0B1E1F
:101290000A1E096C000E0A220B220C220D220E22BD
:1012A0000F22102209500A100B100C100D100E10F6
:1012B0000F101010D8B45FEF09F061EF09F0A9EF3B
:1012C00009F0010E116E6FEF09F0D89009360A3659
:1012D0000B360C360D360E360F361036112A10AE80
:1012E00074EF09F076EF09F065EF09F00950015C41
:1012F0000A5002580B5003580C5004580D50055812
:101300000E5006580F50075810500858D8A08BEFB1
:1013100009F08DEF09F09DEF09F00950015E0A50C8
:10132000025A0B50035A0C50045A0D50055A0E50D5
:10133000065A0F50075A1050085AD89010320F32E0
:101340000E320D320C320B320A320932112E76EF88
:1013500009F01250D8B4AFEF09F0B1EF09F0C1EFC6
:1013600009F0081E071E061E051E041E031E021E8F
:10137000016C000E0222032204220522062207220B
:10138000082201C001F002C002F003C003F004C053
:1013900004F005C005F006C006F007C007F008C05D
:1013A00008F012008AC001F08BC002F08CC003F07C
:1013B0008DC004F08EC005F08FC006F090C007F01D
:1013C00091C008F02D0E096E7F0E0A6E950E0B6E01
:1013D0004C0E0C6E2D0E0D6EF40E0E6E510E0F6E29
:1013E000580E106E61EC0BF001C01BF002C01CF037
:1013F00003C01DF004C01EF005C01FF006C020F0A1
:1014000007C021F008C022F0010E1B2400018A6FE2
:10141000000E1C208B6F000E1D208C6F000E1E20F6
:101420008D6F000E1F208E6F000E20208F6F000E1C
:101430002120906F000E2220916F8AC01BF08BC07C
:101440001CF08CC01DF08DC01EF08EC01FF08FC030
:1014500020F090C021F091C022F0320E39EF0AF056
:10146000D8902232213220321F321E321D321C32DD
:101470001B32E82E30EF0AF01BC019F01DC01AF025
:10148000120003500410D8B448EF0AF04AEF0AF0F3
:1014900053EF0AF003500410D8A451EF0AF053EFB1
:1014A0000AF058EF0AF001508FEC0DF0A5EF0AF0AA
:1014B00020EE04F00350D9260450DA22DE50DE106C
:1014C000D8B465EF0AF067EF0AF082EF0AF020EE79
:1014D00004F00350D9260450DA2210EE02F0035033
:1014E000E1260450E222DE50E65CE650800A096EF6
:1014F000DE50800A0958D8B080EF0AF082EF0AF077
:10150000A5EF0AF020EE02F00350D9260450DA22AB
:10151000DECF05F0DDCF06F003C0D9FF04C0DAFF4F
:10152000DECF07F0DDCF08F005500724D96E065056
:101530000820DA6E01C0DFFF20EE02F00350D9264A
:101540000450DA22DE2A000EDD221200000166A11C
:10155000ACEF0AF0AEEF0AF0B8EF0AF013C00AF0F1
:1015600014C00BF011C00CF012C00DF065EC0CF0C3
:1015700016BEBDEF0AF0BFEF0AF0C5EF0AF015C0C6
:101580001AF016C01BF0C9EF0AF0000E1B6E000E19
:101590001A6E000E196E000E186EDBEF0AF0000EC8
:1015A000026E200E016E11C003F012C004F041EC77
:1015B0000AF0184A192A1A50185C1950800A176E36
:1015C0001B50800A1758D8A0E8EF0AF0EAEF0AF09B
:1015D000CFEF0AF0000166B1F0EF0AF0F2EF0AF087
:1015E000FCEF0AF013C00AF014C00BF011C00CF0AD
:1015F00012C00DF065EC0CF013C001F014C002F045
:1016000002EC0DF01A500124116E1B500220126ED4
:101610001200000E286E24BE12EF0BF010EF0BF03C
:1016200018EF0BF0236C241ED8B0242A010E286E6C
:1016300026BE1FEF0BF01DEF0BF023EF0BF0256C18
:10164000261ED8B0262A25502610D8B42AEF0BF033
:101650002CEF0BF050EF0BF0010E276E34EF0BF078
:10166000D89025362636272A26AE39EF0BF03BEFE9
:101670000BF030EF0BF02550235C26502458D8A0F7
:1016800044EF0BF046EF0BF04AEF0BF02550235ED2
:101690002650245AD89026322532272E3BEF0BF0C5
:1016A0002850D8B456EF0BF058EF0BF05CEF0BF06E
:1016B000236C241ED8B0242A23C023F024C024F095
:1016C000120020EE11F0070EDE6AE806FDE201A02E
:1016D0006CEF0BF06EEF0BF07EEF0BF00950112664
:1016E0000A5012220B5013220C5014220D501522B6
:1016F0000E5016220F50172210501822D89009367B
:101700000A360B360C360D360E360F361036D8909C
:101710000832073206320532043203320232013215
:1017200001500210031004100510061007100810D5
:10173000D8A49DEF0BF09FEF0BF067EF0BF011C0FB
:1017400001F012C002F013C003F014C004F015C081
:1017500005F016C006F017C007F018C008F0120018
:1017600052C056F053C057F0000E0001616F000EDA
:10177000606FCEEF0BF050C040F051C041F0560EFC
:10178000426E000E436E54C044F055C045F082ECEA
:1017900007F04050000160274150612356C0F6FF1A
:1017A00057C0F7FF0800F5500009D8A4DAEF0BF096
:1017B000DCEF0BF0BBEF0BF060C050F061C051F0FC
:1017C0001200F7EF0BF003C0F6FF04C0F7FFF86A52
:1017D000070EF76403D00800F55005D0F6CFE1FFFF
:1017E000F7CFE2FFE7504EEC0DF0034A042A03C0A6
:1017F000F6FF04C0F7FFF86A070EF76403D008008D
:10180000F55005D0F6CFE1FFF7CFE2FFE750000932
:10181000D8A40DEF0CF00FEF0CF0E3EF0BF012007B
:101820001CEF0CF00550800F0D6E32EF0CF00550E0
:10183000C00F0D6E32EF0CF007C00BF008C00CF0BB
:101840000C50000AD8B427EF0CF012EF0CF00B503C
:10185000010AD8B412EF0CF0030AD8B417EF0CF059
:1018600012EF0CF00D501DEC0DF009C003F00AC092
:1018700004F0E1EC0BF012005C0E0001946F000E1E
:10188000956F58C096F059C097F0000E996F000EF2
:10189000986F000E9B6F000E9A6F960E506E000EA2
:1018A000516E5AC052F05BC053F0940E546E000E4D
:1018B000556EB0EC0BF0000198515824D96E995137
:1018C0005920DA6E000EDF6E1200000E106E000E50
:1018D0000F6E76EF0CF00EC001F0026A0CC003F040
:1018E0000DC004F041EC0AF00F4A102A0F500A24F0
:1018F000D96E10500B20DA6EDF500E6E0E50D8A449
:1019000084EF0CF086EF0CF06BEF0CF01200060089
:10191000F2A28DEF0CF08FEF0CF0A7EF0CF00001AE
:1019200069BF9EEF0CF0695107E1020E685DD8B007
:101930009CEF0CF09EEF0CF0A2EF0CF0684B692BC3
:10194000A6EF0CF0000E696F000E686FF2925E92C7
:10195000110014BEB6EF0CF0145006E11304D8B019
:10196000B4EF0CF0B6EF0CF0C4EF0CF013C015F0B0
:1019700014C016F0151E161E154A162A15C013F0AF
:1019800016C014F0C8EF0CF013C013F014C014F01C
:101990001200060EF66E1B0EF76E000EF86E00EECD
:1019A000C4F010EE10F00900F5CFEEFFE550E15065
:1019B000FAE100EE60F0320EEE6AE806FDE15E90BC
:1019C0005E92000EF86E00010AEF04F09690969277
:1019D0000F0E946E8D908D92000E8B6E820E036EA4
:1019E000DE0EE82EFED7032EFCD7020E1DEC0DF006
:1019F000280E1DEC0DF00C0E1DEC0DF0060E1DEC6E
:101A00000DF0120001C003F002C004F00AEF0DF067
:101A1000014A022A01C0D9FF02C0DAFFDF50D8A470
:101A200014EF0DF016EF0DF008EF0DF00350015C10
:101A3000016E04500258026E1200026E8D90025028
:101A4000F00B8B6E6FEC0DF002C001F00F0E011663
:101A50000138F00B8B6E6FEC0DF0060E016E300E40
:101A6000E82EFED7012EFCD700D01200FF0E256E07
:101A7000FF0E266E23C027F024C028F0255027260D
:101A80002650282227C08AF028C08BF000018C6BDA
:101A90008D6B8E6B8F6B906B916B1200026E8D80D5
:101AA0000250F00B8B6E6FEC0DF002C001F00F0EC8
:101AB00001160138F00B8B6E6FEC0DF0210EE82E45
:101AC000FED700F01200F29EF18CF18AF188F292BA
:101AD000F090F092F288F086F088F29E12008D82EB
:101AE000030EE82EFED700F08D92030EE82EFED7EF
:101AF00000F01200700ED3120F0EC16E070E936E1F
:101B0000000E816E120006000000080007000A00A7
:101B10000A000A000A00010E1DEC0DF0120012006E
:020000040020DA
:08000000FFFFFFFFFFFFFFFF00
:020000040030CA
:0E00000000081F1FFF8385FF0FC00FE00F4099
:00000001FF
