:020000040000FA
:0400000007EF00F016
:100008000B82F5ED00F03DEF01F0000E066E04BE28
:1000180012EF00F010EF00F018EF00F0036C041E70
:10002800D8B0042A010E066E02BE1FEF00F01DEFC5
:1000380000F025EF00F0016C021ED8B0022A010E74
:10004800061A000E086E000E076E03500410D8B48E
:1000580030EF00F032EF00F05AEF00F0010E056EBD
:100068003AEF00F0D89003360436052A04AE3FEF85
:1000780000F041EF00F036EF00F0D8900736083670
:100088000350015C04500258D8A04DEF00F04FEF28
:1000980000F054EF00F00350015E0450025A07804C
:1000A800D89004320332052E41EF00F00650D8B440
:1000B80060EF00F062EF00F066EF00F0076C081EDA
:1000C800D8B0082A07C001F008C002F01200000EDC
:1000D800066E02BE74EF00F072EF00F07AEF00F0E7
:1000E800016C021ED8B0022A010E066E04BE81EF12
:1000F80000F07FEF00F085EF00F0036C041ED8B02D
:10010800042A03500410D8B48CEF00F08EEF00F0EE
:10011800B2EF00F0010E056E96EF00F0D8900336AE
:100128000436052A04AE9BEF00F09DEF00F092EF35
:1001380000F00350015C04500258D8A0A6EF00F06C
:10014800A8EF00F0ACEF00F00350015E0450025A33
:10015800D89004320332052E9DEF00F00650D8B433
:10016800B8EF00F0BAEF00F0BEEF00F0016C021E2D
:10017800D8B0022A01C001F002C002F0120026EC39
:1001880001F036EC01F012EC01F08294CECF01F0D0
:10019800026A000E046E0A0E036E6BEC00F001C0DA
:1001A80009F002C00AF0CECF01F0026A000E046E18
:1001B8000A0E036E09EC00F00150100DF3500924EB
:1001C800836E1E0ECE64EBEF00F0EDEF00F0F0EF63
:1001D80000F08480C9EF00F08490C9EF00F007EFC9
:1001E80000F00600F2A2FBEF00F0FDEF00F0FFEFD9
:1001F80000F08284F292F0A004EF01F006EF01F023
:1002080010EF01F0CE50D8B40CEF01F00EEF01F072
:100218000FEF01F0CE06F0900B921100700ED31282
:100228000F0EC16E010E936E010E946E000E956E48
:1002380096908284000E816E000E826E000E836E90
:1002480084901200F29EF28C9E909D80CD9ECD9C53
:10025800CF0ECD16CD96CD94CD82CD80000ECE6E2C
:10026800F28E1200F18CF18AF292F288F090F08608
:0C02780012000B900B920001C3EF00F08D
:020000040020DA
:08000000FFFFFFFFFFFFFFFF00
:020000040030CA
:0E00000000081F1FFF8385FF0FC00FE00F4099
:00000001FF
