:020000040000FA
:0400000007EF00F016
:0A0008005F8242ED20F0DAEF1FF0F6
:10080000004C612054656D70657261747572610091
:1008100025362E32660025362E31690065733A2062
:1008200000494E46004E414E00696E66006E616E94
:09083000006C660043004B00005F
:10083A00000E0001876F000E866F62C098F063C0D9
:10084A0099F064C09AF065C09BF09BBF31EF04F049
:10085A002FEF04F047EF04F0000E876F010E866F4A
:10086A0098C001F099C002F09AC003F09BC004F04E
:10087A00A0EC20F001C098F002C099F003C09AF0F1
:10088A0004C09BF0000E00019F6F000E9E6FF7C020
:10089A008BF0F8C08CF086518711D8A457EF04F07A
:1008AA0059EF04F060EF04F0FBA55EEF04F060EF8F
:1008BA0004F07AEF04F086518711D8A467EF04F0A8
:1008CA0069EF04F06FEF04F0000E716F2B0E706F7A
:1008DA0073EF04F0000E716F2D0E706F70C00AF185
:1008EA009E4B9F2B8B07D8A08C0798C001F099C00C
:1008FA0002F09AC003F09BC004F08EEC1BF00104D6
:10090A000210D8A48BEF04F08DEF04F0E4EF04F0AA
:10091A00BF0E0001676FFF0E686F6651696F6A6BE1
:10092A006751692768516A236A510AE11A0E695D9B
:10093A00D8A0A2EF04F0A5EF04F0010EA6EF04F090
:10094A00000E726F736B72517311D8B4AFEF04F06B
:10095A00B1EF04F0BFEF04F00A0E9E25016E010EFE
:10096A009F21026E210E036E080E046EE3EC1EF048
:10097A00CBEF04F00A0E9E25016E010E9F21026E36
:10098A00290E036E080E046EE3EC1EF00001FD0E44
:10099A008B27FF0E8C2360C011F061C012F00A0E83
:1009AA00136E010E146E8BC015F08CC016F0DDECC0
:1009BA001CF011C060F012C061F0F4EF09F098C0A9
:1009CA0001F099C002F09AC003F09BC004F08EECCB
:1009DA001BF001500210D8A4F5EF04F0F7EF04F071
:1009EA0037EF05F0BF0E0001676FFF0E686F6651A3
:1009FA00696F6A6B6751692768516A236A510AE10C
:100A0A001A0E695DD8A00CEF05F00FEF05F0010E84
:100A1A0010EF05F0000E746F756B74517511D8B430
:100A2A0019EF05F01BEF05F029EF05F00A0E9E25D8
:100A3A00016E010E9F21026E250E036E080E046ED2
:100A4A00E3EC1EF0CBEF04F00A0E9E25016E010EB8
:100A5A009F21026E2D0E036E080E046EE3EC1EF04B
:100A6A00CBEF04F0000E0001A06F000EA16F800E04
:100A7A00A26F3F0EA36F000E9D6F000E9C6F98C071
:100A8A0001F099C002F09AC003F09BC004F0000E76
:100A9A00056E000E066E000E076E000E086EFAEC6A
:100AAA001DF0D8B05BEF05F05DEF05F0E0EF05F063
:100ABA007CEF05F0A0C02EF0A1C02FF0A2C030F04C
:100ACA00A3C031F0000E326E000E336E200E346E6B
:100ADA00410E356E6FEC0FF02EC0A0F02FC0A1F0C2
:100AEA0030C0A2F031C0A3F000019C4B9D2B98C0EE
:100AFA0047F099C048F09AC049F09BC04AF0000EEE
:100B0A00326E000E336E200E346E410E356EA0C06A
:100B1A002EF0A1C02FF0A2C030F0A3C031F06FECCC
:100B2A000FF02EC04BF02FC04CF030C04DF031C04A
:100B3A004EF00CEC1BF0D8B0A5EF05F0A7EF05F0CE
:100B4A005FEF05F0C7EF05F0A0C015F0A1C016F0E1
:100B5A00A2C017F0A3C018F0000E196E000E1A6E8C
:100B6A00200E1B6E410E1C6E84EC11F015C0A0F015
:100B7A0016C0A1F017C0A2F018C0A3F000019C078C
:100B8A00D8A09D0798C047F099C048F09AC049F08C
:100B9A009BC04AF0A0C04BF0A1C04CF0A2C04DF0DF
:100BAA00A3C04EF00CEC1BF0D8A0DEEF05F0E0EF8E
:100BBA0005F0A9EF05F066C007F0086A84EC1EF09C
:100BCA00075000018D6F8DC08AF0670E8D19D8A469
:100BDA00F1EF05F0F3EF05F019EF06F0F951FA110C
:100BEA00D8A4FAEF05F0FCEF05F000EF06F0000ECE
:100BFA00FA6F010EF96FFABF0DEF06F0FA5106E12E
:100C0A00F905D8B00BEF06F00DEF06F013EF06F07A
:100C1A00000E896F060E886F22EF06F0F9C088F081
:100C2A00FAC089F022EF06F0FABF1EEF06F020EFB5
:100C3A0006F00DEF06F013EF06F0670E8D19D8A433
:100C4A0029EF06F02BEF06F05AEF06F09DAF39EFC9
:100C5A0006F0FC0E9C5DFF0E9D59D8A037EF06F0FA
:100C6A0039EF06F058EF06F0FF0E676FFF0E686F58
:100C7A0088C069F089C06AF06751692768516A2398
:100C8A009C51695D6A51800A6B6F9D51800A6B594C
:100C9A00D8A052EF06F054EF06F058EF06F0660EB1
:100CAA008A6F5AEF06F0650E8A6F88C080F089C095
:100CBA0081F0670E8D19D8A465EF06F067EF06F08C
:100CCA0077EF06F0660E8A19D8A46EEF06F070EF79
:100CDA0006F079EF06F09DBF77EF06F075EF06F0A4
:100CEA0079EF06F0804B812B660E8A19D8A480EF23
:100CFA0006F082EF06F0A2EF06F09DBF89EF06F03C
:100D0A0087EF06F095EF06F0000EA06F000EA16FB8
:100D1A00800EA26F3F0EA36F000E9D6F000E9C6F98
:100D2A00670E8D19D8B49CEF06F09EEF06F0A2EF7D
:100D3A0006F09C5180279D518123000E976F000E6B
:100D4A00966F98C08EF099C08FF09AC090F09BC0B1
:100D5A0091F0A0C06CF0A1C06DF0A2C06EF0A3C06B
:100D6A006FF033EF07F08EC015F08FC016F090C009
:100D7A0017F091C018F0A0C019F0A1C01AF0A2C0D3
:100D8A001BF0A3C01CF084EC11F015C02EF016C0A5
:100D9A002FF017C030F018C031F068EC16F02EC0F2
:100DAA0092F02FC093F030C094F031C095F092C009
:100DBA0047F093C048F094C049F095C04AF089ECD6
:100DCA001AF047C084F048C085F08EC057F08FC033
:100DDA0058F090C059F091C05AF0A0C032F0A1C0AA
:100DEA0033F0A2C034F0A3C035F092C02EF093C005
:100DFA002FF094C030F095C031F06FEC0FF02EC098
:100E0A005BF02FC05CF030C05DF031C05EF0FDECED
:100E1A001FF057C08EF058C08FF059C090F05AC0DA
:100E2A0091F0A0C015F0A1C016F0A2C017F0A3C09F
:100E3A0018F0000E196E000E1A6E200E1B6E410E6F
:100E4A001C6E84EC11F015C0A0F016C0A1F017C0FA
:100E5A00A2F018C0A3F00001964B972B8051965D23
:100E6A009751800A676F8151800A6759D8A040EF6D
:100E7A0007F042EF07F0B8EF06F0A0C02EF0A1C0CD
:100E8A002FF0A2C030F0A3C031F0000E326E000E77
:100E9A00336EA00E346E400E356E6FEC0FF02EC01E
:100EAA0092F02FC093F030C094F031C095F08EC00C
:100EBA0047F08FC048F090C049F091C04AF092C004
:100ECA004BF093C04CF094C04DF095C04EF00CEC32
:100EDA001BF0D8B073EF07F075EF07F080EF07F05B
:100EEA00000E0001926F000E936F000E946F000EB9
:100EFA00956FA9EF07F08EC001F08FC002F090C085
:100F0A0003F091C004F092C005F093C006F094C0BB
:100F1A0007F095C008F0FAEC1DF0D8A097EF07F09B
:100F2A0099EF07F0A9EF07F0000184B19FEF07F0EE
:100F3A00A1EF07F0A9EF07F0000E926F000E936F72
:100F4A00000E946F000E956F98C047F099C048F054
:100F5A009AC049F09BC04AF092C04BF093C04CF043
:100F6A0094C04DF095C04EF00FEC0DF047C08EF0D6
:100F7A0048C08FF049C090F04AC091F06CC0A0F010
:100F8A006DC0A1F06EC0A2F06FC0A3F0650E0001A3
:100F9A008A19D8B4D3EF07F0D5EF07F0DBEF07F0E3
:100FAA009CC082F09DC083F0DFEF07F0000E836FD4
:100FBA00000E826F000E7F6F000E7E6F000E7D6F37
:100FCA00000E7C6F000E976F000E966FDAEF08F036
:100FDA008EC015F08FC016F090C017F091C018F0AF
:100FEA00A0C019F0A1C01AF0A2C01BF0A3C01CF047
:100FFA0084EC11F015C02EF016C02FF017C030F097
:10100A0018C031F068EC16F02EC092F02FC093F0A1
:10101A0030C094F031C095F092C047F093C048F0C8
:10102A0094C049F095C04AF089EC1AF047C084F0A0
:10103A0048C085F00001FBB925EF08F027EF08F05A
:10104A0044EF08F084518511D8A42EEF08F030EF50
:10105A0008F044EF08F0670E8D19D8A437EF08F0AE
:10106A0039EF08F044EF08F083BF40EF08F03EEF95
:10107A0008F044EF08F07C4B7D2B8EEF08F07E5190
:10108A007F11D8A44BEF08F04DEF08F077EF08F086
:10109A0083BF54EF08F052EF08F077EF08F00A0E1A
:1010AA009E25D96E010E9F21DA6E2E0EDF6E9E4BA3
:1010BA009F2B8B07D8A08C07000E7F6F010E7E6FC7
:1010CA0077EF08F00A0E9E25D96E010E9F21DA6E7F
:1010DA00300EDF6E9E4B9F2B8B07D8A08C077C07A8
:1010EA00D8A07D077C517D11D8A47EEF08F080EF4F
:1010FA0008F067EF08F00A0E9E25D96E010E9F21AF
:10110A00DA6E8451300FDF6E9E4B9F2B8B07D8A06F
:10111A008C078EC057F08FC058F090C059F091C01C
:10112A005AF0A0C032F0A1C033F0A2C034F0A3C07C
:10113A0035F092C02EF093C02FF094C030F095C0D5
:10114A0031F06FEC0FF02EC05BF02FC05CF030C0B6
:10115A005DF031C05EF0FDEC1FF057C08EF058C054
:10116A008FF059C090F05AC091F0A0C015F0A1C0FC
:10117A0016F0A2C017F0A3C018F0000E196E000EE8
:10118A001A6E200E1B6E410E1C6E84EC11F015C0F7
:10119A00A0F016C0A1F017C0A2F018C0A3F0000179
:1011AA008207D8A08307964B972B8051965D97515B
:1011BA00800A676F8151800A6759D8B0E7EF08F053
:1011CA00E9EF08F0F7EF08F09FBFF5EF08F09F513D
:1011DA0009E14B0E9E5DD8A0F5EF08F0F7EF08F095
:1011EA00EDEF07F07E517F11D8A4FEEF08F000EF73
:1011FA0009F011EF09F0FBA905EF09F007EF09F073
:10120A0011EF09F00A0E9E25D96E010E9F21DA6EA2
:10121A002E0EDF6E9E4B9F2B0A0E9E25D96E010E57
:10122A009F21DA6E000EDF6E650E8A19D8A420EFB0
:10123A0009F022EF09F0D0EF04F0000E976F4F0E7D
:10124A00966F0A0E9625D96E010E9721DA6E000E58
:10125A00DF6E000E876F000E866F9DBF39EF09F0B3
:10126A0037EF09F041EF09F0000E876F010E866F24
:10127A009C6D9D1FD8B09D2B000E896F020E886F42
:10128A0072EF09F09607D8A097070A0E9625D96E2D
:10129A00010E9721DA6E9CC001F09DC002F0000E8B
:1012AA00046E0A0E036EA2EC1DF00150300FDF6EC1
:1012BA009CC001F09DC002F0000E046E0A0E036E7F
:1012CA0040EC1DF001C09CF002C09DF000018807AF
:1012DA00D8A089078B07D8A08C079C519D11D8A448
:1012EA0079EF09F07BEF09F047EF09F089BF88EF42
:1012FA0009F0895106E18805D8B086EF09F088EF30
:10130A0009F047EF09F09607D8A097078651871189
:10131A00D8A492EF09F094EF09F09AEF09F0000EC1
:10132A00776F2B0E766F9EEF09F0000E776F2D0EFA
:10133A00766F0A0E9625D96E010E9721DA6E76C05F
:10134A00DFFF8B07D8A08C079607D8A09707BF0E98
:10135A00676FFF0E686F6651696F6A6B675169271D
:10136A0068516A236A510AE11A0E695DD8A0C0EF72
:10137A0009F0C3EF09F0010EC4EF09F0000E7A6F0D
:10138A007B6B7A517B11D8A4CDEF09F0CFEF09F02E
:10139A00D5EF09F0000E796F650E786FD9EF09F075
:1013AA00000E796F450E786F0A0E9625D96E010EDA
:1013BA009721DA6E78C0DFFF8B07D8A08C070A0E58
:1013CA009E25016E010E9F21026E0A0E9625036E5E
:1013DA00010E9721046EE3EC1EF0D0EF04F0120028
:1013EA00A6C0D9FFA7C0DAFFDECFF6FFDDCFF7FF31
:1013FA000800F550250AD8A405EF0AF007EF0AF00D
:10140A00F3EF0CF0A6C0D9FFA7C0DAFFDE2A000E60
:10141A00DD22000E0001F86F000EF76FF7C0FBF037
:10142A00F8C0FCF0F969FA69A6C0D9FFA7C0DAFFCB
:10143A00DECFF6FFDDCFF7FF0800F5502A0AD8A461
:10144A0029EF0AF02BEF0AF054EF0AF0A6C0D9FFF1
:10145A00A7C0DAFFDE2A000EDD22A8C0D9FFA9C084
:10146A00DAFFDFCFAAF0020EDE26DFCFABF0000EE6
:10147A00DD22AAC0D9FFABC0DAFFDECFF7F0DDCF9D
:10148A00F8F0F8BF4DEF0AF04BEF0AF098EF0AF0C8
:10149A00FB81F76DF81FD8B0F82B98EF0AF0A6C0B9
:1014AA00D9FFA7C0DAFFDECF08F0DDCF09F04BEC99
:1014BA0018F008C0F7F009C0F8F06BEF0AF0A6C000
:1014CA00D9FFA7C0DAFFDE2A000EDD22D00E000106
:1014DA00AA6FFF0EAB6FA6C0D9FFA7C0DAFFDECF97
:1014EA00F6FFDDCFF7FF0800F550AC6FAD6BAA51E0
:1014FA00AC27AB51AD23AD510AE10A0EAC5DD8A0C1
:10150A0089EF0AF08CEF0AF0010E8DEF0AF0000E57
:10151A00B66FB76BB651B711D8A496EF0AF098EF29
:10152A000AF064EF0AF0A6C0D9FFA7C0DAFFDECF3F
:10153A00F6FFDDCFF7FF0800F5502E0AD8A4A8EF72
:10154A000AF0AAEF0AF028EF0BF0000EFA6F000E6D
:10155A00F96FA6C0D9FFA7C0DAFFDE2A000EDD2286
:10156A00A6C0D9FFA7C0DAFFDECFF6FFDDCFF7FFAF
:10157A000800F5502A0AD8A4C5EF0AF0C7EF0AF006
:10158A00E4EF0AF0A6C0D9FFA7C0DAFFDE2A000EF0
:10159A00DD22A8C0D9FFA9C0DAFFDFCFAAF0020E68
:1015AA00DE26DFCFABF0000EDD22AAC0D9FFABC02A
:1015BA00DAFFDECFF9F0DDCFFAF028EF0BF0A6C0A4
:1015CA00D9FFA7C0DAFFDECF08F0DDCF09F04BEC78
:1015DA0018F008C0F9F009C0FAF0FBEF0AF0A6C04B
:1015EA00D9FFA7C0DAFFDE2A000EDD22D00E0001E5
:1015FA00AA6FFF0EAB6FA6C0D9FFA7C0DAFFDECF76
:10160A00F6FFDDCFF7FF0800F550AC6FAD6BAA51BE
:10161A00AC27AB51AD23AD510AE10A0EAC5DD8A09F
:10162A0019EF0BF01CEF0BF0010E1DEF0BF0000E83
:10163A00B86FB96BB851B911D8A426EF0BF028EFDF
:10164A000BF0F4EF0AF0A6C0D9FFA7C0DAFFDECF8D
:10165A00F6FFDDCFF7FF0800F550076E086A84EC45
:10166A001EF007500001C06FC051D8B43FEF0BF015
:10167A0041EF0BF07BEF0BF0A6C0D9FFA7C0DAFF52
:10168A00DECFAAF0DDCFABF0010EAA27000EAB2306
:10169A00AAC0F6FFABC0F7FF0800F550076E086A4C
:1016AA0084EC1EF007500001C16FC151D8B460EF3D
:1016BA000BF062EF0BF07BEF0BF0A6C0D9FFA7C0CF
:1016CA00DAFFDECFAAF0DDCFABF0020EAA27000EBA
:1016DA00AB23AAC0F6FFABC0F7FF0800F550076EB0
:1016EA00086A84EC1EF007500001C26FA6C0D9FF39
:1016FA00A7C0DAFFDECFF6FFDDCFF7FF0800F5500F
:10170A00640AD8B48BEF0BF08DEF0BF09FEF0BF060
:10171A00A6C0D9FFA7C0DAFFDECFF6FFDDCFF7FFFD
:10172A000800F550690AD8A49DEF0BF09FEF0BF063
:10173A00DFEF0BF0A6C0D9FFA7C0DAFFDE2A000E42
:10174A00DD22A8C0D9FFA9C0DAFFDFCFAAF0020EB6
:10175A00DE26DFCFABF0000EDD22AAC0D9FFABC078
:10176A00DAFFDECFAEF0DDCFAFF0000EAFBFFF0E77
:10177A00B06FB16FB26FB36FB46FB56FA4C01CF026
:10178A00A5C01DF0AEC01EF0AFC01FF0B0C020F063
:10179A00B1C021F0B2C022F0B3C023F0B4C024F02B
:1017AA00B5C025F0F6EC14F01CC0A4F01DC0A5F0DD
:1017BA000EEF0DF0660EC019D8A4E6EF0BF0E8EFB5
:1017CA000BF028EF0CF0A6C0D9FFA7C0DAFFDECFD6
:1017DA00F6FFDDCFF7FF0800F5CFC3F0A6C0D9FFAB
:1017EA00A7C0DAFFDE2A000EDD22A8C0D9FFA9C0F1
:1017FA00DAFFDFCFAAF0040EDE26DFCFABF0000E51
:10180A00DD22AAC0D9FFABC0DAFFDECFBCF0DECF43
:10181A00BDF0DECFBEF0DECFBFF0A4C060F0A5C041
:10182A0061F0BCC062F0BDC063F0BEC064F0BFC06E
:10183A0065F0C3C066F01DEC04F060C0A4F061C09E
:10184A00A5F00EEF0DF0C00E016E000E026E310E05
:10185A00036E080E046E000E066E020E056E0DEC87
:10186A001CF001500210D8A43DEF0CF03FEF0CF031
:10187A00BBEF0CF0A6C0D9FFA7C0DAFFDECFAAF0F3
:10188A00DDCFABF0010E0001AA27000EAB23AAC0E0
:10189A00F6FFABC0F7FF0800F5CFC3F0BF0EAA6F83
:1018AA00FF0EAB6FA6C0D9FFA7C0DAFFDECFF6FFE7
:1018BA00DDCFF7FF0800F550AC6FAD6BAA51AC272E
:1018CA00AB51AD23AD510AE11A0EAC5DD8A070EF51
:1018DA000CF073EF0CF0010E74EF0CF0000EBA6FFF
:1018EA00BB6BBA51BB11D8B47DEF0CF07FEF0CF093
:1018FA0099EF0CF0A8C0D9FFA9C0DAFFDFCFAAF090
:10190A00040EDE26DFCFABF0000EDD22AAC0D9FF1F
:10191A00ABC0DAFFDECFBCF0DECFBDF0DECFBEF06B
:10192A00DECFBFF0B1EF0CF0A8C0D9FFA9C0DAFF33
:10193A00DFCFAAF0040EDE26DFCFABF0000EDD22E9
:10194A00AAC0D9FFABC0DAFFDECFBCF0DECFBDF054
:10195A00DECFBEF0DECFBFF0020EA6C0D9FFA7C011
:10196A00DAFFDE26000EDD2212EF0CF0A6C0D9FF48
:10197A00A7C0DAFFDECFF6FFDDCFF7FF0800F5508C
:10198A00250AD8A4CBEF0CF0CDEF0CF0E5EF0CF064
:10199A00A6C0D9FFA7C0DAFFDE2A000EDD22000E9C
:1019AA00026E250E016EA4C003F0A5C004F078EC07
:1019BA001CF0000E0001A56F010EA46F0EEF0DF0D2
:1019CA00A6C0D9FFA7C0DAFFDE2A000EDD22000E6C
:1019DA000001A56F000EA46F0EEF0DF0A6C0D9FF8F
:1019EA00A7C0DAFFDECFF6FFDDCFF7FF0800F5501C
:1019FA00016E026AA4C003F0A5C004F078EC1CF0E2
:101A0A00A6C0D9FFA7C0DAFFDE2A000EDD22DEEF6C
:101A1A000CF012004A50800B536E4A504A24556EFD
:101A2A0049AE1AEF0DF01CEF0DF01DEF0DF05580C9
:101A3A005550D8B423EF0DF025EF0DF03AEF0DF025
:101A4A005528D8A42BEF0DF02DEF0DF035EF0DF042
:101A5A00000E476E000E486E000E496E000E4A6E6A
:101A6A00498E000E4A6E42EF0DF0000E476E000ED0
:101A7A00486E000E496E000E4A6E4E50800B546E30
:101A8A0053505418D8B44CEF0DF04EEF0DF04FEF01
:101A9A000DF0538C4E504E24546E4DAE57EF0DF050
:101AAA0059EF0DF05AEF0DF054805450D8B460EF4E
:101ABA000DF062EF0DF077EF0DF05428D8A468EF1F
:101ACA000DF06AEF0DF072EF0DF0000E4B6E000E86
:101ADA004C6E000E4D6E000E4E6E4D8E000E4E6E0A
:101AEA007FEF0DF0000E4B6E000E4C6E000E4D6E29
:101AFA00000E4E6E5550545CD8B086EF0DF088EF4C
:101B0A000DF0AFEF0DF053AC8DEF0DF08FEF0DF040
:101B1A0091EF0DF0800E531A55C056F054C055F08F
:101B2A0056C054F047C056F04BC047F056C04BF071
:101B3A0048C056F04CC048F056C04CF049C056F068
:101B4A004DC049F056C04DF04AC056F04EC04AF05A
:101B5A0056C04EF0000E566E555054C04FF0506AA3
:101B6A004F5E000E505A50BEC4EF0DF0505009E1BE
:101B7A001A0E4F5CD8A0C4EF0DF0C6EF0DF0FDEFC2
:101B8A000DF04750481049104A10D8A4CFEF0DF075
:101B9A00D2EF0DF0010ED3EF0DF0000E566E000ECF
:101BAA00476E000E486E000E496E000E4A6E54C013
:101BBA0055F006EF0EF056A0E5EF0DF0E7EF0DF049
:101BCA00EDEF0DF0D89056300109566EEFEF0DF09B
:101BDA00D890563247A0F4EF0DF0F6EF0DF0F7EF7C
:101BEA000DF0568E4A344A32493248324732552A23
:101BFA005450555CD8A004EF0EF006EF0EF0E0EF5B
:101C0A000DF053BC0BEF0EF00DEF0EF04DEF0EF092
:101C1A005550D8A413EF0EF015EF0EF01FEF0EF08B
:101C2A00000E476E000E486E000E496E000E4A6E98
:101C3A006EEF0FF04B5047264C5048224D50492228
:101C4A004E504A224AA02CEF0EF02EEF0EF0DAEF99
:101C5A000EF056A033EF0EF035EF0EF03BEF0EF01C
:101C6A00D89056300109566E3DEF0EF0D890563294
:101C7A0047A042EF0EF044EF0EF045EF0EF0568EFD
:101C8A004A344A32493248324732552ADAEF0EF09C
:101C9A004B50475C4C5048584D5049584A50800A5E
:101CAA004F6E4E50800A4F58D8B05EEF0EF060EF7C
:101CBA000EF08BEF0EF047504B5C4F6E48504C586D
:101CCA00506E49504D58516E4A504E58526EFF0E42
:101CDA004F24476EFF0E5020486EFF0E5120496E6A
:101CEA00FF0E52204A6E800E531A566C5650D8A4D4
:101CFA0081EF0EF083EF0EF093EF0EF0010E472600
:101D0A00000E482249224A2293EF0EF04B50475EBA
:101D1A004C50485A4D50495A4E504A5A475048100A
:101D2A0049104A10D8A49CEF0EF09EEF0EF0D3EFA4
:101D3A000EF05650D8A4A4EF0EF0A6EF0EF0D3EF93
:101D4A000EF0000E476E000E486E000E496E000E31
:101D5A004A6E6EEF0FF0D8904736483649364A3603
:101D6A0056AEBAEF0EF0BCEF0EF0BDEF0EF04780A4
:101D7A0056A0C2EF0EF0C4EF0EF0C8EF0EF0D880F6
:101D8A005636CAEF0EF0D89056365550D8B4D0EF22
:101D9A000EF0D2EF0EF0D3EF0EF0550649AED8EFA3
:101DAA000EF0DAEF0EF0B0EF0EF0000E546E56AEF3
:101DBA00E1EF0EF0E3EF0EF0FBEF0EF056C04FF03E
:101DCA007F0E4F16D8B4ECEF0EF0EEEF0EF0F2EFF6
:101DDA000EF0010E546EFBEF0EF047A0F7EF0EF077
:101DEA00F9EF0EF0FBEF0EF0EEEF0EF05450D8B410
:101DFA0001EF0FF003EF0FF02EEF0FF0010E472661
:101E0A00000E482249224A224AA00EEF0FF010EF94
:101E1A000FF02EEF0FF047C04FF048C050F049C006
:101E2A0051F04AC052F052345232513250324F328B
:101E3A004FC047F050C048F051C049F052C04AF074
:101E4A005528D8B42BEF0FF02DEF0FF02EEF0FF02F
:101E5A00552A5528D8B434EF0FF036EF0FF03EEF7D
:101E6A000FF05550D8A43CEF0FF03EEF0FF050EFB3
:101E7A000FF0000E476E000E486E000E496E000EFF
:101E8A004A6E5550D8A44CEF0FF04EEF0FF050EFBA
:101E9A000FF0000E536E55A055EF0FF057EF0FF0ED
:101EAA005AEF0FF0498E5BEF0FF0499ED8905530EC
:101EBA004A6E53AE63EF0FF065EF0FF066EF0FF067
:101ECA004A8E47C047F048C048F049C049F04AC066
:101EDA004AF012003150800B3A6E31503124406E74
:101EEA0030AE7AEF0FF07CEF0FF07DEF0FF040800D
:101EFA004050D8B483EF0FF085EF0FF098EF0FF052
:101F0A004028D8A48BEF0FF08DEF0FF095EF0FF06C
:101F1A00000E2E6E000E2F6E000E306E000E316E09
:101F2A00308EA0EF0FF0000E2E6E000E2F6E000EF8
:101F3A00306E000E316E3550800B3A1A355035240A
:101F4A003F6E34AEABEF0FF0ADEF0FF0AEEF0FF028
:101F5A003F803F50D8B4B4EF0FF0B6EF0FF0C9EF9F
:101F6A000FF03F28D8A4BCEF0FF0BEEF0FF0C6EF7A
:101F7A000FF0000E326E000E336E000E346E000E3D
:101F8A00356E348ED1EF0FF0000E326E000E336EC6
:101F9A00000E346E000E356E3F50D8B4D7EF0FF0F6
:101FAA00D9EF0FF0E1EF0FF04050D8A4DFEF0FF0B8
:101FBA00E1EF0FF0EBEF0FF0000E2E6E000E2F6E1A
:101FCA00000E306E000E316E83EF11F034502E0287
:101FDA00F3CF45F0F4CF46F045503B6E3C6A3D6A7C
:101FEA003E6A4650416E426A436A446A33502F023F
:101FFA00F3CF45F0F4CF46F045503B26000E3C2285
:10200A003D223E2246504126000E422243224422CD
:10201A0032503002F3CF45F0F4CF46F045503B261C
:10202A00000E3C223D223E2246504126000E42220C
:10203A00432244223DC03EF03CC03DF03BC03CF050
:10204A003B6A32502F02F3CF45F0F4CF46F04550A9
:10205A003B2646503C22000E3D22000E3E223350C3
:10206A002E02F3CF45F0F4CF46F045503B264650BA
:10207A003C22000E3D22000E3E223DC03EF03CC0F6
:10208A003DF03BC03CF03B6A32502E02F3CF45F0A4
:10209A00F4CF46F045503B2646503C22000E3D22E6
:1020AA00000E3E2234502F02F3CF45F0F4CF46F013
:1020BA004550412646504222000E4322000E442239
:1020CA0033503002F3CF45F0F4CF46F04550412665
:1020DA0046504222000E4322000E4422345030025F
:1020EA00F3CF45F0F4CF46F04550366E4650376E82
:1020FA00386A396A38C039F037C038F036C037F034
:10210A00366A3650412637504222385043223950D7
:10211A0044223BC036F03CC037F03DC038F03EC0E8
:10212A0039F0190E9EEF10F0D89039323832373222
:10213A003632E82E99EF10F03650412637504222B7
:10214A0038504322395044223DC03EF03CC03DF055
:10215A003BC03CF03B6A3F5040C036F0376A3626F7
:10216A00000E3722820E3624456EFF0E3720466E49
:10217A00D4EF10F0D89041364236433644363EAE5C
:10218A00C9EF10F0CBEF10F0CCEF10F04180D890EF
:10219A003B363C363D363E364506D8A0460643AE6B
:1021AA00D9EF10F0DBEF10F0BFEF10F0000E3F6E2A
:1021BA003EAEE2EF10F0E4EF10F008EF11F0FF0E80
:1021CA003B14366EFF0E3C14376EFF0E3D14386E0C
:1021DA007F0E3E14396E3650371038103910D8B485
:1021EA00F9EF10F0FBEF10F0FFEF10F0010E3F6E69
:1021FA0008EF11F041A004EF11F006EF11F008EF1B
:10220A0011F0FBEF10F03F50D8B40EEF11F010EFC1
:10221A0011F034EF11F0010E4126000E4222432242
:10222A00442244A01BEF11F01DEF11F034EF11F01E
:10223A0041C036F042C037F043C038F044C039F0EC
:10224A003934393238323732363236C041F037C053
:10225A0042F038C043F039C044F0454A462A46BEE7
:10226A003FEF11F0465008E14528D8A03FEF11F0A2
:10227A0041EF11F04BEF11F0000E416E000E426E6D
:10228A00800E436E7F0E446E79EF11F046BE58EF12
:10229A0011F0465006E14504D8B056EF11F058EF58
:1022AA0011F064EF11F0000E416E000E426E000E46
:1022BA00436E000E446E000E3A6E79EF11F045C07F
:1022CA0040F0FF0E4116FF0E42167F0E4316000E17
:1022DA00441640A073EF11F075EF11F076EF11F08C
:1022EA00438ED8904030446E3A50441241C02EF08A
:1022FA0042C02FF043C030F044C031F012001850F1
:10230A00800B256E185018242C6E17AE8FEF11F023
:10231A0091EF11F092EF11F02C802C50D8B498EF75
:10232A0011F09AEF11F0AFEF11F02C28D8A4A0EF1A
:10233A0011F0A2EF11F0AAEF11F0000E156E000EC7
:10234A00166E000E176E000E186E178E000E186E9F
:10235A00B7EF11F0000E156E000E166E000E176E16
:10236A00000E186E1C50800B251A1C501C242D6E52
:10237A001BAEC2EF11F0C4EF11F0C5EF11F02D80C2
:10238A002D50D8B4CBEF11F0CDEF11F0E2EF11F0F0
:10239A002D28D8A4D3EF11F0D5EF11F0DDEF11F00D
:1023AA00000E196E000E1A6E000E1B6E000E1C6EC9
:1023BA001B8E000E1C6EEAEF11F0000E196E000E55
:1023CA001A6E000E1B6E000E1C6E19501A101B108E
:1023DA001C10D8A4F3EF11F0F5EF11F00DEF12F085
:1023EA00000E156E000E166E000E176E000E186E99
:1023FA00800E17127F0E18122550181215C015F0EC
:10240A0016C016F017C017F018C018F050EF13F0E6
:10241A002C50D8A413EF12F015EF12F01FEF12F0A0
:10242A00000E156E000E166E000E176E000E186E58
:10243A0050EF13F02D502CC01DF01E6A1D5E000EC9
:10244A001E5A7F0E1D24266E000E1E20276E15C0F2
:10245A0021F016C022F017C023F018C024F0000E95
:10246A00156E000E166E000E176E000E186E000E18
:10247A00286E000E296E000E2A6E000E2B6E000EBC
:10248A002D6E80EF12F02D50D8B44EEF12F050EFAF
:10249A0012F067EF12F0D89021362236233624360E
:1024AA00D89015361636173618362BAE5FEF12F05F
:1024BA0061EF12F062EF12F01580D89028362936B3
:1024CA002A362B361950215C1A5022581B50235891
:1024DA001C502458D8A074EF12F076EF12F07FEF58
:1024EA0012F02B8C1950215E1A50225A1B50235A73
:1024FA001C50245A2D2A190E2D6486EF12F088EFEB
:10250A0012F048EF12F02150221023102410D8B4F0
:10251A0091EF12F093EF12F0ABEF12F02880ABEFCD
:10252A0012F0D89015361636173618362BAEA0EF9D
:10253A0012F0A2EF12F0A3EF12F01580D89028360D
:10254A0029362A362B362606D8A0270617AEB0EF2C
:10255A0012F0B2EF12F096EF12F0000E2D6E2BAEC3
:10256A00B9EF12F0BBEF12F0DFEF12F0FF0E2814F2
:10257A001D6EFF0E29141E6EFF0E2A141F6E7F0E8B
:10258A002B14206E1D501E101F102010D8B4D0EF2F
:10259A0012F0D2EF12F0D6EF12F0010E2D6EDFEF2D
:1025AA0012F015A0DBEF12F0DDEF12F0DFEF12F000
:1025BA00D2EF12F02D50D8B4E5EF12F0E7EF12F097
:1025CA000BEF13F0010E1526000E16221722182201
:1025DA0018A0F2EF12F0F4EF12F00BEF13F015C09F
:1025EA001DF016C01EF017C01FF018C020F02034CE
:1025FA0020321F321E321D321DC015F01EC016F0C9
:10260A001FC017F020C018F0264A272A27BE16EF47
:10261A0013F0275008E12628D8A016EF13F018EF78
:10262A0013F023EF13F0000E276E2668000E156EC6
:10263A00000E166E000E176E000E186E27BE30EFD3
:10264A0013F0275006E12604D8B02EEF13F030EF2E
:10265A0013F03EEF13F0000E276E000E266E000EEA
:10266A00156E000E166E000E176E000E186E000E16
:10267A00256E26C02CF02CA045EF13F047EF13F07F
:10268A004AEF13F0178E4BEF13F0179ED8902C30A9
:10269A00186E01EF12F0120075EC21F050EC21F0E7
:1026AA006AEC21F0D8EC20F07EEC21F0010E036EEA
:1026BA00080E046EB4EC1EF0000E066E000E056ED7
:1026CA00000E086E020E076E1C0E096E080E0A6EC8
:1026DA0011EC1FF021EE5AF010EEE0F0070EDBCFFE
:1026EA00E3FFE806FCE2E00E036E000E046E000E45
:1026FA00B5EC1FF0000E046E0A0E036E000E066E95
:10270A00020E056E8FEC1FF0000E28EC21F0C2823B
:10271A00C4500001DF6FDE6BC350DE25F06F000E80
:10272A00DF21F16F000E326E000E336EA00E346E92
:10273A00400E356E000E196EC00E1A6E7F0E1B6E9D
:10274A00440E1C6EF0C001F0F1C002F0000E046EDF
:10275A00640E036E3DEC21F001C007F002C008F0E0
:10276A00000E08BEFF0E096E0A6E010E71EC17F01C
:10277A0007C015F008C016F009C017F00AC018F013
:10278A0084EC11F015C02EF016C02FF017C030F0EF
:10279A0018C031F06FEC0FF02EC047F02FC048F090
:1027AA0030C049F031C04AF089EC1AF047C0F5F060
:1027BA0048C0F6F0000E196E000E1A6EA00E1B6EBF
:1027CA00400E1C6E000E326E000E336E100E346E0A
:1027DA00410E356EF5C007F0F6C008F0000E08BECF
:1027EA00FF0E096E0A6E010E71EC17F007C02EF08B
:1027FA0008C02FF009C030F00AC031F06FEC0FF0BA
:10280A002EC015F02FC016F030C017F031C018F0E6
:10281A0084EC11F015C047F016C048F017C049F013
:10282A0018C04AF0000E4B6E000E4C6E000E4D6E34
:10283A00420E4E6E0FEC0DF047C0E8F048C0E9F0CA
:10284A0049C0EAF04AC0EBF0F5C007F0F6C008F05C
:10285A00000E08BEFF0E096E0A6E010E71EC17F02B
:10286A0007C047F008C048F009C049F00AC04AF05A
:10287A00330E4B6E930E4C6E880E4D6E430E4E6E9B
:10288A000FEC0DF047C0ECF048C0EDF049C0EEF097
:10289A004AC0EFF0DDEF14F0F20ECC6F000ECD6FF0
:1028AA00100ECE6F080ECF6FECC0D0F0EDC0D1F095
:1028BA00EEC0D2F0EFC0D3F03DEC1FF0000E066E72
:1028CA00040E056E000E086E020E076EF20E096EF9
:1028DA00000E0A6E11EC1FF0000E066E0B0E056E4E
:1028EA00000E086E020E076E360E096E080E0A6E8C
:1028FA0011EC1FF08CEF13F0F20ECC6F000ECD6FBF
:10290A00100ECE6F080ECF6FE8C0D0F0E9C0D1F03C
:10291A00EAC0D2F0EBC0D3F03DEC1FF0000E066E19
:10292A00040E056E000E086E020E076EF20E096E98
:10293A00000E0A6E11EC1FF0000E066E0B0E056EED
:10294A00000E086E020E076E230E096E080E0A6E3E
:10295A0011EC1FF08CEF13F0F20ECC6F000ECD6F5E
:10296A00160ECE6F080ECF6FF5C0D0F0F6C0D1F0BC
:10297A003DEC1FF0000E066E040E056E000E086E8A
:10298A00020E076EF20E096E000E0A6E11EC1FF0AF
:10299A00000E066E0B0E056E000E086E020E076E16
:1029AA00340E096E080E0A6E11EC1FF08CEF13F04C
:1029BA00FDC0DEF0FEC0DFF00001DF51000AD8B42E
:1029CA00E9EF14F0B1EF14F0DE51010AD8B451EF77
:1029DA0014F0030AD8B481EF14F0B1EF14F007EF42
:1029EA0000F01EC036F01FC037F020C038F021C0FA
:1029FA0039F022C03AF023C03BF024C03CF025C095
:102A0A003DF03DBE0BEF15F00EEF15F0010E0FEF86
:102A1A0015F0000E346E356A34503510D8B418EFFC
:102A2A0015F01AEF15F02AEF15F03D1E3C1E3B1E5D
:102A3A003A1E391E381E371E366C000E37223822CF
:102A4A0039223A223B223C223D220001FABF30EFD2
:102A5A0015F032EF15F033EF15F0FB93FABF40EFA4
:102A6A0015F0FA5106E1F905D8B03EEF15F040EF3E
:102A7A0015F046EF15F0000E316E010E306E4AEF7A
:102A8A0015F0F9C030F0FAC031F0F7C032F0F8C0F2
:102A9A0033F034503510D8A455EF15F057EF15F030
:102AAA005EEF15F0FBA55CEF15F05EEF15F061EF38
:102ABA0015F03206D8A03306000E3F6E4F0E3E6E5A
:102ACA00000E0101596FE6EF15F03E06D8A03F0649
:102ADA000A0E3E24D96E010E3F20DA6E36C001F08E
:102AEA0037C002F038C003F039C004F03AC005F02C
:102AFA003BC006F03CC007F03DC008F00A0E096E64
:102B0A00000E0A6E000E0B6E000E0C6E000E0D6E9D
:102B1A00000E0E6E000E0F6E000E106ED7EC19F03E
:102B2A0001C026F002C027F003C028F004C029F033
:102B3A0005C02AF006C02BF007C02CF008C02DF003
:102B4A0026C013F028C014F064EC20F01350300FA4
:102B5A00DF6E3006D8A031063206D8A0330636C05A
:102B6A0001F037C002F038C003F039C004F03AC0AF
:102B7A0005F03BC006F03CC007F03DC008F00A0E65
:102B8A00096E000E0A6E000E0B6E000E0C6E000E21
:102B9A000D6E000E0E6E000E0F6E000E106E13EC10
:102BAA0019F001C036F002C037F003C038F004C093
:102BBA0039F005C03AF006C03BF007C03CF008C047
:102BCA003DF03FBEF1EF15F03F5008E13E04D8A0BA
:102BDA00F1EF15F0F3EF15F024EF16F03650371039
:102BEA00381039103A103B103C103D10D8A400EFB1
:102BFA0016F002EF16F06AEF15F031BE0FEF16F07D
:102C0A00315006E13004D8B00DEF16F00FEF16F090
:102C1A006AEF15F033BE1AEF16F0335008E13204AA
:102C2A00D8A01AEF16F01CEF16F024EF16F00001E8
:102C3A00FBB322EF16F024EF16F06AEF15F03450CA
:102C4A003510D8A42BEF16F02DEF16F035EF16F04D
:102C5A000001FBA533EF16F035EF16F053EF16F02F
:102C6A003E06D8A03F0634503510D8A43FEF16F0E0
:102C7A0041EF16F047EF16F0000E2F6E2B0E2E6E58
:102C8A004BEF16F0000E2F6E2D0E2E6E0A0E3E24FE
:102C9A00D96E010E3F20DA6E2EC0DFFF1CC011F084
:102CAA001DC012F00A0E3E24136E010E3F20146E50
:102CBA0032C015F033C016F0DDEC1CF011C01CF068
:102CCA0012C01DF0120000C13EF001C13FF002C166
:102CDA0040F003C141F02EC03EF02FC03FF030C09B
:102CEA0040F031C041F0810E326EFF0E336E3EC0AD
:102CFA0034F03FC035F040C036F041C037F0180E0E
:102D0A008CEF16F0D8903732363235323432E82E1C
:102D1A0087EF16F0345032243C6E000E33203D6E9D
:102D2A003DBEA1EF16F03D5009E1170E3C5CD8A05C
:102D3A00A1EF16F0A3EF16F0ADEF16F02EC02EF0AD
:102D4A002FC02FF030C030F031C031F070EF17F0E3
:102D5A003DBEB2EF16F0B4EF16F024EF17F03CC008
:102D6A0032F0FF0E336EFF0E346E7F0E356E000E9C
:102D7A00366E3266C3EF16F0CBEF16F036343632C3
:102D8A00353234323332322EBEEF16F033C038F0D9
:102D9A0034C039F035C03AF036C03BF038503E14F2
:102DAA00326E39503F14336E3A504014346E3B50F1
:102DBA004114356E3250331034103510D8A4E8EF70
:102DCA0016F0EAEF16F0ECEF16F0A3EF16F03EC09D
:102DDA0032F03FC033F040C034F041C035F0200E2D
:102DEA00FCEF16F0D8903532343233323232E82ED4
:102DFA00F7EF16F03250331034103510D8B408EF0C
:102E0A0017F00AEF17F012EF17F038503E26395034
:102E1A003F223A5040223B504122381C326E391C24
:102E2A00336E3A1C346E3B1C356E32503E163350AC
:102E3A003F16345040163550411668EF17F03EC021
:102E4A0032F03FC033F040C034F041C035F0200EBC
:102E5A0034EF17F0D8903532343233323232E82E2A
:102E6A002FEF17F03250331034103510D8A440EF3A
:102E7A0017F042EF17F04CEF17F0000E3E6E000EFF
:102E8A003F6E000E406E000E416E68EF17F0D8904C
:102E9A003E34326E3F34336E4034346E4134356ED4
:102EAA003250331034103510D8B45EEF17F060EF9B
:102EBA0017F068EF17F0000E3E6E000E3F6E800EA0
:102ECA00406EBF0E416E3EC02EF03FC02FF040C094
:102EDA0030F041C031F012000F6E0F50D8B478EFC5
:102EEA0017F07AEF17F09CEF17F00ABE81EF17F090
:102EFA007FEF17F09CEF17F007C00BF008C00CF03B
:102F0A0009C00DF00AC00EF00B1E0C1E0D1E0E1E7F
:102F1A000B2A000E0C220D220E220BC011F00CC03F
:102F2A0012F00DC013F00EC014F0A4EF17F007C092
:102F3A0011F008C012F009C013F00AC014F00750CB
:102F4A00081009100A10D8A4ADEF17F0AFEF17F068
:102F5A00B9EF17F0000E076E000E086E000E096E2C
:102F6A00000E0A6E4AEF18F0960E106EC3EF17F0B5
:102F7A00102AD8901432133212321132000E111460
:102F8A000B6E000E12140C6E000E13140D6EFE0E54
:102F9A0014140E6E0B500C100D100E10D8A4D8EF8E
:102FAA0017F0DAEF17F0BDEF17F0E8EF17F0102A75
:102FBA00010E1126000E122213221422D890143266
:102FCA00133212321132000E11140B6E000E12144B
:102FDA000C6E000E13140D6EFF0E14140E6E0B50B1
:102FEA000C100D100E10D8A4FDEF17F0FFEF17F01C
:102FFA00DCEF17F007EF18F01006D89011361236EA
:10300A001336143613BE0CEF18F00EEF18F016EF45
:10301A0018F0020E106014EF18F016EF18F001EF16
:10302A0018F010B01BEF18F01DEF18F01EEF18F093
:10303A00139ED890103210C00BF00C6A0D6A0E6AFB
:10304A000BC00EF00D6A0C6A0B6A0B5011120C5071
:10305A0012120D5013120E5014120F50D8B438EF2A
:10306A0018F03AEF18F042EF18F00ABE41EF18F0E4
:10307A003FEF18F042EF18F0148E11C007F012C09B
:10308A0008F013C009F014C00AF01200000E166E00
:10309A00000E156E000E0F6E000E0E6E57EF18F032
:1030AA00084A092A010E146E08C0F6FF09C0F7FF84
:1030BA000800F550200AD8B465EF18F067EF18F049
:1030CA0084EF18F0F70E0A6EFF0E0B6E08C0F6FFBB
:1030DA0009C0F7FF0800F5500C6E0D6A0A500C265D
:1030EA000B500D220D5009E1050E0C5CD8A080EFA3
:1030FA0018F082EF18F084EF18F0000E146E14C066
:10310A0010F0116A10501110D8A48EEF18F090EF39
:10311A0018F055EF18F09AEF18F0000E0F6E010E26
:10312A000E6E084A092ACFEF18F008C0F6FF09C048
:10313A00F7FF0800F5500A6E0B6A0B50000AD8B464
:10314A00A9EF18F0CFEF18F00A502B0AD8B496EF6F
:10315A0018F0060AD8B492EF18F0CFEF18F015C09D
:10316A0001F016C002F0000E046E0A0E036E3DEC6A
:10317A0021F008C0F6FF09C0F7FF0800F550015E0C
:10318A00000E025A300E0124156E000E0220166E31
:10319A0096EF18F0D00E0A6EFF0E0B6E08C0F6FFFF
:1031AA0009C0F7FF0800F5500C6E0D6A0A500C268C
:1031BA000B500D220D500AE10A0E0C5CD8A0E8EF64
:1031CA0018F0EBEF18F0010EECEF18F0000E126E8B
:1031DA00136A12501310D8A4F5EF18F0F7EF18F08D
:1031EA00B4EF18F00E500F10D8A4FEEF18F000EF4D
:1031FA0019F00EEF19F015C00AF016C00BF00A1EEE
:10320A000B1E0A4A0B2A0AC008F00BC009F012EF7B
:10321A0019F015C008F016C009F01200000E126E5F
:10322A0010BE1CEF19F01AEF19F02EEF19F0101E4C
:10323A000F1E0E1E0D1E0C1E0B1E0A1E096C000E02
:10324A000A220B220C220D220E220F221022010E1C
:10325A00126E08BE35EF19F033EF19F047EF19F087
:10326A00081E071E061E051E041E031E021E016CF2
:10327A00000E022203220422052206220722082225
:10328A00010E121A20EE13F0070EDE6AE806FDE2BE
:10329A0009500A100B100C100D100E100F10101000
:1032AA00D8B45AEF19F05CEF19F0AEEF19F0010E2D
:1032BA00116E6AEF19F0D89009360A360B360C36B9
:1032CA000D360E360F361036112A10AE6FEF19F082
:1032DA0071EF19F060EF19F0D890133614361536DD
:1032EA0016361736183619361A360950015C0A503E
:1032FA0002580B5003580C5004580D5005580E50E4
:10330A0006580F50075810500858D8A08FEF19F0D8
:10331A0091EF19F0A2EF19F00950015E0A50025A12
:10332A000B50035A0C50045A0D50055A0E50065AA7
:10333A000F50075A1050085A1380D89010320F3283
:10334A000E320D320C320B320A320932112E71EF63
:10335A0019F01250D8B4B4EF19F0B6EF19F0C6EF5D
:10336A0019F01A1E191E181E171E161E151E141ED7
:10337A00136C000E14221522162217221822192263
:10338A001A2213C001F014C002F015C003F016C0CF
:10339A0004F017C005F018C006F019C007F01AC0EB
:1033AA0008F01200000E126E08BEE0EF19F0DEEF10
:1033BA0019F0F2EF19F0081E071E061E051E041E5C
:1033CA00031E021E016C000E0222032204220522A1
:1033DA00062207220822010E126E10BEF9EF19F01A
:1033EA00F7EF19F009EF1AF0101E0F1E0E1E0D1E30
:1033FA000C1E0B1E0A1E096C000E0A220B220C223E
:10340A000D220E220F22102209500A100B100C1046
:10341A000D100E100F101010D8B416EF1AF018EF86
:10342A001AF060EF1AF0010E116E26EF1AF0D8901A
:10343A0009360A360B360C360D360E360F3610366E
:10344A00112A10AE2BEF1AF02DEF1AF01CEF1AF01A
:10345A000950015C0A5002580B5003580C5004588A
:10346A000D5005580E5006580F500758105008585E
:10347A00D8A042EF1AF044EF1AF054EF1AF00950AC
:10348A00015E0A50025A0B50035A0C50045A0D504E
:10349A00055A0E50065A0F50075A1050085AD8901B
:1034AA0010320F320E320D320C320B320A3209321E
:1034BA00112E2DEF1AF01250D8B466EF1AF068EFF9
:1034CA001AF078EF1AF0081E071E061E051E041EC3
:1034DA00031E021E016C000E022203220422052290
:1034EA0006220722082201C001F002C002F003C02E
:1034FA0003F004C004F005C005F006C006F007C0DA
:10350A0007F008C008F0120049344A34506E50508F
:10351A00D8A492EF1AF094EF1AF09EEF1AF0000E68
:10352A00476E000E486E000E496E000E4A6E0BEF93
:10353A001BF047C04BF048C04CF049C04DF04AC0A0
:10354A004EF0200EAEEF1AF0D8904E324D324C3279
:10355A004B32E82EA9EF1AF04B504F6E498EFF0EF0
:10356A004716FF0E4816FF0E4916000E4A16960E0B
:10357A00505E50BEC5EF1AF0C3EF1AF0DBEF1AF037
:10358A005050800A970FD8B0CDEF1AF0CFEF1AF04B
:10359A00D1EF1AF094EF1AF0D8904A3249324832F1
:1035AA004732503ED1EF1AF0F3EF1AF01F0E506473
:1035BA00E1EF1AF0E3EF1AF0EBEF1AF094EF1AF0DA
:1035CA00D8904736483649364A3650065050D8A41D
:1035DA00F1EF1AF0F3EF1AF0E5EF1AF04F50D8B402
:1035EA00F9EF1AF0FBEF1AF003EF1BF04A1E491E1F
:1035FA00481E476C000E482249224A2247C047F01B
:10360A0048C048F049C049F04AC04AF01200000ECA
:10361A0047144F6E000E4814506E800E4914516EB6
:10362A007F0E4A14526E4F50501051105210D8A4A7
:10363A0021EF1BF023EF1BF02BEF1BF0000E476E60
:10364A00000E486E000E496E000E4A6E000E4B14B4
:10365A004F6E000E4C14506E800E4D14516E7F0E3C
:10366A004E14526E4F50501051105210D8A440EFC1
:10367A001BF042EF1BF04AEF1BF0000E4B6E000EE0
:10368A004C6E000E4D6E000E4E6E4AAE4FEF1BF0A2
:10369A0051EF1BF05AEF1BF0476C481ED8B0482A6E
:1036AA00491ED8B0492A800E4A564EAE5FEF1BF02B
:1036BA0061EF1BF06AEF1BF04B6C4C1ED8B04C2A22
:1036CA004D1ED8B04D2A800E4E56000E471A000ED7
:1036DA00481A000E491A800E4A1A000E4B1A000E9A
:1036EA004C1A000E4D1A800E4E1A4B50475C4C5025
:1036FA0048584D5049584E504A58D8B087EF1BF099
:10370A0089EF1BF08CEF1BF0D8908DEF1BF0D8805F
:10371A00120004C10BF005C10CF006C10DF007C17F
:10372A000EF001C00BF002C00CF003C00DF004C093
:10373A000EF00BC005F00CC006F00DC007F00EC06D
:10374A0008F0180EAEEF1BF0D89008320732063296
:10375A000532E82EA9EF1BF00550096E0A6A0950D6
:10376A000A10D8A4BBEF1BF0BDEF1BF0DDEF1BF076
:10377A00D8900B34056E0C34066E0D34076E0E3479
:10378A00086E0550061007100810D8A4CFEF1BF0DA
:10379A00D1EF1BF0D7EF1BF0000E026E020E016E86
:1037AA000CEF1CF0000E026E030E016E0CEF1CF003
:1037BA0009280A10D8A4E4EF1BF0E6EF1BF008EF83
:1037CA001CF00BC005F00CC006F00DC007F00EC0CF
:1037DA0008F0090ED8900536063607360836E82E60
:1037EA00EFEF1BF00550061007100810D8B400EFD1
:1037FA001CF003EF1CF0010E04EF1CF0000E016E2A
:10380A00026A0CEF1CF0000E026E040E016E12002A
:10381A0001C008F002C009F003C00AF004C00BF0AE
:10382A000506D8A00606052806E10628D8A420EF32
:10383A001CF022EF1CF02FEF1CF0000E026E000E9F
:10384A00016E77EF1CF0084A092A0A4A0B2A050674
:10385A00D8A0060608C0D9FF09C0DAFFDF50D8B4DD
:10386A0039EF1CF03BEF1CF066EF1CF00AC0F6FFC4
:10387A000BC0F7FF0800F5500009D8B447EF1CF059
:10388A0049EF1CF066EF1CF005500610D8B450EF53
:10389A001CF052EF1CF066EF1CF008C0D9FF09C0FB
:1038AA00DAFFDF50076E0AC0F6FF0BC0F7FF080009
:1038BA00F5500718D8B464EF1CF066EF1CF028EF37
:1038CA001CF008C0D9FF09C0DAFFDF50076E0AC032
:1038DA00F6FF0BC0F7FF0800F550075C016E026A9D
:1038EA00D8A00206120003500410D8B47FEF1CF0CF
:1038FA0081EF1CF08AEF1CF003500410D8A488EF63
:10390A001CF08AEF1CF08FEF1CF0015082EC21F0C2
:10391A00DCEF1CF020EE04F00350D9260450DA2222
:10392A00DE50DE10D8B49CEF1CF09EEF1CF0B9EF0D
:10393A001CF020EE04F00350D9260450DA2210EECF
:10394A0002F00350E1260450E222DE50E65CE65023
:10395A00800A096EDE50800A0958D8B0B7EF1CF009
:10396A00B9EF1CF0DCEF1CF020EE02F00350D92670
:10397A000450DA22DECF05F0DDCF06F003C0D9FF0E
:10398A0004C0DAFFDECF07F0DDCF08F005500724C8
:10399A00D96E06500820DA6E01C0DFFF20EE02F071
:1039AA000350D9260450DA22DE2A000EDD22120044
:1039BA000001FBA1E3EF1CF0E5EF1CF0EFEF1CF0B8
:1039CA0013C00AF014C00BF011C00CF012C00DF0B5
:1039DA0020EC20F016BEF4EF1CF0F6EF1CF0FCEF22
:1039EA001CF015C01AF016C01BF000EF1DF0000EF7
:1039FA001B6E000E1A6E000E196E000E186E12EF74
:103A0A001DF0000E026E200E016E11C003F012C0EE
:103A1A0004F078EC1CF0184A192A1A50185C19504C
:103A2A00800A176E1B50800A1758D8A01FEF1DF086
:103A3A0021EF1DF006EF1DF00001FBB127EF1DF08D
:103A4A0029EF1DF033EF1DF013C00AF014C00BF07C
:103A5A0011C00CF012C00DF020EC20F013C001F0E0
:103A6A0014C002F0F4EC20F01A500124116E1B501D
:103A7A000220126E1200000E066E04BE49EF1DF0FF
:103A8A0047EF1DF04FEF1DF0036C041ED8B0042A57
:103A9A00010E066E02BE56EF1DF054EF1DF05CEFEC
:103AAA001DF0016C021ED8B0022A010E061A000E81
:103ABA00086E000E076E03500410D8B467EF1DF0AD
:103ACA0069EF1DF091EF1DF0010E056E71EF1DF00B
:103ADA00D89003360436052A04AE76EF1DF078EF47
:103AEA001DF06DEF1DF0D890073608360350015CC3
:103AFA0004500258D8A084EF1DF086EF1DF08BEF1A
:103B0A001DF00350015E0450025A0780D890043217
:103B1A000332052E78EF1DF00650D8B497EF1DF04A
:103B2A0099EF1DF09DEF1DF0076C081ED8B0082A0A
:103B3A0007C001F008C002F01200000E066E02BEB5
:103B4A00ABEF1DF0A9EF1DF0B1EF1DF0016C021EE5
:103B5A00D8B0022A010E066E04BEB8EF1DF0B6EF09
:103B6A001DF0BCEF1DF0036C041ED8B0042A0350EC
:103B7A000410D8B4C3EF1DF0C5EF1DF0E9EF1DF036
:103B8A00010E056ECDEF1DF0D89003360436052AD6
:103B9A0004AED2EF1DF0D4EF1DF0C9EF1DF00350B3
:103BAA00015C04500258D8A0DDEF1DF0DFEF1DF0D4
:103BBA00E3EF1DF00350015E0450025AD89004321C
:103BCA000332052ED4EF1DF00650D8B4EFEF1DF0E6
:103BDA00F1EF1DF0F5EF1DF0016C021ED8B0022ABC
:103BEA0001C001F002C002F01200000E0114096EB9
:103BFA00000E02140A6E800E03140B6E7F0E04145C
:103C0A000C6E09500A100B100C10D8A40FEF1EF0FE
:103C1A0011EF1EF019EF1EF0000E016E000E026E7B
:103C2A00000E036E000E046E000E0514096E000EDF
:103C3A0006140A6E800E07140B6E7F0E08140C6EA3
:103C4A0009500A100B100C10D8A42EEF1EF030EFFA
:103C5A001EF038EF1EF0000E056E000E066E000E06
:103C6A00076E000E086E055001180FE10650021883
:103C7A000CE10750031809E108500418D8B448EFBA
:103C8A001EF04AEF1EF04DEF1EF0D8904EEF1EF0D8
:103C9A00D8801200C6C0CAF0C7C0CBF0000E01011E
:103CAA00096F000E086F71EF1EF0C4C0A4F0C5C002
:103CBA00A5F0CA0E0001A66F000EA76FC8C0A8F033
:103CCA00C9C0A9F0F5EC09F00001A45101010827C7
:103CDA000001A55101010923CAC0F6FFCBC0F7FFB5
:103CEA000800F5500009D8A47DEF1EF07FEF1EF002
:103CFA005AEF1EF008C1C4F009C1C5F01200BF0E88
:103D0A00096EFF0E0A6E07C00BF008C00CF00950CE
:103D1A000B260A500C220C500AE11A0E0B5CD8A092
:103D2A0099EF1EF09CEF1EF0010E9DEF1EF0000EA3
:103D3A000D6E0E6A0D500E10D8B4A6EF1EF0A8EF45
:103D4A001EF0AFEF1EF0200E0710076E0850086E27
:103D5A00B3EF1EF007C007F008C008F01200CAEF60
:103D6A001EF003C0F6FF04C0F7FFF86A070EF764F7
:103D7A0003D00800F55005D0F6CFE1FFF7CFE2FFF8
:103D8A00E75028EC21F0034A042A03C0F6FF04C0D6
:103D9A00F7FFF86A070EF76403D00800F55005D05C
:103DAA00F6CFE1FFF7CFE2FFE7500009D8A4E0EF32
:103DBA001EF0E2EF1EF0B6EF1EF0120003C007F08D
:103DCA0004C008F001C009F002C00AF00750056EED
:103DDA000850066E074A082A05C0F6FF06C0F7FF14
:103DEA00F86A09C0D9FF0AC0DAFF094A0A2A070E87
:103DFA00F76403D00800F55005D0F6CFE1FFF7CFFE
:103E0A00E2FFE750DF6EDF50D8A40EEF1FF010EF8D
:103E1A001FF0EBEF1EF012001DEF1FF00550800F90
:103E2A000D6E33EF1FF00550C00F0D6E33EF1FF00C
:103E3A0007C00BF008C00CF00C50000AD8B428EFE9
:103E4A001FF013EF1FF00B50010AD8B413EF1FF045
:103E5A00030AD8B418EF1FF013EF1FF00D500FEC40
:103E6A0021F009C003F00AC004F0B4EC1EF01200FD
:103E7A00D00E0001D66F000ED76FCCC0D8F0CDC0DF
:103E8A00D9F0000EDB6F000EDA6F000EDD6F000E48
:103E9A00DC6FD80EC46F000EC56FCEC0C6F0CFC09F
:103EAA00C7F0D60EC86F000EC96F4FEC1EF00001A6
:103EBA00DA51CC25D96EDB51CD21DA6E000EDF6ED8
:103ECA001200010E076E200E01180210D8B470EF0E
:103EDA001FF072EF1FF08BEF1FF0F70E036EFF0E4D
:103EEA00046E01C005F002C006F003500526045016
:103EFA000622065009E1050E055CD8A087EF1FF0DF
:103F0A0089EF1FF08BEF1FF0000E076E07C001F05C
:103F1A00026A12009BEF1FF00350800F096EB1EF87
:103F2A001FF00350C00F096EB1EF1FF005C007F074
:103F3A0006C008F00850000AD8B4A6EF1FF091EFA7
:103F4A001FF00750010AD8B491EF1FF0030AD8B442
:103F5A0096EF1FF091EF1FF009500FEC21F01200BD
:103F6A00056E0550080DF350400F0FEC21F0000EBE
:103F7A00076E000E066E06500324D96E0750042001
:103F8A00DA6EDF5028EC21F0064A072A07BED7EF7F
:103F9A001FF0075009E1080E065CD8A0D7EF1FF002
:103FAA00D9EF1FF0C0EF1FF01200F40EF66E420EAA
:103FBA00F76E000EF86E01EE5AF010EE08F00900E6
:103FCA00F5CFEEFFE550E150FAE101EE00F05A0EAE
:103FDA00EE6AE806FDE100EEF7F0080EEE6AE80682
:103FEA00FDE15F905F92000EF86E000151EF13F051
:103FFA00000E5B1A000E5C1A000E5D1A800E5E1A25
:10400A0057C047F058C048F059C049F05AC04AF062
:10401A005BC04BF05CC04CF05DC04DF05EC04EF032
:10402A000FEC0DF047C057F048C058F049C059F09E
:10403A004AC05AF01200000E106E000E0F6E31EFD9
:10404A0020F00EC001F0026A0CC003F00DC004F0AB
:10405A0078EC1CF00F4A102A0F500A24D96E10501F
:10406A000B20DA6EDF500E6E0E50D8A43FEF20F010
:10407A0041EF20F026EF20F012000600F2A248EFEE
:10408A0020F04AEF20F062EF20F00001FEBF59EF66
:10409A0020F0FE5107E1020EFD5DD8B057EF20F087
:1040AA0059EF20F05DEF20F0FD4BFE2B61EF20F081
:1040BA00000EFE6F000EFD6FF2925F92110014BEA9
:1040CA0071EF20F0145006E11304D8B06FEF20F01E
:1040DA0071EF20F07FEF20F013C015F014C016F036
:1040EA00151E161E154A162A15C013F016C014F00E
:1040FA0083EF20F013C013F014C014F01200BF0EA7
:10410A00036EFF0E046E01C005F002C006F00350F4
:10411A0005260450062206500AE11A0E055CD8A0AC
:10412A0099EF20F09CEF20F0010E9DEF20F0000E99
:10413A00016E026A12000150021003100410D8B472
:10414A00A9EF20F0ABEF20F0B3EF20F0000E011A38
:10415A00000E021A000E031A800E041A01C001F0A2
:10416A0002C002F003C003F004C004F01200D00E33
:10417A00036EFF0E046E01C005F002C006F0035084
:10418A0005260450062206500AE10A0E055CD8A04C
:10419A00D1EF20F0D4EF20F0010ED5EF20F0000E81
:1041AA00016E026A1200969096920F0E946E8D908E
:1041BA008D92000E8B6E820E036EDE0EE82EFED7F7
:1041CA00032EFCD7020E0FEC21F0280E0FEC21F083
:1041DA000C0E0FEC21F0060E0FEC21F0120001C0BC
:1041EA0003F002C004F0FCEF20F0014A022A01C0E9
:1041FA00D9FF02C0DAFFDF50D8A406EF21F008EF9A
:10420A0021F0FAEF20F00350015C016E04500258CD
:10421A00026E1200026E8D900250F00B8B6E5FECF4
:10422A0021F002C001F00F0E01160138F00B8B6E5F
:10423A005FEC21F0060E016E300EE82EFED7012E3D
:10424A00FCD700D01200026E8D800250F00B8B6EEC
:10425A005FEC21F002C001F00F0E01160138F00BDD
:10426A008B6E5FEC21F0210EE82EFED700F01200D3
:10427A0001500302F3CF05F0F4CF06F00150040217
:10428A00F350062602500302F350062605C001F039
:10429A0006C002F012000E0EC16EC280C050C70BDB
:1042AA002009C06EC050F80B0109C06EC08EC30E43
:1042BA00C21612008D82030EE82EFED700F08D92F0
:1042CA00030EE82EFED700F01200700ED312000E75
:1042DA00926E030E936E000E806E000E816E1200B7
:1042EA00F28EF18CF292F288120006090906000099
:0C42FA000000010E0FEC21F01200120079
:020000040020DA
:08000000FFFFFFFFFFFFFFFF00
:020000040030CA
:0E00000000081F1FFF8385FF0FC00FE00F4099
:00000001FF
