:020000040000FA
:04000000E2EF3EF0FD
:107DC40000013DEF3FF0000E066E02BEEEEF3EF006
:107DD400ECEF3EF0F4EF3EF0016C021ED8B0022A44
:107DE400010E066E04BEFBEF3EF0F9EF3EF0FFEF2E
:107DF4003EF0036C041ED8B0042A03500410D8B417
:107E040006EF3FF008EF3FF02CEF3FF0010E056E58
:107E140010EF3FF0D89003360436052A04AE15EF70
:107E24003FF017EF3FF00CEF3FF00350015C0450BC
:107E34000258D8A020EF3FF022EF3FF026EF3FF0AA
:107E44000350015E0450025AD89004320332052EC6
:107E540017EF3FF00650D8B432EF3FF034EF3FF065
:107E640038EF3FF0016C021ED8B0022A01C001F0C5
:107E740002C002F01200700ED3120E0EC16E928078
:107E8400000E936E000E956E96908090000E816E9B
:107E94008490000E836EC280C050C70B2009C06E50
:107EA400C050F80B0109C06EC09EC30EC216C28238
:107EB400C450320DF3CF01F0F4CF02F0000E046E83
:107EC40003689EEC3FF001C00BF002C00CF0C4CF7D
:107ED40083FF0BC001F00CC002F0000E046E0A0E0A
:107EE400036EE5EC3EF001C009F002C00AF00BC0DD
:107EF40001F00CC002F0000E046E0A0E036E9EEC3C
:107F04003FF00150100DF3500924816E0CBE94EF24
:107F14003FF00C5009E11A0E0B5CD8A094EF3FF02F
:107F240096EF3FF099EF3FF0848057EF3FF0849055
:107F340057EF3FF000EF00F0000E066E04BEA7EF0F
:107F44003FF0A5EF3FF0ADEF3FF0036C041ED8B057
:107F5400042A010E066E02BEB4EF3FF0B2EF3FF00A
:107F6400BAEF3FF0016C021ED8B0022A010E061AC5
:107F7400000E086E000E076E03500410D8B4C5EF4F
:107F84003FF0C7EF3FF0EFEF3FF0010E056ECFEF8C
:107F94003FF0D89003360436052A04AED4EF3FF000
:107FA400D6EF3FF0CBEF3FF0D890073608360350BA
:107FB400015C04500258D8A0E2EF3FF0E4EF3FF038
:107FC400E9EF3FF00350015E0450025A0780D89055
:107FD40004320332052ED6EF3FF00650D8B4F5EF45
:107FE4003FF0F7EF3FF0FBEF3FF0076C081ED8B00F
:0C7FF400082A07C001F008C002F01200CB
:020000040020DA
:08000000FFFFFFFFFFFFFFFF00
:020000040030CA
:0E00000000081F1FFF8385FF0FC00FE00F4099
:00000001FF
