:020000040000FA
:0400000007EF00F016
:10000800128209ED00F0A3EF01F00600F2A40FEF51
:1000180000F011EF00F038EF00F0104A112AF294C6
:100028003C0ED76EB00ED66E0A0E10181110D8A45A
:1000380020EF00F022EF00F029EF00F08294000E8C
:10004800116E000E106E0E4A0F2A3C0E0E180F107D
:10005800D8A431EF00F033EF00F038EF00F08284DD
:10006800000E0F6E000E0E6E640ECE18D8A43FEF71
:1000780000F041EF00F043EF00F0000ECE6EF2A268
:1000880048EF00F04AEF00F05CEF00F0D5AE4FEF1C
:1000980000F053EF00F0016A012A54EF00F0016A02
:1000A80001320132D55001187F0B0118D56EF2923A
:1000B800F0A061EF00F063EF00F06FEF00F0D59E65
:1000C800000E0F6E000E0E6E000E116E000E106EFA
:1000D800000ECE6EF09012921100000E076E05BE53
:1000E8007AEF00F078EF00F080EF00F0046C051E66
:1000F800D8B0052A010E076E03BE87EF00F085EF22
:1001080000F08DEF00F0026C031ED8B0032A010E38
:10011800071A000E096E000E086E04500510D8B4B8
:1001280098EF00F09AEF00F0C2EF00F0010E066EB3
:10013800A2EF00F0D89004360536062A05AEA7EFE0
:1001480000F0A9EF00F09EEF00F0D89008360936CD
:100158000450025C05500358D8A0B5EF00F0B7EF83
:1001680000F0BCEF00F00450025E0550035A08800E
:10017800D89005320432062EA9EF00F00750D8B403
:10018800C8EF00F0CAEF00F0CEEF00F0086C091ECF
:10019800D8B0092A08C002F009C003F01200000E06
:1001A800076E03BEDCEF00F0DAEF00F0E2EF00F0DC
:1001B800026C031ED8B0032A010E076E05BEE9EFD4
:1001C80000F0E7EF00F0EDEF00F0046C051ED8B08A
:1001D800052A04500510D8B4F4EF00F0F6EF00F04B
:1001E8001AEF01F0010E066EFEEF00F0D89004360B
:1001F8000536062A05AE03EF01F005EF01F0FAEF28
:1002080000F00450025C05500358D8A00EEF01F02E
:1002180010EF01F014EF01F00450025E0550035A8C
:10022800D89005320432062E05EF01F00750D8B4F5
:1002380020EF01F022EF01F026EF01F0026C031E1F
:10024800D8B0032A02C002F003C003F0120084EC05
:1002580001F095EC01F0AEEC01F06EEC01F0CECFC0
:1002680002F0036A000E056E0A0E046ED3EC00F06D
:100278000250806ECECF02F0036A000E056E0A0EA1
:10028800046E71EC00F00238F00B816E1038F00B40
:10029800826E0EC002F00FC003F0000E056E0A0E4B
:1002A800046ED3EC00F002C00AF003C00BF00EC0DD
:1002B80002F00FC003F0000E056E0A0E046E71EC1A
:1002C80000F00250100DF3500A24836E33EF01F052
:1002D80007EF00F0700ED3120F0EC16E000E926E73
:1002E800030E936E010E946E000E956E000E806ED6
:1002F800000E816E000E826E8284000E836E1200E4
:10030800F29ED59AD596D550F80B0109D56ED59C95
:100318003C0ED76EB00ED66ED59EF294F28AF28E4F
:100328001200F28C9E909D80CD9ECD9CCF0ECD1656
:10033800CD96CD94CD82CD80000ECE6E1200116A7E
:10034800106A0F6A0E6A0D6A0C6A12901292000106
:100358002BEF01F0F18CF18AF292F288F090F0869E
:02036800120081
:020000040020DA
:08000000FFFFFFFFFFFFFFFF00
:020000040030CA
:0E00000000081F1FFF8385FF0FC00FE00F4099
:00000001FF
