:020000040000FA
:0400000016EF39F0CE
:10722C000001EBEF3AF001500302F3CF05F0F4CF7D
:10723C0006F001500402F350062602500302F350EC
:10724C00062605C001F006C002F01200000E0C6EFE
:10725C000ABE35EF39F033EF39F03BEF39F0096CFA
:10726C000A1ED8B00A2A010E0C6E08BE42EF39F085
:10727C0040EF39F048EF39F0076C081ED8B0082AF7
:10728C00010E0C1A000E0E6E000E0D6E09500A1037
:10729C00D8B453EF39F055EF39F07DEF39F0010EDA
:1072AC000B6E5DEF39F0D89009360A360B2A0AAE10
:1072BC0062EF39F064EF39F059EF39F0D8900D36B0
:1072CC000E360950075C0A500858D8A070EF39F0F8
:1072DC0072EF39F077EF39F00950075E0A50085A0F
:1072EC000D80D8900A3209320B2E64EF39F00C5015
:1072FC00D8B483EF39F085EF39F089EF39F00D6CA4
:10730C000E1ED8B00E2A0DC007F00EC008F01200E9
:10731C0049344A34506E5050D8A497EF39F099EF55
:10732C0039F0A3EF39F0000E476E000E486E000ED8
:10733C00496E000E4A6E10EF3AF047C04BF048C051
:10734C004CF049C04DF04AC04EF0200EB3EF39F06E
:10735C00D8904E324D324C324B32E82EAEEF39F0E3
:10736C004B504F6E498EFF0E4716FF0E4816FF0E00
:10737C004916000E4A16960E505E50BECAEF39F0F2
:10738C00C8EF39F0E0EF39F05050800A970FD8B0C1
:10739C00D2EF39F0D4EF39F0D6EF39F099EF39F06C
:1073AC00D8904A32493248324732503ED6EF39F003
:1073BC00F8EF39F01F0E5064E6EF39F0E8EF39F0D2
:1073CC00F0EF39F099EF39F0D89047364836493616
:1073DC004A3650065050D8A4F6EF39F0F8EF39F091
:1073EC00EAEF39F04F50D8B4FEEF39F000EF3AF035
:1073FC0008EF3AF04A1E491E481E476C000E482200
:10740C0049224A2247C047F048C048F049C049F0D9
:10741C004AC04AF012000F6E0F50D8B418EF3AF071
:10742C001AEF3AF03CEF3AF00ABE21EF3AF01FEFB8
:10743C003AF03CEF3AF007C00BF008C00CF009C072
:10744C000DF00AC00EF00B1E0C1E0D1E0E1E0B2A8C
:10745C00000E0C220D220E220BC011F00CC012F0EB
:10746C000DC013F00EC014F044EF3AF007C011F049
:10747C0008C012F009C013F00AC014F0075008102D
:10748C0009100A10D8A44DEF3AF04FEF3AF059EF2B
:10749C003AF0000E076E000E086E000E096E000E1C
:1074AC000A6EEAEF3AF0960E106E63EF3AF0102A7D
:1074BC00D8901432133212321132000E11140B6E9A
:1074CC00000E12140C6E000E13140D6EFE0E14141E
:1074DC000E6E0B500C100D100E10D8A478EF3AF065
:1074EC007AEF3AF05DEF3AF088EF3AF0102A010E9D
:1074FC001126000E122213221422D89014321332A9
:10750C0012321132000E11140B6E000E12140C6E8E
:10751C00000E13140D6EFF0E14140E6E0B500C1087
:10752C000D100E10D8A49DEF3AF09FEF3AF07CEFBF
:10753C003AF0A7EF3AF01006D890113612361336FF
:10754C00143613BEACEF3AF0AEEF3AF0B6EF3AF0B9
:10755C00020E1060B4EF3AF0B6EF3AF0A1EF3AF049
:10756C0010B0BBEF3AF0BDEF3AF0BEEF3AF0139E1D
:10757C00D890103210C00BF00C6A0D6A0E6A0BC05A
:10758C000EF00D6A0C6A0B6A0B5011120C50121291
:10759C000D5013120E5014120F50D8B4D8EF3AF0FD
:1075AC00DAEF3AF0E2EF3AF00ABEE1EF3AF0DFEF51
:1075BC003AF0E2EF3AF0148E11C007F012C008F066
:1075CC0013C009F014C00AF01200700ED3120E0E84
:1075DC00C16E0F0E926E96909692000E806E8490F5
:1075EC008492C280C050C70B2009C06EC050F80BEB
:1075FC000109C06EC08EC282C30EC216C450526E38
:10760C00516AC3505124536E000E5220546E000E1A
:10761C00326E000E336EA00E346E400E356E000EC0
:10762C00196EC00E1A6E7F0E1B6E440E1C6E53C06C
:10763C0001F054C002F0000E046E640E036E19ECDF
:10764C0039F001C007F002C008F0000E08BEFF0EB2
:10765C00096E0A6E010E11EC3AF007C015F008C065
:10766C0016F009C017F00AC018F01EEC3CF015C05B
:10767C002EF016C02FF017C030F018C031F0EBEC24
:10768C003DF02EC047F02FC048F030C049F031C05B
:10769C004AF08EEC39F047C055F048C056F055C052
:1076AC0001F056C002F0000E046E090E036E19ECC8
:1076BC0039F001C007F002C008F0000E0A6E050E8A
:1076CC00096E2CEC39F0200E0724576E000E0820A2
:1076DC00586E58BE7BEF3BF0585009E1B10E575C29
:1076EC00D8A07BEF3BF07DEF3BF080EF3BF084804C
:1076FC0081EF3BF0849058BE8FEF3BF0585007E180
:10770C00B00E575CD8B08DEF3BF08FEF3BF0A7EF8E
:10771C003BF080B294EF3BF096EF3BF0A7EF3BF0E1
:10772C0080A49BEF3BF09DEF3BF0A7EF3BF080B6C6
:10773C00A2EF3BF0A4EF3BF0A7EF3BF0848201EF0C
:10774C003BF058BEB5EF3BF0585007E1B00E575C1C
:10775C00D8B0B3EF3BF0B5EF3BF0CDEF3BF080A2F0
:10776C00BAEF3BF0BCEF3BF0CDEF3BF080B4C1EF98
:10777C003BF0C3EF3BF0CDEF3BF080A6C8EF3BF006
:10778C00CAEF3BF0CDEF3BF0848201EF3BF058BEEB
:10779C00D9EF3BF0585009E1B10E575CD8A0D9EFA6
:1077AC003BF0DBEF3BF0F3EF3BF080B2E0EF3BF074
:1077BC00E2EF3BF0F3EF3BF080B4E7EF3BF0E9EFA7
:1077CC003BF0F3EF3BF080A6EEEF3BF0F0EF3BF03D
:1077DC00F3EF3BF0848201EF3BF058BEFFEF3BF040
:1077EC00585009E1B10E575CD8A0FFEF3BF001EF08
:1077FC003CF019EF3CF080A206EF3CF008EF3CF0B7
:10780C0019EF3CF080A40DEF3CF00FEF3CF019EFBA
:10781C003CF080B614EF3CF016EF3CF019EF3CF066
:10782C00848201EF3BF0849201EF3BF000EF00F01B
:10783C001850800B256E185018242C6E17AE29EF9B
:10784C003CF02BEF3CF02CEF3CF02C802C50D8B4BF
:10785C0032EF3CF034EF3CF049EF3CF02C28D8A44C
:10786C003AEF3CF03CEF3CF044EF3CF0000E156E70
:10787C00000E166E000E176E000E186E178E000E90
:10788C00186E51EF3CF0000E156E000E166E000EC9
:10789C00176E000E186E1C50800B251A1C501C24E1
:1078AC002D6E1BAE5CEF3CF05EEF3CF05FEF3CF0FE
:1078BC002D802D50D8B465EF3CF067EF3CF07CEF99
:1078CC003CF02D28D8A46DEF3CF06FEF3CF077EF37
:1078DC003CF0000E196E000E1A6E000E1B6E000EA0
:1078EC001C6E1B8E000E1C6E84EF3CF0000E196E8D
:1078FC00000E1A6E000E1B6E000E1C6E19501A1024
:10790C001B101C10D8A48DEF3CF08FEF3CF0A7EFB0
:10791C003CF0000E156E000E166E000E176E000E6B
:10792C00186E800E17127F0E18122550181215C0E3
:10793C0015F016C016F017C017F018C018F0EAEFC3
:10794C003DF02C50D8A4ADEF3CF0AFEF3CF0B9EFCC
:10795C003CF0000E156E000E166E000E176E000E2B
:10796C00186EEAEF3DF02D502CC01DF01E6A1D5E06
:10797C00000E1E5A7F0E1D24266E000E1E20276E32
:10798C0015C021F016C022F017C023F018C024F047
:10799C00000E156E000E166E000E176E000E186E91
:1079AC00000E286E000E296E000E2A6E000E2B6E35
:1079BC00000E2D6E1AEF3DF02D50D8B4E8EF3CF0D0
:1079CC00EAEF3CF001EF3DF0D89021362236233619
:1079DC002436D89015361636173618362BAEF9EFE6
:1079EC003CF0FBEF3CF0FCEF3CF01580D8902836D7
:1079FC0029362A362B361950215C1A5022581B5026
:107A0C0023581C502458D8A00EEF3DF010EF3DF039
:107A1C0019EF3DF02B8C1950215E1A50225A1B5035
:107A2C00235A1C50245A2D2A190E2D6420EF3DF098
:107A3C0022EF3DF0E2EF3CF02150221023102410F5
:107A4C00D8B42BEF3DF02DEF3DF045EF3DF0288005
:107A5C0045EF3DF0D89015361636173618362BAE46
:107A6C003AEF3DF03CEF3DF03DEF3DF01580D89006
:107A7C00283629362A362B362606D8A0270617AEE6
:107A8C004AEF3DF04CEF3DF030EF3DF0000E2D6E27
:107A9C002BAE53EF3DF055EF3DF079EF3DF0FF0E7F
:107AAC0028141D6EFF0E29141E6EFF0E2A141F6E55
:107ABC007F0E2B14206E1D501E101F102010D8B4DA
:107ACC006AEF3DF06CEF3DF070EF3DF0010E2D6E66
:107ADC0079EF3DF015A075EF3DF077EF3DF079EFC4
:107AEC003DF06CEF3DF02D50D8B47FEF3DF081EFC1
:107AFC003DF0A5EF3DF0010E1526000E16221722C3
:107B0C00182218A08CEF3DF08EEF3DF0A5EF3DF064
:107B1C0015C01DF016C01EF017C01FF018C020F0C5
:107B2C00203420321F321E321D321DC015F01EC0F3
:107B3C0016F01FC017F020C018F0264A272A27BEBF
:107B4C00B0EF3DF0275008E12628D8A0B0EF3DF06B
:107B5C00B2EF3DF0BDEF3DF0000E276E2668000E33
:107B6C00156E000E166E000E176E000E186E27BEE8
:107B7C00CAEF3DF0275006E12604D8B0C8EF3DF01F
:107B8C00CAEF3DF0D8EF3DF0000E276E000E266ECA
:107B9C00000E156E000E166E000E176E000E186E8F
:107BAC00000E256E26C02CF02CA0DFEF3DF0E1EF8F
:107BBC003DF0E4EF3DF0178EE5EF3DF0179ED890C9
:107BCC002C30186E9BEF3CF012003150800B3A6E4B
:107BDC0031503124406E30AEF6EF3DF0F8EF3DF011
:107BEC00F9EF3DF040804050D8B4FFEF3DF001EF8D
:107BFC003EF014EF3EF04028D8A407EF3EF009EF1A
:107C0C003EF011EF3EF0000E2E6E000E2F6E000EA9
:107C1C00306E000E316E308E1CEF3EF0000E2E6E6C
:107C2C00000E2F6E000E306E000E316E3550800B34
:107C3C003A1A355035243F6E34AE27EF3EF029EF1B
:107C4C003EF02AEF3EF03F803F50D8B430EF3EF08C
:107C5C0032EF3EF045EF3EF03F28D8A438EF3EF02F
:107C6C003AEF3EF042EF3EF0000E326E000E336EF5
:107C7C00000E346E000E356E348E4DEF3EF0000E5D
:107C8C00326E000E336E000E346E000E356E3F50A9
:107C9C00D8B453EF3EF055EF3EF05DEF3EF0405060
:107CAC00D8A45BEF3EF05DEF3EF067EF3EF0000EC8
:107CBC002E6E000E2F6E000E306E000E316EFFEF2A
:107CCC003FF034502E02F3CF45F0F4CF46F0455040
:107CDC003B6E3C6A3D6A3E6A4650416E426A436A5C
:107CEC00446A33502F02F3CF45F0F4CF46F04550A1
:107CFC003B26000E3C223D223E2246504126000EE1
:107D0C0042224322442232503002F3CF45F0F4CFCA
:107D1C0046F045503B26000E3C223D223E2246506A
:107D2C004126000E4222432244223DC03EF03CC07C
:107D3C003DF03BC03CF03B6A32502F02F3CF45F094
:107D4C00F4CF46F045503B2646503C22000E3D22D7
:107D5C00000E3E2233502E02F3CF45F0F4CF46F006
:107D6C0045503B2646503C22000E3D22000E3E2242
:107D7C003DC03EF03CC03DF03BC03CF03B6A325055
:107D8C002E02F3CF45F0F4CF46F045503B2646503B
:107D9C003C22000E3D22000E3E2234502F02F3CF27
:107DAC0045F0F4CF46F04550412646504222000E95
:107DBC004322000E442233503002F3CF45F0F4CF6F
:107DCC0046F04550412646504222000E4322000EFA
:107DDC00442234503002F3CF45F0F4CF46F04550F6
:107DEC00366E4650376E386A396A38C039F037C04B
:107DFC0038F036C037F0366A3650412637504222BA
:107E0C0038504322395044223BC036F03CC037F046
:107E1C003DC038F03EC039F0190E1AEF3FF0D89043
:107E2C003932383237323632E82E15EF3FF03650D1
:107E3C0041263750422238504322395044223DC00B
:107E4C003EF03CC03DF03BC03CF03B6A3F5040C074
:107E5C0036F0376A3626000E3722820E3624456EEF
:107E6C00FF0E3720466E50EF3FF0D8904136423629
:107E7C00433644363EAE45EF3FF047EF3FF048EF18
:107E8C003FF04180D8903B363C363D363E36450679
:107E9C00D8A0460643AE55EF3FF057EF3FF03BEF0F
:107EAC003FF0000E3F6E3EAE5EEF3FF060EF3FF0F6
:107EBC0084EF3FF0FF0E3B14366EFF0E3C14376E12
:107ECC00FF0E3D14386E7F0E3E14396E365037104F
:107EDC0038103910D8B475EF3FF077EF3FF07BEFE7
:107EEC003FF0010E3F6E84EF3FF041A080EF3FF07A
:107EFC0082EF3FF084EF3FF077EF3FF03F50D8B484
:107F0C008AEF3FF08CEF3FF0B0EF3FF0010E4126CF
:107F1C00000E42224322442244A097EF3FF099EFF7
:107F2C003FF0B0EF3FF041C036F042C037F043C0F5
:107F3C0038F044C039F039343932383237323632CD
:107F4C0036C041F037C042F038C043F039C044F07D
:107F5C00454A462A46BEBBEF3FF0465008E145284D
:107F6C00D8A0BBEF3FF0BDEF3FF0C7EF3FF0000EE6
:107F7C00416E000E426E800E436E7F0E446EF5EF26
:107F8C003FF046BED4EF3FF0465006E14504D8B072
:107F9C00D2EF3FF0D4EF3FF0E0EF3FF0000E416E38
:107FAC00000E426E000E436E000E446E000E3A6ED2
:107FBC00F5EF3FF045C040F0FF0E4116FF0E4216A4
:107FCC007F0E4316000E441640A0EFEF3FF0F1EF8A
:107FDC003FF0F2EF3FF0438ED8904030446E3A5071
:107FEC00441241C02EF042C02FF043C030F044C0C8
:047FFC0031F012004E
:020000040020DA
:08000000FFFFFFFFFFFFFFFF00
:020000040030CA
:0E00000000081F1FFF8385FF0FC00FE00F4099
:00000001FF
