:020000040000FA
:0400000079EF27F07D
:100800000000000000DCCFD1350000000000C01562
:100810003F6042A20D70A5EC363BAAB83F4F387638
:100820003F3CAA38338CBEBF350072313F1872315D
:100830003F4CBB31330EEADDB555B38A38610B3618
:10084000BBABAA2A3E42F1533E55326C3E05A38B08
:100850003EABAAAA3EB76DDB3E9A99193F6042A211
:100860000DCAF249710000804B0000803F0000C0BB
:0F0870003F00AAB83FC623F6B80040763F00000D
:1008800088C0B8F189C0B9F18AC0BAF18BC0BBF198
:10089000B8C160F1B9C161F1BAC162F1BBC163F124
:1008A0008CC0B8F18DC0B9F18EC0BAF18FC0BBF168
:1008B000B8C184F1B9C185F1BAC186F1BBC187F174
:1008C000FF0E01016015A86FFF0E6115A96FFF0EE5
:1008D0006215AA6F7F0E6315AB6FFF0E8415986FBC
:1008E000FF0E8515996FFF0E86159A6F7F0E87157F
:1008F0009B6F985199119A119B11D8A482EF04F023
:1009000084EF04F08FEF04F0000E0001886F000EFA
:10091000896F800E8A6F3F0E8B6F46EF19F0800E45
:10092000621909E13F0E631960116111D8A49BEFB0
:1009300004F09DEF04F0A8EF04F0000E0001886FB2
:10094000000E896F800E8A6F3F0E8B6F46EF19F095
:10095000ABBFB9EF04F0A805000EA959800EAA5943
:100960007F0EAB59D8B0B7EF04F0B9EF04F0CAEF7F
:1009700004F09BBFC8EF04F09805000E9959800E53
:100980009A597F0E9B59D8A0C8EF04F0CAEF04F023
:10099000E6EF04F088C00FF089C010F08AC011F0B3
:1009A0008BC012F08CC013F08DC014F08EC015F007
:1009B0008FC016F0A7EC1BF00FC088F010C089F0B4
:1009C00011C08AF012C08BF046EF19F0000E506F84
:1009D000000E516F000E526F000E536F63BFF5EFA4
:1009E00004F0F3EF04F0C1EF05F09BBF01EF05F059
:1009F000800E9A5D4B0E9B59D8A001EF05F003EFD6
:100A000005F00DEF05F0020E506F000E516F000E55
:100A1000526F000E536FC1EF05F09BBF19EF05F049
:100A2000800E9A5D3F0E9B59D8A019EF05F01BEF81
:100A300005F0C1EF05F0170E0001906F98C191F01D
:100A400099C192F09AC193F09BC194F090672BEFFB
:100A500005F033EF05F094359433933392339133AB
:100A6000902F26EF05F0810E000191250101A06F66
:100A7000FF0E000192210101A16FFF0E00019321E1
:100A80000101A26FFF0E000194210101A36FA0518B
:100A900017080001906F98C191F099C192F09AC126
:100AA00093F09BC194F0906758EF05F060EF05F06C
:100AB00094359433933392339133902F53EF05F061
:100AC00091C0ACF192C0ADF193C0AEF194C0AFF162
:100AD0000101A05117080001906FACC191F0ADC1A8
:100AE00092F0AEC193F0AFC194F0902B7DEF05F082
:100AF000D8909137923793379437902F78EF05F04D
:100B0000010198510001911913E10101995100016E
:100B100092190EE101019A510001931909E10101B5
:100B20009B5100019419D8A498EF05F09AEF05F0B5
:100B3000C1EF05F0010E0101AC150001906F000E30
:100B40000101AD150001916F000E0101AE1500010C
:100B5000926F000E0101AF150001936F90510208D2
:100B60000101506F000E000191550101516F000EFF
:100B7000000192550101526F000E000193550101D1
:100B8000536F800E01019A1909E17F0E9B1998118C
:100B90009911D8A4CEEF05F0D0EF05F03CEF06F0A8
:100BA000800EAA1909E13F0EAB19A811A911D8A40A
:100BB000DCEF05F0DEEF05F0E9EF05F0000E0001D7
:100BC000886F000E896F800E8A6F3F0E8B6F46EF25
:100BD00019F0ABBFF8EF05F0A805000EA959800E7B
:100BE000AA593F0EAB59D8A0F8EF05F0FAEF05F07F
:100BF00016EF06F087BF01EF06F0FFEF05F00CEFF0
:100C000006F0000E0001886F000E896F000E8A6FDB
:100C1000000E8B6F46EF19F08CC088F08DC089F004
:100C20008EC08AF08FC08BF046EF19F087BF1DEFA2
:100C300006F01BEF06F031EF06F08CC001F08DC01E
:100C400002F08EC003F08FC004F032EC27F001C038
:100C500088F002C089F003C08AF004C08BF046EF30
:100C600019F0000E0001886F000E896F000E8A6F68
:100C7000000E8B6F46EF19F0800E9A1909E13F0EB6
:100C80009B1998119911D8A448EF06F04AEF06F085
:100C900077EF06F087BF51EF06F04FEF06F06DEFEC
:100CA00006F0000E406E000E416E800E426E3F0E4A
:100CB000436E88C044F089C045F08AC046F08BC0BE
:100CC00047F048EC22F040C088F041C089F042C0B3
:100CD0008AF043C08BF046EF19F088C088F089C0D5
:100CE00089F08AC08AF08BC08BF046EF19F0400E75
:100CF0008719841185118611D8A481EF06F083EF3E
:100D000006F09FEF06F088C01FF089C020F08AC06F
:100D100021F08BC022F088C023F089C024F08AC063
:100D200025F08BC026F033EC20F01FC088F020C0E7
:100D300089F021C08AF022C08BF046EF19F03F0EF7
:100D40008719841185118611D8A4A9EF06F0ABEF9D
:100D500006F0C6EF06F063BFB0EF06F0B2EF06F0A4
:100D6000C6EF06F088C04CF089C04DF08AC04EF046
:100D70008BC04FF047EC19F04CC088F04DC089F0A3
:100D80004EC08AF04FC08BF046EF19F088C001F0DA
:100D900089C002F08AC003F08BC004F04EEC27F04B
:100DA00001C070F102C071F103C072F104C073F1AF
:100DB000800E0101AA190BE17F0EAB19A811A91130
:100DC000D8B4E5EF06F0E7EF06F000EF07F0A85122
:100DD000A911AA11AB11D8B4F0EF06F0F2EF06F0AA
:100DE00000EF07F0800EAA1909E13F0EAB19A81118
:100DF000A911D8A4FEEF06F000EF07F0CBEF07F043
:100E000070C1B4F171C1B5F172C1B6F173C1B7F17E
:100E100087BF0FEF07F00DEF07F029EF07F0000E87
:100E2000406E000E416E800E426E3F0E436EB4C1A6
:100E300044F0B5C145F0B6C146F0B7C147F048EC43
:100E400022F040C0B4F141C0B5F142C0B6F143C098
:100E5000B7F1010163BF31EF07F02FEF07F0C1EFEA
:100E600007F0000EA8250001906F000E0101A921D6
:100E70000001916F800E0101AA210001926FC00E46
:100E80000101AB210001936F01015051000190114C
:100E9000946F0101515100019111956F010152515F
:100EA00000019211966F0101535100019311976F48
:100EB0009451951196119711D8A461EF07F063EF43
:100EC00007F0A3EF07F0B4C13CF0B5C13DF0B6C1E7
:100ED0003EF0B7C13FF0B4C138F0B5C139F0B6C18A
:100EE0003AF0B7C13BF00FEC27F038C040F039C002
:100EF00041F03AC042F03BC043F0B4C13CF0B5C150
:100F00003DF0B6C13EF0B7C13FF0B4C138F0B5C155
:100F100039F0B6C13AF0B7C13BF00FEC27F038C05A
:100F200044F039C045F03AC046F03BC047F048ECC9
:100F300022F040C0B4F141C0B5F142C0B6F143C0A7
:100F4000B7F1C1EF07F001015005511152115311D2
:100F5000D8A4ADEF07F0AFEF07F0C1EF07F0B4C1D1
:100F600001F0B5C102F0B6C103F0B7C104F032EC34
:100F700027F001C0B4F102C0B5F103C0B6F104C05E
:100F8000B7F1B4C188F0B5C189F0B6C18AF0B7C174
:100F90008BF046EF19F0000E886F000E896F800EFF
:100FA0008A6F3F0E8B6F63BFDAEF07F0D8EF07F061
:100FB00038EF08F05051511152115311D8A4E3EFFA
:100FC00007F0E5EF07F025EF08F088C03CF089C096
:100FD0003DF08AC03EF08BC03FF088C038F089C039
:100FE00039F08AC03AF08BC03BF00FEC27F038C0E4
:100FF00040F039C041F03AC042F03BC043F088C0F5
:101000003CF089C03DF08AC03EF08BC03FF088C004
:1010100038F089C039F08AC03AF08BC03BF00FEC51
:1010200027F038C044F039C045F03AC046F03BC024
:1010300047F048EC22F040C088F041C089F042C03F
:101040008AF043C08BF046EF19F050055111521150
:101050005311D8A42EEF08F030EF08F038EF08F065
:10106000000E886F000E896F800E8A6FBF0E8B6F27
:101070009BBF47EF08F09805000E9959000E9A594A
:101080004D0E9B59D8A047EF08F049EF08F0CEEF7E
:101090000AF0ABBF5BEF08F0F80EA85DFF0EA95990
:1010A0007F0EAA593F0EAB59D8B059EF08F05BEF4D
:1010B00008F0CEEF08F087BF60EF08F062EF08F0AD
:1010C00098EF08F0600E236E420E246EA20E256E7D
:1010D0000D0E266E88C11FF089C120F08AC121F053
:1010E0008BC122F033EC20F01FC0A4F120C0A5F189
:1010F00021C0A6F122C0A7F1A4C11FF0A5C120F014
:10110000A6C121F0A7C122F0600E236E420E246E0C
:10111000A20E256E0D0E266E33EC20F01FC088F057
:1011200020C089F021C08AF022C08BF046EF19F070
:10113000CA0E236EF20E246E490E256E710E266EB7
:1011400088C11FF089C120F08AC121F08BC122F033
:1011500033EC20F01FC0A4F120C0A5F121C0A6F1FE
:1011600022C0A7F1A4C11FF0A5C120F0A6C121F0A3
:10117000A7C122F0CA0E236EF20E246E490E256E10
:10118000710E266E33EC20F01FC088F020C089F06D
:1011900021C08AF022C08BF046EF19F0ABBFDEEF22
:1011A00008F0080EA85D000EA959800EAA593F0E3E
:1011B000AB59D8A0DEEF08F0E0EF08F05BEF09F0E4
:1011C00087BFEFEF08F087518611851106E184058E
:1011D000D8B0EDEF08F0EFEF08F025EF09F0600E62
:1011E000236E420E246EA20E256E0D0E266E88C151
:1011F0001FF089C120F08AC121F08BC122F033ECAD
:1012000020F01FC0A4F120C0A5F121C0A6F122C08A
:10121000A7F1A4C11FF0A5C120F0A6C121F0A7C16C
:1012200022F0600E236E420E246EA20E256E0D0E6D
:10123000266E33EC20F01FC088F020C089F021C05A
:101240008AF022C08BF046EF19F0CA0E236EF20E20
:10125000246E490E256E710E266E88C11FF089C15D
:1012600020F08AC121F08BC122F033EC20F01FC0A6
:10127000A4F120C0A5F121C0A6F122C0A7F1A4C10C
:101280001FF0A5C120F0A6C121F0A7C122F0CA0E0F
:10129000236EF20E246E490E256E710E266E33EC0F
:1012A00020F01FC088F020C089F021C08AF022C041
:1012B0008BF046EF19F070C10FF071C110F072C1E0
:1012C00011F073C112F0000E136E000E146E800E3A
:1012D000156EBF0E166EA7EC1BF00FC0B0F110C05C
:1012E000B1F111C0B2F112C0B3F1000E236E000EC5
:1012F000246E800E256E3E0E266EB0C11FF0B1C169
:1013000020F0B2C121F0B3C122F033EC20F01FC0B5
:101310003CF020C03DF021C03EF022C03FF0AB0EBB
:10132000386EAA0E396EAA0E3A6E3E0E3B6E0FEC68
:1013300027F038C0A4F139C0A5F13AC0A6F13BC0EE
:10134000A7F1B0C123F0B1C124F0B2C125F0B3C1FF
:1013500026F0B0C11FF0B1C120F0B2C121F0B3C17D
:1013600022F033EC20F01FC054F120C055F121C011
:1013700056F122C057F1B0C123F0B1C124F0B2C17F
:1013800025F0B3C126F0A4C11FF0A5C120F0A6C16D
:1013900021F0A7C122F033EC20F01FC03CF020C0A8
:1013A0003DF021C03EF022C03FF0000E386E000E2E
:1013B000396E000E3A6E3F0E3B6E0FEC27F038C0D0
:1013C00048F139C049F13AC04AF13BC04BF154C130
:1013D0001FF055C120F056C121F057C122F048C17D
:1013E00023F049C124F04AC125F04BC126F033EC6B
:1013F00020F01FC044F120C045F121C046F122C0B9
:1014000047F1B0C11FF0B1C120F0B2C121F0B3C1AA
:1014100022F0000E236EAA0E246EB80E256E3F0E2B
:10142000266E33EC20F01FC074F120C075F121C08E
:1014300076F122C077F1700E236EA50E246EEC0EAD
:10144000256E360E266EB0C11FF0B1C120F0B2C1BC
:1014500021F0B3C122F033EC20F01FC038F020C0DF
:1014600039F021C03AF022C03BF03B0E236EAA0EA9
:10147000246EB80E256E3F0E266E44C11FF045C186
:1014800020F046C121F047C122F033EC20F01FC00C
:101490003CF020C03DF021C03EF022C03FF00FECF8
:1014A00027F038C078F139C079F13AC07AF13BC001
:1014B0007BF174C10FF075C110F076C111F077C1E6
:1014C00012F078C113F079C114F07AC115F07BC124
:1014D00016F0A7EC1BF00FC080F110C081F111C015
:1014E00082F112C083F180C1B8F181C1B9F182C12A
:1014F000BAF183C1BBF1B8C190F1B9C191F1BAC1E0
:1015000092F1BBC193F1000E01019015B86FF00E7E
:101510009115B96FFF0E9215BA6FFF0E9315BB6F41
:10152000B8C180F1B9C181F1BAC182F1BBC183F107
:1015300074C13CF075C13DF076C13EF077C13FF01B
:1015400080C138F081C139F082C13AF083C13BF0EB
:101550000FEC27F038C094F139C095F13AC096F1FC
:101560003BC097F178C138F079C139F07AC13AF0CF
:101570007BC13BF094C13CF095C13DF096C13EF07B
:1015800097C13FF00FEC27F038C01CF139C01DF1B6
:101590003AC01EF13BC01FF13CEF12F0000E7C6F11
:1015A000000E7D6F000E7E6F000E7F6FABBFE4EF0D
:1015B0000AF0AB5107E1800EAA5DD8B0E2EF0AF065
:1015C000E4EF0AF017EF0BF070C11FF071C120F0CB
:1015D00072C121F073C122F0000E236E000E246E42
:1015E000800E256E4B0E266E33EC20F01FC070F17E
:1015F00020C071F121C072F122C073F1E80E010127
:101600007C27FF0E7D23FF0E7E23FF0E7F2370C1FC
:10161000B8F171C1B9F172C1BAF173C1BBF1B8C10E
:10162000A8F1B9C1A9F1BAC1AAF1BBC1ABF1170EBA
:101630000001906FA8C191F0A9C192F0AAC193F0E6
:10164000ABC194F0906727EF0BF02FEF0BF09435C0
:101650009433933392339133902F22EF0BF0810E1A
:1016600000019125956FFF0E9221966FFF0E932139
:10167000976FFF0E9421986F955101017C2700010F
:10168000965101017D230001975101017E23000144
:10169000985101017F23FF0EA815AC6FFF0EA9150D
:1016A000AD6F7F0EAA15AE6F000EAB15AF6F000EBB
:1016B000AC11A86F000EAD11A96F800EAE11AA6F0C
:1016C0003F0EAF11AB6FAFBF75EF0BF0AF510BE13A
:1016D000720EAC5DC40EAD591C0EAE59D8B073EF8E
:1016E0000BF075EF0BF07FEF0BF0000EA06F000E0C
:1016F000A16F000EA26F000EA36FB1EF0BF0AFBF92
:1017000091EF0BF0AF510BE1D70EAC5DB30EAD59BD
:101710005D0EAE59D8B08FEF0BF091EF0BF09BEF51
:101720000BF0010EA06F000EA16F000EA26F000E55
:10173000A36FB1EF0BF0000EA06F000EA16F000EB3
:10174000A26F000EA36F010E7C27000E7D237E2367
:101750007F23000EA827000EA923800EAA23FF0EC8
:10176000AB23A8C1B8F1A9C1B9F1AAC1BAF1ABC103
:10177000BBF1B8C170F1B9C171F1BAC172F1BBC1AD
:1017800073F170C138F071C139F072C13AF073C1B0
:101790003BF0A0C190F0A1C191F00001D89090372A
:1017A0009137D89090379137690E9025F66E080ED4
:1017B0009121F76E0900F5CF3CF00900F5CF3DF01F
:1017C0000900F5CF3EF00A00F5CF3FF00FEC27F00F
:1017D00038C074F139C075F13AC076F13BC077F189
:1017E000000E406E000E416E800E426E3F0E436E44
:1017F00070C113F071C114F072C115F073C116F00D
:10180000A0C190F0A1C191F00001D890903791371C
:10181000D89090379137690E9025F66E080E912179
:10182000F76E0900F5CF0FF00900F5CF10F00900B1
:10183000F5CF11F00A00F5CF12F0A7EC1BF00FC0A6
:1018400044F010C045F011C046F012C047F048EC1B
:1018500022F040C078F141C079F142C07AF143C032
:101860007BF174C11FF075C120F076C121F077C102
:1018700022F078C123F079C124F07AC125F07BC130
:1018800026F033EC20F01FC05CF120C05DF121C0D8
:101890005EF122C05FF15CC16CF15DC16DF15EC1B2
:1018A0006EF15FC16FF16CC1B8F16DC1B9F16EC17C
:1018B000BAF16FC1BBF1B8C190F1B9C191F1BAC130
:1018C00092F1BBC193F1000E01019015B86FF00EBB
:1018D0009115B96FFF0E9215BA6FFF0E9315BB6F7E
:1018E000B8C16CF1B9C16DF1BAC16EF1BBC16FF194
:1018F000A8C190F0A9C191F0AAC192F0ABC193F038
:10190000000193359333923391339033000E901549
:10191000946FF00E9115956FFF0E9215966FFF0E56
:101920009315976F000E94110101906F000E000146
:1019300095110101916F000E000196110101926F46
:10194000200E000197110101936FA0C190F0A1C179
:1019500091F0A2C192F0A3C193F0150ED8900001AE
:101960009037913792379337E82EAEEF0CF00101A4
:10197000905100019025946F010191510001912136
:10198000956F0101925100019221966F01019351CF
:1019900000019321976F000E94250101B86F000E8E
:1019A000000195210101B96F400E0001962101014E
:1019B000BA6F000E000197210101BB6FB8C168F139
:1019C000B9C169F1BAC16AF1BBC16BF1A0C190F0B4
:1019D000A1C191F00001D89090379137D8909037FD
:1019E0009137690E9025F66E080E9121F76E090069
:1019F000F5CF3CF00900F5CF3DF00900F5CF3EF002
:101A00000A00F5CF3FF068C138F069C139F06AC10A
:101A10003AF06BC13BF00FEC27F038C094F139C0BD
:101A200095F13AC096F13BC097F170C138F071C1A1
:101A300039F072C13AF073C13BF094C13CF095C1EA
:101A40003DF096C13EF097C13FF00FEC27F038C053
:101A500034F139C035F13AC036F13BC037F168C1D5
:101A600023F069C124F06AC125F06BC126F06CC176
:101A70001FF06DC120F06EC121F06FC122F033EC78
:101A800020F01FC03CF020C03DF021C03EF022C03D
:101A90003FF074C138F075C139F076C13AF077C1C2
:101AA0003BF00FEC27F038C094F139C095F13AC003
:101AB00096F13BC097F134C123F035C124F036C113
:101AC00025F037C126F06CC11FF06DC120F06EC14A
:101AD00021F06FC122F033EC20F01FC03CF020C099
:101AE0003DF021C03EF022C03FF094C138F095C1D6
:101AF00039F096C13AF097C13BF00FEC27F038C0AF
:101B000054F139C055F13AC056F13BC057F154C1B8
:101B10001FF055C120F056C121F057C122F078C105
:101B200023F079C124F07AC125F07BC126F033EC93
:101B300020F01FC030F120C031F121C032F122C0AD
:101B400033F15CC11FF05DC120F05EC121F05FC1C7
:101B500022F05CC123F05DC124F05EC125F05FC1BD
:101B600026F033EC20F01FC08CF120C08DF121C095
:101B70008EF122C08FF1550E136E320E146E6C0E64
:101B8000156E3E0E166E420E236EF10E246E530E2F
:101B9000256E3E0E266E8CC11FF08DC120F08EC1C9
:101BA00021F08FC122F033EC20F01FC00FF020C0D5
:101BB00010F021C011F022C012F0A7EC1BF00FC0F2
:101BC000A4F110C0A5F111C0A6F112C0A7F1050E35
:101BD000136EA30E146E8B0E156E3E0E166E8CC118
:101BE00023F08DC124F08EC125F08FC126F0A4C151
:101BF0001FF0A5C120F0A6C121F0A7C122F033EC4F
:101C000020F01FC00FF020C010F021C011F022C042
:101C100012F0A7EC1BF00FC054F110C055F111C029
:101C200056F112C057F1AB0E136EAA0E146EAA0E27
:101C3000156E3E0E166E8CC123F08DC124F08EC140
:101C400025F08FC126F054C11FF055C120F056C1B8
:101C500021F057C122F033EC20F01FC00FF020C05C
:101C600010F021C011F022C012F0A7EC1BF00FC041
:101C700048F110C049F111C04AF112C04BF1B70E42
:101C8000136E6D0E146EDB0E156E3E0E166E8CC14D
:101C900023F08DC124F08EC125F08FC126F048C1FC
:101CA0001FF049C120F04AC121F04BC122F033ECB2
:101CB00020F01FC00FF020C010F021C011F022C092
:101CC00012F0A7EC1BF00FC038F110C039F111C0B1
:101CD0003AF112C03BF19A0E136E990E146E190E62
:101CE000156E3F0E166E8CC123F08DC124F08EC18F
:101CF00025F08FC126F038C11FF039C120F03AC15C
:101D000021F03BC122F033EC20F01FC00FF020C0C7
:101D100010F021C011F022C012F0A7EC1BF00FC090
:101D200000F110C001F111C002F112C003F18CC129
:101D300023F08DC124F08EC125F08FC126F08CC117
:101D40001FF08DC120F08EC121F08FC122F033EC45
:101D500020F01FC004F120C005F121C006F122C00F
:101D600007F100C11FF001C120F002C121F003C141
:101D700022F004C123F005C124F006C125F007C1FB
:101D800026F033EC20F01FC04CF120C04DF121C0F3
:101D90004EF122C04FF130C123F031C124F032C1E5
:101DA00025F033C126F05CC113F05DC114F05EC1B3
:101DB00015F05FC116F06CC10FF06DC110F06EC16F
:101DC00011F06FC112F0A7EC1BF00FC01FF010C094
:101DD00020F011C021F012C022F033EC20F01FC01F
:101DE00058F120C059F121C05AF122C05BF14CC119
:101DF0000FF04DC110F04EC111F04FC112F058C19B
:101E000013F059C114F05AC115F05BC116F0A7ECDC
:101E10001BF00FC04CF110C04DF111C04EF112C0BB
:101E20004FF16CC11FF06DC120F06EC121F06FC188
:101E300022F06CC123F06DC124F06EC125F06FC19A
:101E400026F033EC20F01FC08CF120C08DF121C0B2
:101E50008EF122C08FF1000E136E000E146E400E34
:101E6000156E400E166E8CC10FF08DC110F08EC134
:101E700011F08FC112F0A7EC1BF00FC058F110C089
:101E800059F111C05AF112C05BF158C10FF059C19C
:101E900010F05AC111F05BC112F04CC113F04DC1EA
:101EA00014F04EC115F04FC116F0A7EC1BF00FC097
:101EB00068F110C069F111C06AF112C06BF168C11C
:101EC000B8F169C1B9F16AC1BAF16BC1BBF1B8C16E
:101ED00090F1B9C191F1BAC192F1BBC193F1000E79
:101EE00001019015B86FF00E9115B96FFF0E9215A4
:101EF000BA6FFF0E9315BB6FB8C168F1B9C169F134
:101F0000BAC16AF1BBC16BF1000E136E000E146E04
:101F1000400E156EC00E166E68C10FF069C110F04C
:101F20006AC111F06BC112F0A7EC1BF00FC03CF1BD
:101F300010C03DF111C03EF112C03FF18CC13CF028
:101F40008DC13DF08EC13EF08FC13FF03CC138F0F5
:101F50003DC139F03EC13AF03FC13BF00FEC27F0F4
:101F600038C040F139C041F13AC042F13BC043F1C1
:101F70004CC138F04DC139F04EC13AF04FC13BF081
:101F800040C13CF041C13DF042C13EF043C13FF091
:101F90000FEC27F038C034F139C035F13AC036F1D2
:101FA0003BC037F16CC11FF06DC120F06EC121F054
:101FB0006FC122F068C123F069C124F06AC125F025
:101FC0006BC126F033EC20F01FC074F120C075F116
:101FD00021C076F122C077F168C123F069C124F0F5
:101FE0006AC125F06BC126F030C11FF031C120F06D
:101FF00032C121F033C122F033EC20F01FC00FF0CA
:1020000020C010F021C011F022C012F05CC123F0FA
:102010005DC124F05EC125F05FC126F034C11FF020
:1020200035C120F036C121F037C122F033EC20F069
:102030001FC013F020C014F021C015F022C016F00C
:10204000A7EC1BF00FC078F110C079F111C07AF144
:1020500012C07BF174C10FF075C110F076C111F0A0
:1020600077C112F078C113F079C114F07AC115F07C
:102070007BC116F0A7EC1BF00FC09CF110C09DF1C6
:1020800011C09EF112C09FF19CC1B8F19DC1B9F180
:102090009EC1BAF19FC1BBF1B8C190F1B9C191F134
:1020A000BAC192F1BBC193F1000E01019015B86F56
:1020B000F00E9115B96FFF0E9215BA6FFF0E9315C2
:1020C000BB6FB8C19CF1B9C19DF1BAC19EF1BBC152
:1020D0009FF174C13CF075C13DF076C13EF077C10F
:1020E0003FF09CC138F09DC139F09EC13AF09FC1CC
:1020F0003BF00FEC27F038C094F139C095F13AC0AD
:1021000096F13BC097F178C138F079C139F07AC1C6
:102110003AF07BC13BF094C13CF095C13DF096C1D3
:102120003EF097C13FF00FEC27F038C064F139C0A2
:1021300065F13AC066F13BC067F19CC11FF09DC1DB
:1021400020F09EC121F09FC122F0000E236E400EB0
:10215000246E760E256E3F0E266E33EC20F01FC0E7
:1021600020F120C021F121C022F122C023F14F0E25
:10217000236E380E246E760E256E3F0E266E64C1D9
:102180001FF065C120F066C121F067C122F033EC79
:1021900020F01FC013F020C014F021C015F022C0A1
:1021A00016F0C60E236E230E246EF60E256EB80EA4
:1021B000266E9CC11FF09DC120F09EC121F09FC1E1
:1021C00022F033EC20F01FC00FF020C010F021C02F
:1021D00011F022C012F0A7EC1BF00FC058F110C094
:1021E00059F111C05AF112C05BF158C10FF059C139
:1021F00010F05AC111F05BC112F0A0C190F0A1C162
:1022000091F00001D89090379137D890903791375E
:10221000010E9025F66E080E9121F76E0900F5CF9C
:1022200013F00900F5CF14F00900F5CF15F00A00FE
:10223000F5CF16F0A7EC1BF00FC024F110C025F16C
:1022400011C026F112C027F17CC101F07DC102F05E
:102250007EC103F07FC104F0010E2FEC25F001C018
:10226000B0F102C0B1F103C0B2F104C0B3F124C1B6
:1022700013F025C114F026C115F027C116F020C1B6
:102280000FF021C110F022C111F023C112F0A7EC10
:102290001BF00FC058F110C059F111C05AF112C013
:1022A0005BF1A0C190F0A1C191F00001D8909037EE
:1022B0009137D89090379137090E9025F66E080E19
:1022C0009121F76E0900F5CF13F00900F5CF14F056
:1022D0000900F5CF15F00A00F5CF16F058C10FF040
:1022E00059C110F05AC111F05BC112F0A7EC1BF0FC
:1022F0000FC008F110C009F111C00AF112C00BF1B2
:1023000008C10FF009C110F00AC111F00BC112F0A1
:10231000B0C113F0B1C114F0B2C115F0B3C116F0E1
:10232000A7EC1BF00FC080F110C081F111C082F149
:1023300012C083F180C1B8F181C1B9F182C1BAF193
:1023400083C1BBF1B8C190F1B9C191F1BAC192F1A9
:10235000BBC193F1000E01019015B86FF00E9115FD
:10236000B96FFF0E9215BA6FFF0E9315BB6FB8C110
:1023700080F1B9C181F1BAC182F1BBC183F1B0C1B1
:102380003CF0B1C13DF0B2C13EF0B3C13FF080C1FD
:1023900038F081C139F082C13AF083C13BF00FECD3
:1023A00027F038C094F139C095F13AC096F13BC09E
:1023B00097F1A0C190F0A1C191F00001D8909037A1
:1023C0009137D89090379137090E9025F66E080E08
:1023D0009121F76E0900F5CF3CF00900F5CF3DF0F3
:1023E0000900F5CF3EF00A00F5CF3FF094C138F078
:1023F00095C139F096C13AF097C13BF00FEC27F048
:1024000038C040F139C041F13AC042F13BC043F11C
:1024100020C13CF021C13DF022C13EF023C13FF07C
:1024200040C138F041C139F042C13AF043C13BF0FC
:102430000FEC27F038C00CF139C00DF13AC00EF1A5
:102440003BC00FF124C138F025C139F026C13AF064
:1024500027C13BF00CC13CF00DC13DF00EC13EF078
:102460000FC13FF00FEC27F038C01CF139C01DF14F
:102470003AC01EF13BC01FF18CC0B8F18DC0B9F15C
:102480008EC0BAF18FC0BBF1B8C190F1B9C191F162
:10249000BAC192F1BBC193F1000E01019015B86F62
:1024A000F00E9115B96FFF0E9215BA6FFF0E9315CE
:1024B000BB6FB8C128F1B9C129F1BAC12AF1BBC1BA
:1024C0002BF180C123F081C124F082C125F083C1AA
:1024D00026F028C13CF029C13DF02AC13EF02BC1B5
:1024E0003FF08CC038F08DC039F08EC03AF08FC00C
:1024F0003BF00FEC27F038C01FF039C020F03AC095
:1025000021F03BC022F033EC20F01FC010F120C0BE
:1025100011F121C012F122C013F110C10FF011C14D
:1025200010F012C111F013C112F01CC123F01DC133
:1025300024F01EC125F01FC126F08CC01FF08DC0F5
:1025400020F08EC021F08FC022F033EC20F01FC0AD
:1025500013F020C014F021C015F022C016F0A7EC33
:102560001BF00FC064F110C065F111C066F112C01C
:1025700067F128C11FF029C120F02AC121F02BC129
:1025800022F080C123F081C124F082C125F083C1F3
:1025900026F033EC20F01FC09CF120C09DF121C03B
:1025A0009EF122C09FF164C10FF065C110F066C1B9
:1025B00011F067C112F09CC113F09DC114F09EC1CF
:1025C00015F09FC116F0A7EC1BF00FC0B4F110C0BE
:1025D000B5F111C0B6F112C0B7F1B4C1B8F1B5C1CF
:1025E000B9F1B6C1BAF1B7C1BBF1B8C1ACF1B9C16B
:1025F000ADF1BAC1AEF1BBC1AFF10101AFBF0DEF9B
:1026000013F0AC05000EAD59000EAE59430EAF5994
:10261000D8A00DEF13F00FEF13F045EF13F0CA0E33
:10262000236EF20E246E490E256E710E266E88C141
:102630001FF089C120F08AC121F08BC122F033EC58
:1026400020F01FC0A4F120C0A5F121C0A6F122C036
:10265000A7F1A4C11FF0A5C120F0A6C121F0A7C118
:1026600022F0CA0E236EF20E246E490E256E710EF4
:10267000266E33EC20F01FC088F020C089F021C006
:102680008AF022C08BF046EF19F0430EAF19AC115F
:10269000AD11AE11D8A44FEF13F051EF13F0C4EF0A
:1026A00013F09CC13CF09DC13DF09EC13EF09FC126
:1026B0003FF0B4C138F0B5C139F0B6C13AF0B7C196
:1026C0003BF00FEC27F038C040F039C041F03AC081
:1026D00042F03BC043F03C0E136EAA0E146E380E4F
:1026E000156E330E166E64C10FF065C110F066C131
:1026F00011F067C112F0A7EC1BF00FC044F010C03E
:1027000045F011C046F012C047F08DEC26F0D8B06D
:102710008CEF13F08EEF13F08EEF14F0CA0E236ED1
:10272000F20E246E490E256E710E266E88C11FF0C2
:1027300089C120F08AC121F08BC122F033EC20F056
:102740001FC0A4F120C0A5F121C0A6F122C0A7F1AD
:10275000A4C11FF0A5C120F0A6C121F0A7C122F09D
:10276000CA0E236EF20E246E490E256E710E266E71
:1027700033EC20F01FC088F020C089F021C08AF01F
:1027800022C08BF046EF19F0FF0EAC150001906FE0
:10279000FF0E0101AD150001916FFF0E0101AE1595
:1027A0000001926F7F0E0101AF150001936F93BF7F
:1027B000E6EF13F09005000E9159160E9259430E54
:1027C0009359D8A0E6EF13F0E8EF13F01EEF14F0E2
:1027D000600E236E420E246EA20E256E0D0E266E26
:1027E00088C11FF089C120F08AC121F08BC122F07D
:1027F00033EC20F01FC0A4F120C0A5F121C0A6F148
:1028000022C0A7F1A4C11FF0A5C120F0A6C121F0EC
:10281000A7C122F0600E236E420E246EA20E256E1A
:102820000D0E266E33EC20F01FC088F020C089F01A
:1028300021C08AF022C08BF046EF19F0160E01017C
:10284000AE1909E1C30EAF19AC11AD11D8A42BEF2D
:1028500014F02DEF14F08EEF14F09CC13CF09DC1EC
:102860003DF09EC13EF09FC13FF0B4C138F0B5C10C
:1028700039F0B6C13AF0B7C13BF00FEC27F038C0E1
:1028800040F039C041F03AC042F03BC043F064C16F
:1028900044F065C145F066C146F067C147F08DEC74
:1028A00026F0D8A056EF14F058EF14F08EEF14F085
:1028B000600E236E420E246EA20E256E0D0E266E45
:1028C00088C11FF089C120F08AC121F08BC122F09C
:1028D00033EC20F01FC0A4F120C0A5F121C0A6F167
:1028E00022C0A7F1A4C11FF0A5C120F0A6C121F00C
:1028F000A7C122F0600E236E420E246EA20E256E3A
:102900000D0E266E33EC20F01FC088F020C089F039
:1029100021C08AF022C08BF046EF19F0FF0E0101B2
:10292000AC152C6FFF0EAD152D6FFF0EAE152E6F73
:102930007F0EAF152F6F170E0001906F2CC191F015
:102940002DC192F02EC193F02FC194F09067ABEFA0
:1029500014F0B3EF14F094359433933392339133EE
:10296000902FA6EF14F0810E000191250101A06FB8
:10297000FF0E000192210101A16FFF0E00019321C2
:102980000101A26FFF0E000194210101A36F000E4F
:102990007C6F000E7D6F000E7E6F000E7F6F2FBF6D
:1029A000DEEF14F02C05000E2D59000E2E593F0EAF
:1029B0002F59D8A0DEEF14F0E0EF14F0E4EF15F09B
:1029C000A0C190F0010E00019027000E916F000E43
:1029D000926F800E936F000E946F9067F2EF14F079
:1029E000FAEF14F094359433933392339133902F5C
:1029F000EDEF14F00101AC510001912501017C6F54
:102A0000AD510001922101017D6FAE510001932172
:102A100001017E6FAF510001942101017F6F810E92
:102A20000001906FFF0E916FFF0E926FFF0E936F7C
:102A3000170E946F7CC195F07DC196F07EC197F022
:102A40007FC198F0946727EF15F02FEF15F09835B8
:102A50009833973396339533942F22EF15F0000176
:102A6000955190250101A06F000E000191210101F7
:102A7000A16F000E000192210101A26F000E000162
:102A800093210101A36FA0C190F0FF0E0001916F8F
:102A9000FF0E926F7F0E936F000E946F906753EF4F
:102AA00015F05BEF15F094359433933392339133F3
:102AB000902F4EEF15F00001911D956F921D966FAE
:102AC000931D976F941D986F01017C51000195151E
:102AD0000101B86F7D51000196150101B96F7E515A
:102AE000000197150101BA6F7F510001981501018E
:102AF000BB6FB8C1B0F1B9C1B1F1BAC1B2F1BBC1DC
:102B0000B3F1A05117080001906FFF0E01017C1571
:102B10000001916FFF0E01017D150001926F7F0E84
:102B200001017E150001936F000E01017F15000168
:102B3000946F000E9111956F000E9211966F800E9A
:102B40009311976F000E9411986F9067AAEF15F08C
:102B5000B2EF15F098359833973396339533902F1D
:102B6000A5EF15F095C07CF196C07DF197C07EF180
:102B700098C07FF10101AFBFC2EF15F0C0EF15F0B3
:102B8000CAEF15F07F1F7E1F7D1F7C6D000E7D2319
:102B90007E237F239CC138F09DC139F09EC13AF05D
:102BA0009FC13BF0B0C13CF0B1C13DF0B2C13EF0BD
:102BB000B3C13FF00FEC27F038C09CF139C09DF154
:102BC0003AC09EF13BC09FF164C10FF065C110F0A7
:102BD00066C111F067C112F09CC113F09DC114F0E1
:102BE0009EC115F09FC116F0A7EC1BF00FC0B0F10D
:102BF00010C0B1F111C0B2F112C0B3F1B0C1B8F15F
:102C0000B1C1B9F1B2C1BAF1B3C1BBF1B8C190F170
:102C1000B9C191F1BAC192F1BBC193F1000E0101AA
:102C20009015B86F800E9115B96FFF0E9215BA6F9F
:102C3000FF0E9315BB6FB8C1B0F1B9C1B1F1BAC104
:102C4000B2F1BBC1B3F1B0C11FF0B1C120F0B2C14C
:102C500021F0B3C122F0000E236E720E246E310EED
:102C6000256E3F0E266E33EC20F01FC074F120C09D
:102C700075F121C076F122C077F19CC13CF09DC175
:102C80003DF09EC13EF09FC13FF0B0C138F0B1C1F0
:102C900039F0B2C13AF0B3C13BF00FEC27F038C0C5
:102CA00094F139C095F13AC096F13BC097F1180EF6
:102CB000236E720E246E310E256E3F0E266E94C169
:102CC0003CF095C13DF096C13EF097C13FF064C124
:102CD00038F065C139F066C13AF067C13BF00FECDE
:102CE00027F038C01FF039C020F03AC021F03BC0B7
:102CF00022F033EC20F01FC014F120C015F121C0E8
:102D000016F122C017F114C10FF015C110F016C151
:102D100011F017C112F08C0E236EBE0E246EBF0E82
:102D2000256E350E266EB0C11FF0B1C120F0B2C1C4
:102D300021F0B3C122F033EC20F01FC013F020C00B
:102D400014F021C015F022C016F0A7EC1BF00FC044
:102D500078F110C079F111C07AF112C07BF174C121
:102D60000FF075C110F076C111F077C112F078C183
:102D700013F079C114F07AC115F07BC116F0A7ECFD
:102D80001BF00FC0B4F110C0B5F111C0B6F112C004
:102D9000B7F174C13CF075C13DF076C13EF077C12A
:102DA0003FF0B4C138F0B5C139F0B6C13AF0B7C19F
:102DB0003BF00FEC27F038C094F139C095F13AC0E0
:102DC00096F13BC097F178C138F079C139F07AC1FA
:102DD0003AF07BC13BF094C13CF095C13DF096C107
:102DE0003EF097C13FF00FEC27F038C044F139C0F6
:102DF00045F13AC046F13BC047F1B4C11FF0B5C13F
:102E000020F0B6C121F0B7C122F0B4C123F0B5C1A2
:102E100024F0B6C125F0B7C126F033EC20F01FC076
:102E2000B0F120C0B1F121C0B2F122C0B3F10E0E59
:102E3000136EEA0E146EDD0E156EB50E166E4C0E88
:102E4000236EBB0E246E310E256E330E266EB0C17E
:102E50001FF0B1C120F0B2C121F0B3C122F033ECB8
:102E600020F01FC00FF020C010F021C011F022C0D0
:102E700012F0A7EC1BF00FC0A4F110C0A5F111C017
:102E8000A6F112C0A7F1550E136EB30E146E8A0E82
:102E9000156E380E166EB0C123F0B1C124F0B2C168
:102EA00025F0B3C126F0A4C11FF0A5C120F0A6C132
:102EB00021F0A7C122F033EC20F01FC00FF020C09A
:102EC00010F021C011F022C012F0A7EC1BF00FC0CF
:102ED00054F110C055F111C056F112C057F1610EF6
:102EE000136E0B0E146E360E156EBB0E166EB0C141
:102EF00023F0B1C124F0B2C125F0B3C126F054C112
:102F00001FF055C120F056C121F057C122F033EC1B
:102F100020F01FC00FF020C010F021C011F022C01F
:102F200012F0A7EC1BF00FC048F110C049F111C01E
:102F30004AF112C04BF1AB0E136EAA0E146E2A0E9C
:102F4000156E3E0E166EB0C123F0B1C124F0B2C1B1
:102F500025F0B3C126F048C11FF049C120F04AC195
:102F600021F04BC122F033EC20F01FC00FF020C045
:102F700010F021C011F022C012F0A7EC1BF00FC01E
:102F800038F110C039F111C03AF112C03BF1B4C1AF
:102F900038F0B5C139F0B6C13AF0B7C13BF0B0C1B5
:102FA00023F0B1C124F0B2C125F0B3C126F038C17D
:102FB0001FF039C120F03AC121F03BC122F033ECBF
:102FC00020F01FC03CF020C03DF021C03EF022C0E8
:102FD0003FF00FEC27F038C080F139C081F13AC0E2
:102FE00082F13BC083F1000E136E000E146E000ED2
:102FF000156EC00E166E80C10FF081C110F082C137
:1030000011F083C112F0A7EC1BF00FC044F010C008
:1030100045F011C046F012C047F080C123F081C1D5
:1030200024F082C125F083C126F0B4C11FF0B5C1E0
:1030300020F0B6C121F0B7C122F033EC20F01FC060
:1030400040F020C041F021C042F022C043F048ECE3
:1030500022F040C03CF141C03DF142C03EF143C0CE
:103060003FF144C113F045C114F046C115F047C10A
:1030700016F044C123F045C124F046C125F047C1F4
:1030800026F0B4C11FF0B5C120F0B6C121F0B7C120
:1030900022F033EC20F01FC00FF020C010F021C050
:1030A00011F022C012F0A7EC1BF00FC018F110C0F5
:1030B00019F111C01AF112C01BF13CC138F03DC129
:1030C00039F03EC13AF03FC13BF018C13CF019C1A4
:1030D0003DF01AC13EF01BC13FF00FEC27F038C0A5
:1030E0004CF139C04DF13AC04EF13BC04FF1B4C183
:1030F0003CF0B5C13DF0B6C13EF0B7C13FF04CC1A8
:1031000038F04DC139F04EC13AF04FC13BF00FECF1
:1031100027F038C094F139C095F13AC096F13BC020
:1031200097F1000E386E000E396E800E3A6E3F0E2B
:103130003B6E94C13CF095C13DF096C13EF097C105
:103140003FF00FEC27F038C0B4F139C0B5F13AC008
:10315000B6F13BC0B7F1B4C1B8F1B5C1B9F1B6C170
:10316000BAF1B7C1BBF1B8C1ACF1B9C1ADF1BAC1E7
:10317000AEF1BBC1AFF17CC190F07DC191F07EC1D9
:1031800092F07FC193F0170ED890000190379137DD
:1031900092379337E82EC4EF18F090510101AC2715
:1031A000000191510101AD23000192510101AE23B3
:1031B000000193510101AF23170E0001906FACC1C4
:1031C00091F0ADC192F0AEC193F0AFC194F09067B1
:1031D000ECEF18F0F4EF18F0943594339333923306
:1031E0009133902FE7EF18F0000194BF04EF19F02E
:1031F00094519311921106E19105D8B002EF19F0A4
:1032000004EF19F01CEF19F0B4C138F0B5C139F072
:10321000B6C13AF0B7C13BF07CC13CF07DC13DF096
:1032200015EC24F038C0B4F139C0B5F13AC0B6F1AC
:103230003BC0B7F12CEF19F0ACC1B8F1ADC1B9F199
:10324000AEC1BAF1AFC1BBF1B8C1B4F1B9C1B5F10A
:10325000BAC1B6F1BBC1B7F188C11FF089C120F076
:103260008AC121F08BC122F0B4C123F0B5C124F092
:10327000B6C125F0B7C126F033EC20F01FC088F0AE
:1032800020C089F021C08AF022C08BF012004CC00F
:103290006CF04DC06DF04EC06EF04FC06FF06CC062
:1032A00084F06DC085F06EC086F06FC087F0000EB0
:1032B00000018415506E000E8515516E800E861526
:1032C000526E7F0E8715536E800E521809E17F0EE5
:1032D000531850105110D8A470EF19F072EF19F074
:1032E000A0EF19F04CC023F04DC024F04EC025F0E3
:1032F0004FC026F04CC01FF04DC020F04EC021F052
:103300004FC022F033EC20F01FC00FF020C010F0AF
:1033100021C011F022C012F04CC013F04DC014F0C7
:103320004EC015F04FC016F0A7EC1BF00FC04CF0CC
:1033300010C04DF011C04EF012C04FF0A6EF1BF0C0
:1033400087BFAFEF19F087518611851106E184051B
:10335000D8B0ADEF19F0AFEF19F0EBEF19F0FF0EA9
:103360008415506EFF0E8515516EFF0E8615526E38
:103370007F0E8715536E5050511052105310D8A421
:10338000C4EF19F0C6EF19F0D0EF19F04CC04CF0B3
:103390004DC04DF04EC04EF04FC04FF0A6EF1BF0A9
:1033A00087BFD7EF19F0D5EF19F0EBEF19F0000E4A
:1033B000BC6F210EBB6F7D0E016E080E026E68ECB5
:1033C00027F001C04CF002C04DF003C04EF004C025
:1033D0004FF0A6EF1BF0170E506E84C051F085C061
:1033E00052F086C053F087C054F05066FAEF19F0DF
:1033F00002EF1AF054345432533252325132502EBA
:10340000F5EF19F051C07CF052C07DF053C07EF052
:1034100054C07FF000017C517D117E117F11D8A432
:1034200014EF1AF016EF1AF046EF1AF0000E686F5C
:10343000000E696F000E6A6F000E6B6F2BEF1AF0B3
:10344000D8908437853786378737010E6827000E76
:1034500069236A236B2386AF30EF1AF032EF1AF03C
:1034600020EF1AF0FF0E6825506EFF0E6921516E95
:10347000FF0E6A21526EFF0E6B21536E50507C5F1F
:1034800051507D5B52507E5B53507F5B810E7C2799
:10349000FF0E7D23FF0E7E23FF0E7F23FF0E84157C
:1034A000506EFF0E8515516E7F0E8615526E000E02
:1034B0008715536E000E5010846F000E5110856FEB
:1034C000800E5210866F000E5310876F7CA16BEF39
:1034D0001AF06DEF1AF075EF1AF0845184278551B8
:1034E000852386518623875187237F357F337E331B
:1034F0007D337C33845184278551852386518623EF
:1035000087518723000E646F000E656F000E666F93
:10351000000E676F64C070F065C071F066C072F035
:1035200067C073F0000E806F000E816F000E826F17
:10353000010E836FE4EF1AF080516425746F81519E
:103540006521756F82516621766F83516721776F90
:103550007451845D75518559765186598751800A19
:10356000506E7751800A5058D8A0B9EF1AF0BBEFCF
:103570001AF0D7EF1AF080517425646F81517521CC
:10358000656F82517621666F83517721676F745121
:10359000845F7551855B7651865B7751875B80517F
:1035A0007027815171238251722383517323845177
:1035B0008427855185238651862387518723D89078
:1035C000833382338133803380518111821183119F
:1035D000D8A4EDEF1AF0EFEF1AF09CEF1AF0845137
:1035E000851186118711D8B4F8EF1AF0FAEF1AF0A6
:1035F0005BEF1BF0000E786F000E796F800E7A6F14
:103600003F0E7B6F78C040F079C041F07AC042F045
:103610007BC043F0000E446E000E456E800E466E79
:103620003F0E476E8DEC26F0D8A019EF1BF01BEF74
:103630001BF05BEF1BF0000E0001786F000E796F3E
:10364000800E7A6F3F0E7B6F000E406E000E416E53
:10365000800E426E3F0E436E78C044F079C045F054
:103660007AC046F07BC047F08DEC26F0D8B03BEF37
:103670001BF03DEF1BF046EF1BF0020E0001702720
:10368000000E7123722373235BEF1BF0010E000108
:103690007015506E000E7115516E000E7215526E3F
:1036A000000E7315536E50507027515071235250B5
:1036B00072235350732370C050F071C051F072C028
:1036C00052F073C053F053345332523251325032AD
:1036D000000E50240001846F000E5120856F000EF3
:1036E0005220866F3F0E5320876F7CC050F07DC004
:1036F00051F07EC052F07FC053F0170ED890503674
:10370000513652365336E82E7EEF1BF05050842748
:1037100051508523525086235350872384C06CF028
:1037200085C06DF086C06EF087C06FF06CC078F019
:103730006DC079F06EC07AF06FC07BF078C04CF04D
:1037400079C04DF07AC04EF07BC04FF0120012509D
:10375000800B1B6E125012241D6E11AEB2EF1BF0C7
:10376000B4EF1BF0B5EF1BF01D801D50D8B4BBEFBC
:103770001BF0BDEF1BF0D2EF1BF01D28D8A4C3EF48
:103780001BF0C5EF1BF0CDEF1BF0000E0F6E000E0F
:10379000106E000E116E000E126E118E000E126E63
:1037A000DAEF1BF0000E0F6E000E106E000E116EA1
:1037B000000E126E1650800B1C6E1B501C18D8B4D5
:1037C000E4EF1BF0E6EF1BF0E7EF1BF01B8C16504D
:1037D00016241C6E15AEEFEF1BF0F1EF1BF0F2EFAD
:1037E0001BF01C801C50D8B4F8EF1BF0FAEF1BF054
:1037F0000FEF1CF01C28D8A400EF1CF002EF1CF007
:103800000AEF1CF0000E136E000E146E000E156E03
:10381000000E166E158E000E166E17EF1CF0000EC1
:10382000136E000E146E000E156E000E166E1D50F7
:103830001C5CD8B01EEF1CF020EF1CF047EF1CF012
:103840001BAC25EF1CF027EF1CF029EF1CF0800EBD
:103850001B1A1DC01EF01CC01DF01EC01CF00FC0A6
:103860001EF013C00FF01EC013F010C01EF014C0E5
:1038700010F01EC014F011C01EF015C011F01EC0D3
:1038800015F012C01EF016C012F01EC016F0000E89
:103890001E6E1D501CC017F0186A175E000E185AD5
:1038A00018BE5CEF1CF0185009E11A0E175CD8A086
:1038B0005CEF1CF05EEF1CF095EF1CF00F50101049
:1038C00011101210D8A467EF1CF06AEF1CF0010E63
:1038D0006BEF1CF0000E1E6E000E0F6E000E106ED1
:1038E000000E116E000E126E1CC01DF09EEF1CF03B
:1038F0001EA07DEF1CF07FEF1CF085EF1CF0D89030
:103900001E3001091E6E87EF1CF0D8901E320FA0EA
:103910008CEF1CF08EEF1CF08FEF1CF01E8E12341B
:103920001232113210320F321D2A1C501D5CD8A0E9
:103930009CEF1CF09EEF1CF078EF1CF01BBCA3EF7B
:103940001CF0A5EF1CF0E5EF1CF01D50D8A4ABEF68
:103950001CF0ADEF1CF0B7EF1CF0000E0F6E000E68
:10396000106E000E116E000E126E06EF1EF0135058
:103970000F2614501022155011221650122212A098
:10398000C4EF1CF0C6EF1CF072EF1DF01EA0CBEFD1
:103990001CF0CDEF1CF0D3EF1CF0D8901E300109C5
:1039A0001E6ED5EF1CF0D8901E320FA0DAEF1CF07F
:1039B000DCEF1CF0DDEF1CF01E8E123412321132DF
:1039C00010320F321D2A72EF1DF013500F5C14508D
:1039D0001058155011581250800A176E1650800A50
:1039E0001758D8B0F6EF1CF0F8EF1CF023EF1DF0DD
:1039F0000F50135C176E10501458186E1150155854
:103A0000196E125016581A6EFF0E17240F6EFF0E05
:103A10001820106EFF0E1920116EFF0E1A20126E64
:103A2000800E1B1A1E6C1E50D8A419EF1DF01BEF40
:103A30001DF02BEF1DF0010E0F26000E102211229B
:103A400012222BEF1DF013500F5E1450105A155018
:103A5000115A1650125A0F50101011101210D8A4EB
:103A600034EF1DF036EF1DF06BEF1DF01E50D8A4A3
:103A70003CEF1DF03EEF1DF06BEF1DF0000E0F6EE2
:103A8000000E106E000E116E000E126E06EF1EF08C
:103A9000D8900F361036113612361EAE52EF1DF08A
:103AA00054EF1DF055EF1DF00F801EA05AEF1DF0D2
:103AB0005CEF1DF060EF1DF0D8801E3662EF1DF048
:103AC000D8901E361D50D8B468EF1DF06AEF1DF077
:103AD0006BEF1DF01D0611AE70EF1DF072EF1DF0C3
:103AE00048EF1DF0000E1C6E1EAE79EF1DF07BEF4F
:103AF0001DF093EF1DF01EC017F07F0E1716D8B4FF
:103B000084EF1DF086EF1DF08AEF1DF0010E1C6E94
:103B100093EF1DF00FA08FEF1DF091EF1DF093EFCD
:103B20001DF086EF1DF01C50D8B499EF1DF09BEFEF
:103B30001DF0C6EF1DF0010E0F26000E10221122FF
:103B4000122212A0A6EF1DF0A8EF1DF0C6EF1DF087
:103B50000FC017F010C018F011C019F012C01AF001
:103B60001A341A3219321832173217C00FF018C02F
:103B700010F019C011F01AC012F01D28D8B4C3EF0C
:103B80001DF0C5EF1DF0C6EF1DF01D2A1D28D8B48D
:103B9000CCEF1DF0CEEF1DF0D6EF1DF01D50D8A4D8
:103BA000D4EF1DF0D6EF1DF0E8EF1DF0000E0F6E04
:103BB000000E106E000E116E000E126E1D50D8A475
:103BC000E4EF1DF0E6EF1DF0E8EF1DF0000E1B6EB8
:103BD0001DA0EDEF1DF0EFEF1DF0F2EF1DF0118EC7
:103BE000F3EF1DF0119ED8901D30126E1BAEFBEF4F
:103BF0001DF0FDEF1DF0FEEF1DF0128E0FC00FF057
:103C000010C010F011C011F012C012F01200700EAE
:103C1000D312000E0001A86F000EA76F0F0EC16E29
:103C2000040E926E000E936E000E956E000E806E66
:103C3000000E816E000E836E80A421EF1EF023EF34
:103C40001EF012EF20F00001A74BA82B12EF20F07E
:103C5000000EAA6F070EA96FA9C001F0AAC002F05A
:103C6000000E02BEFF0E036E046E010E2FEC25F057
:103C700001C0B3F002C0B4F003C0B5F004C0B6F0A8
:103C8000B3C08CF0B4C08DF0B5C08EF0B6C08FF06C
:103C9000000E0001886F000E896F000E8A6F400EC3
:103CA0008B6F40EC04F088C059F089C05AF08AC08C
:103CB0005BF08BC05CF009EC26F05950836E020E6D
:103CC00000019E6F040E9D6FBA0EE82EFED79D2F49
:103CD000FCD79E2FFAD700F00001A907D8A0AA07A9
:103CE000AABF77EF1EF075EF1EF02CEF1EF0000E4E
:103CF000AC6F000EAB6FABC001F0ACC002F0000EB9
:103D000002BEFF0E036E046E010E2FEC25F001C003
:103D1000B3F002C0B4F003C0B5F004C0B6F0B3C055
:103D20008CF0B4C08DF0B5C08EF0B6C08FF0000E30
:103D30000001886F000E896F000E8A6F400E8B6F36
:103D400040EC04F088C059F089C05AF08AC05BF09A
:103D50008BC05CF009EC26F05950836E020E000116
:103D60009E6F040E9D6FBA0EE82EFED79D2FFCD7D6
:103D70009E2FFAD700F00001AB4BAC2BACBFCAEFC3
:103D80001EF0AC5109E1080EAB5DD8A0CAEF1EF0E1
:103D9000CCEF1EF07BEF1EF01CEF1EF0000E836ECA
:103DA000000EAE6F000EAD6FADC001F0AEC002F000
:103DB000000E02BEFF0E036E046E010E2FEC25F006
:103DC00001C0B3F002C0B4F003C0B5F004C0B6F057
:103DD000B3C08CF0B4C08DF0B5C08EF0B6C08FF01B
:103DE000000E0001886F000E896F000E8A6F400E72
:103DF0008B6F40EC04F088C09FF089C0A0F08AC0AF
:103E0000A1F08BC0A2F09FC013F0A0C014F0A1C01D
:103E100015F0A2C016F08150016E026A036A046AAE
:103E2000000E2FEC25F001C00FF002C010F003C00F
:103E300011F004C012F0A7EC1BF00FC059F010C035
:103E40005AF011C05BF012C05CF009EC26F059503A
:103E5000816E150E00019E6F4B0E9D6FBE0EE82EFB
:103E6000FED79D2FFCD79E2FFAD700F00001AD4B57
:103E7000AE2BAEBF45EF1FF0AE5109E1080EAD5DB0
:103E8000D8A045EF1FF047EF1FF0D4EF1EF0000E53
:103E9000B06F070EAF6FAFC001F0B0C002F0000E00
:103EA00002BEFF0E036E046E010E2FEC25F001C062
:103EB000B3F002C0B4F003C0B5F004C0B6F0B3C0B4
:103EC0008CF0B4C08DF0B5C08EF0B6C08FF0000E8F
:103ED0000001886F000E896F000E8A6F400E8B6F95
:103EE00040EC04F088C0A3F089C0A4F08AC0A5F01B
:103EF0008BC0A6F0A3C03CF0A4C03DF0A5C03EF02E
:103F0000A6C03FF08150016E026A036A046A000E87
:103F10002FEC25F001C038F002C039F003C03AF0B0
:103F200004C03BF00FEC27F038C059F039C05AF00C
:103F30003AC05BF03BC05CF009EC26F05950816E52
:103F4000150E00019E6F4B0E9D6FBE0EE82EFED724
:103F50009D2FFCD79E2FFAD700F00001AF07D8A005
:103F6000B007B0BFB8EF1FF0B6EF1FF04BEF1FF078
:103F70001CEF1EF0000EB26F000EB16FB1C080FFDB
:103F80000B0E00019E6F260E9D6F5D0EE82EFED774
:103F90009D2FFCD79E2FFAD700D0080E0001B12725
:103FA000000EB223B2BFDEEF1FF0B25109E1810E65
:103FB000B15DD8A0DEEF1FF0E0EF1FF0BEEF1FF005
:103FC0001CEF1EF08082060E00019E6F130E9D6F87
:103FD000AD0EE82EFED79D2FFCD79E2FFAD700D02E
:103FE0008092060E00019E6F130E9D6FAD0EE82E9F
:103FF000FED79D2FFCD79E2FFAD700D01CEF1EF0C6
:10400000000EA86F000EA76F030E00019E6F080E32
:104010009D6F770EE82EFED79D2FFCD79E2FFAD7E7
:104020001CEF1EF0A7C09DF0A8C09EF000019E519D
:10403000000AD8B41EEF20F000EF20F09D51010AD5
:10404000D8B428EF1EF0030AD8B4CEEF1EF0010A50
:10405000D8B4BAEF1FF0070AD8B4E2EF1FF000EFB0
:1040600020F000EF00F02250800B2B6E2250222413
:10407000316E21AE3EEF20F040EF20F041EF20F016
:1040800031803150D8B447EF20F049EF20F05CEF99
:1040900020F03128D8A44FEF20F051EF20F059EF55
:1040A00020F0000E1F6E000E206E000E216E000E1E
:1040B000226E218E64EF20F0000E1F6E000E206E27
:1040C000000E216E000E226E2650800B2B1A2650F9
:1040D0002624306E25AE6FEF20F071EF20F072EFE6
:1040E00020F030803050D8B478EF20F07AEF20F014
:1040F0008DEF20F03028D8A480EF20F082EF20F060
:104100008AEF20F0000E236E000E246E000E256E46
:10411000000E266E258E95EF20F0000E236E000E09
:10412000246E000E256E000E266E3050D8B49BEF24
:1041300020F09DEF20F0A5EF20F03150D8A4A3EFA0
:1041400020F0A5EF20F0AFEF20F0000E1F6E000E64
:10415000206E000E216E000E226E47EF22F02550D9
:104160001F02F3CF36F0F4CF37F036502C6E2D6AA5
:104170002E6A2F6A3750326E336A346A356A245099
:104180002002F3CF36F0F4CF37F036502C26000E55
:104190002D222E222F2237503226000E3322342297
:1041A000352223502102F3CF36F0F4CF37F03650CA
:1041B0002C26000E2D222E222F2237503226000EC2
:1041C0003322342235222EC02FF02DC02EF02CC0E9
:1041D0002DF02C6A23502002F3CF36F0F4CF37F0C5
:1041E00036502C2637502D22000E2E22000E2F2264
:1041F00024501F02F3CF36F0F4CF37F036502C2680
:1042000037502D22000E2E22000E2F222EC02FF00E
:104210002DC02EF02CC02DF02C6A23501F02F3CF9E
:1042200036F0F4CF37F036502C2637502D22000EC2
:104230002E22000E2F2225502002F3CF36F0F4CF8D
:1042400037F03650322637503322000E3422000E1B
:10425000352224502102F3CF36F0F4CF37F0365018
:10426000322637503322000E3422000E35222550DC
:104270002102F3CF36F0F4CF37F03650276E3750A7
:10428000286E296A2A6A29C02AF028C029F027C086
:1042900028F0276A2750322628503322295034220A
:1042A0002A5035222CC027F02DC028F02EC029F02E
:1042B0002FC02AF0190E62EF21F0D8902A3229324D
:1042C00028322732E82E5DEF21F027503226285081
:1042D0003322295034222A5035222EC02FF02DC0EF
:1042E0002EF02CC02DF02C6A305031C027F0286AF7
:1042F0002726000E2822820E2724366EFF0E282045
:10430000376E98EF21F0D890323633363436353662
:104310002FAE8DEF21F08FEF21F090EF21F0328062
:10432000D8902C362D362E362F363606D8A03706A6
:1043300034AE9DEF21F09FEF21F083EF21F0000ECE
:10434000306E2FAEA6EF21F0A8EF21F0CCEF21F0D8
:10435000FF0E2C14276EFF0E2D14286EFF0E2E1448
:10436000296E7F0E2F142A6E2750281029102A102C
:10437000D8B4BDEF21F0BFEF21F0C3EF21F0010E63
:10438000306ECCEF21F032A0C8EF21F0CAEF21F05F
:10439000CCEF21F0BFEF21F03050D8B4D2EF21F0B4
:1043A000D4EF21F0F8EF21F0010E3226000E332277
:1043B0003422352235A0DFEF21F0E1EF21F0F8EFD4
:1043C00021F032C027F033C028F034C029F035C0C6
:1043D0002AF02A342A3229322832273227C032F0F2
:1043E00028C033F029C034F02AC035F0364A372AC5
:1043F00037BE03EF22F0375008E13628D8A003EF8C
:1044000022F005EF22F00FEF22F0000E326E000EC8
:10441000336E800E346E7F0E356E3DEF22F037BE68
:104420001CEF22F0375006E13604D8B01AEF22F024
:104430001CEF22F028EF22F0000E326E000E336ED9
:10444000000E346E000E356E000E2B6E3DEF22F026
:1044500036C031F0FF0E3216FF0E33167F0E3416C3
:10446000000E351631A037EF22F039EF22F03AEF87
:1044700022F0348ED8903130356E2B50351232C048
:104480001FF033C020F034C021F035C022F01200FC
:104490004350800B506E43504324576E42AE53EF4F
:1044A00022F055EF22F056EF22F057805750D8B443
:1044B0005CEF22F05EEF22F073EF22F05728D8A4D1
:1044C00064EF22F066EF22F06EEF22F0000E406EF5
:1044D000000E416E000E426E000E436E428E000EC4
:1044E000436E7BEF22F0000E406E000E416E000E18
:1044F000426E000E436E4750800B501A47504724BF
:10450000586E46AE86EF22F088EF22F089EF22F057
:1045100058805850D8B48FEF22F091EF22F0A6EFD8
:1045200022F05828D8A497EF22F099EF22F0A1EFBB
:1045300022F0000E446E000E456E000E466E000E18
:10454000476E468E000E476EAEEF22F0000E446EB0
:10455000000E456E000E466E000E476E445045102C
:1045600046104710D8A4B7EF22F0B9EF22F0D1EFF0
:1045700022F0000E406E000E416E000E426E000EE4
:10458000436E800E42127F0E43125050431240C0C1
:1045900040F041C041F042C042F043C043F014EF4C
:1045A00024F05750D8A4D7EF22F0D9EF22F0E3EF50
:1045B00022F0000E406E000E416E000E426E000EA4
:1045C000436E14EF24F0585057C048F0496A485ED3
:1045D000000E495A7F0E4824516E000E4920526E3B
:1045E00040C04CF041C04DF042C04EF043C04FF0CF
:1045F000000E406E000E416E000E426E000E436EC5
:10460000000E536E000E546E000E556E000E566E68
:10461000000E586E44EF23F05850D8B412EF23F038
:1046200014EF23F02BEF23F0D8904C364D364E3656
:104630004F36D890403641364236433656AE23EF99
:1046400023F025EF23F026EF23F04080D890533657
:1046500054365536563644504C5C45504D584650AD
:104660004E5847504F58D8A038EF23F03AEF23F078
:1046700043EF23F0568C44504C5E45504D5A465003
:104680004E5A47504F5A582A190E58644AEF23F091
:104690004CEF23F00CEF23F04C504D104E104F1008
:1046A000D8B455EF23F057EF23F06FEF23F053808A
:1046B0006FEF23F0D890403641364236433656AE3F
:1046C00064EF23F066EF23F067EF23F04080D8908B
:1046D00053365436553656365106D8A0520642AE99
:1046E00074EF23F076EF23F05AEF23F0000E586EAC
:1046F00056AE7DEF23F07FEF23F0A3EF23F0FF0E04
:104700005314486EFF0E5414496EFF0E55144A6E32
:104710007F0E56144B6E485049104A104B10D8B4B7
:1047200094EF23F096EF23F09AEF23F0010E586EEA
:10473000A3EF23F040A09FEF23F0A1EF23F0A3EF1E
:1047400023F096EF23F05850D8B4A9EF23F0ABEF45
:1047500023F0CFEF23F0010E4026000E412242222B
:10476000432243A0B6EF23F0B8EF23F0CFEF23F0BE
:1047700040C048F041C049F042C04AF043C04BF04D
:104780004B344B324A324932483248C040F049C07B
:1047900041F04AC042F04BC043F0514A522A52BE47
:1047A000DAEF23F0525008E15128D8A0DAEF23F0D5
:1047B000DCEF23F0E7EF23F0000E526E5168000E9D
:1047C000406E000E416E000E426E000E436E52BEF1
:1047D000F4EF23F0525006E15104D8B0F2EF23F089
:1047E000F4EF23F002EF24F0000E526E000E516E33
:1047F000000E406E000E416E000E426E000E436EC3
:10480000000E506E51C057F057A009EF24F00BEF87
:1048100024F00EEF24F0428E0FEF24F0429ED89049
:104820005730436EC5EF22F0120038C046F039C051
:1048300047F03AC048F03BC049F03DBE29EF24F0B4
:104840003D5009E1800E3C5CD8A029EF24F02BEF0D
:1048500024F089EF24F046C01FF047C020F048C084
:1048600021F049C022F0000E236E000E246E000ECF
:10487000256E7F0E266E33EC20F01FC046F020C060
:1048800047F021C048F022C049F0810E3C26FF0EBF
:104890003D223DBE55EF24F03D5009E1800E3C5CC9
:1048A000D8A055EF24F057EF24F0F3EF24F046C0E2
:1048B0001FF047C020F048C021F049C022F0000E90
:1048C000236E000E246E000E256E7F0E266E33ECD6
:1048D00020F01FC046F020C047F021C048F022C0A1
:1048E00049F0810E3C26FF0E3D223DBE81EF24F0B3
:1048F0003D5009E1800E3C5CD8A081EF24F083EFAD
:1049000024F0F3EF24F0000E3D6E7F0E3C6EF3EFCB
:1049100024F03DAE95EF24F0820E3C5CFF0E3D5836
:10492000D8B095EF24F097EF24F0F3EF24F046C0D1
:104930001FF047C020F048C021F049C022F0000E0F
:10494000236E000E246E800E256E0C0E266E33EC48
:1049500020F01FC046F020C047F021C048F022C020
:1049600049F0660E3C26000E3D223DAEC1EF24F01C
:10497000820E3C5CFF0E3D58D8B0C1EF24F0C3EF6F
:1049800024F0F3EF24F046C01FF047C020F048C0E9
:1049900021F049C022F0000E236E000E246E800E1E
:1049A000256E0C0E266E33EC20F01FC046F020C0A2
:1049B00047F021C048F022C049F0660E3C26000EA8
:1049C0003D223DAEEDEF24F0820E3C5CFF0E3D58E3
:1049D000D8B0EDEF24F0EFEF24F0F3EF24F0FF0E6A
:1049E0003D6E820E3C6E7F0E3C243E6E000E3D20DE
:1049F0003F6E406A416A170ED8903E363F364036C9
:104A00004136E82EFCEF24F03EC042F03FC043F0B8
:104A100040C044F041C045F042C01FF043C020F008
:104A200044C021F045C022F046C023F047C024F026
:104A300048C025F049C026F033EC20F01FC038F004
:104A400020C039F021C03AF022C03BF038C038F025
:104A500039C039F03AC03AF03BC03BF01200096E61
:104A60000950D8B436EF25F038EF25F05AEF25F08D
:104A700004BE3FEF25F03DEF25F05AEF25F001C0D1
:104A800005F002C006F003C007F004C008F0051EE0
:104A9000061E071E081E052A000E062207220822EF
:104AA00005C00BF006C00CF007C00DF008C00EF0FA
:104AB00062EF25F001C00BF002C00CF003C00DF056
:104AC00004C00EF00150021003100410D8A46BEFC4
:104AD00025F06DEF25F077EF25F0000E016E000E4A
:104AE000026E000E036E000E046E08EF26F0960EA6
:104AF0000A6E81EF25F00A2AD8900E320D320C3260
:104B00000B32000E0B14056E000E0C14066E000E18
:104B10000D14076EFE0E0E14086E055006100710D9
:104B20000810D8A496EF25F098EF25F07BEF25F03C
:104B3000A6EF25F00A2A010E0B26000E0C220D22EC
:104B40000E22D8900E320D320C320B32000E0B14A6
:104B5000056E000E0C14066E000E0D14076EFF0E8F
:104B60000E14086E0550061007100810D8A4BBEFED
:104B700025F0BDEF25F09AEF25F0C5EF25F00A06E8
:104B8000D8900B360C360D360E360DBECAEF25F01A
:104B9000CCEF25F0D4EF25F0020E0A60D2EF25F01D
:104BA000D4EF25F0BFEF25F00AB0D9EF25F0DBEF09
:104BB00025F0DCEF25F00D9ED8900A320AC005F0F2
:104BC000066A076A086A05C008F0076A066A056A85
:104BD00005500B1206500C1207500D1208500E1201
:104BE0000950D8B4F6EF25F0F8EF25F000EF26F0E5
:104BF00004BEFFEF25F0FDEF25F000EF26F00E8E4E
:104C00000BC001F00CC002F00DC003F00EC004F0A8
:104C100012005B345C345E6E5E50D8A412EF26F056
:104C200014EF26F01EEF26F0000E596E000E5A6E9D
:104C3000000E5B6E000E5C6E8CEF26F059C099F092
:104C40005AC09AF05BC09BF05CC09CF0200E2FEF26
:104C500026F00001D8909C339B339A339933E82E89
:104C600029EF26F099515D6E5B8EFF0E5916FF0EEF
:104C70005A16FF0E5B16000E5C16960E5E5E5EBE4A
:104C800046EF26F044EF26F05CEF26F05E50800AF7
:104C9000970FD8B04EEF26F050EF26F052EF26F0E7
:104CA00014EF26F0D8905C325B325A3259325E3EB5
:104CB00052EF26F074EF26F01F0E5E6462EF26F0CE
:104CC00064EF26F06CEF26F014EF26F0D8905936FA
:104CD0005A365B365C365E065E50D8A472EF26F01C
:104CE00074EF26F066EF26F05D50D8B47AEF26F028
:104CF0007CEF26F084EF26F05C1E5B1E5A1E596C7A
:104D0000000E5A225B225C2259C059F05AC05AF058
:104D10005BC05BF05CC05CF01200000E4014486E9B
:104D2000000E4114496E800E42144A6E7F0E4314E9
:104D30004B6E485049104A104B10D8A4A2EF26F0F1
:104D4000A4EF26F0ACEF26F0000E406E000E416E90
:104D5000000E426E000E436E000E4414486E000EAC
:104D60004514496E800E46144A6E7F0E47144B6EF2
:104D7000485049104A104B10D8A4C1EF26F0C3EF99
:104D800026F0CBEF26F0000E446E000E456E000EAE
:104D9000466E000E476E43AED0EF26F0D2EF26F0FF
:104DA000DBEF26F0406C411ED8B0412A421ED8B03D
:104DB000422A800E435647AEE0EF26F0E2EF26F09F
:104DC000EBEF26F0446C451ED8B0452A461ED8B0FD
:104DD000462A800E4756000E401A000E411A000E59
:104DE000421A800E431A000E441A000E451A000E95
:104DF000461A800E471A4450405C45504158465070
:104E0000425847504358D8B008EF27F00AEF27F030
:104E10000DEF27F0D8900EEF27F0D8801200000E8B
:104E20003C1A000E3D1A000E3E1A800E3F1A38C082
:104E30000FF039C010F03AC011F03BC012F03CC086
:104E400013F03DC014F03EC015F03FC016F0A7ECC3
:104E50001BF00FC038F010C039F011C03AF012C08A
:104E60003BF012000150021003100410D8B43BEFC5
:104E700027F03DEF27F045EF27F0000E011A000E56
:104E8000021A000E031A800E041A01C001F002C0BB
:104E900002F003C003F004C004F01200B7C005F034
:104EA000B8C006F0B9C007F0BAC008F001C005F0FC
:104EB00002C006F003C007F004C008F0089E05C059
:104EC00001F006C002F007C003F008C004F01200B1
:104ED000FF0E056EFF0E066EFF0E076E7F0E086E4C
:104EE00005C001F006C002F007C003F008C004F0DE
:104EF00012000001BC6BBB6BBA6BB96BB86BB76BC4
:0A4F0000000EF86E000107EF1EF02E
:020000040020DA
:08000000FFFFFFFFFFFFFFFF00
:020000040030CA
:0E00000000081F1FFF8385FF0FC00FE00F4099
:00000001FF
