:020000040000FA
:0400000007EF00F016
:10000800038248ED00F066EF00F0700ED312959071
:1000180095928390839259EC00F001500210D8A475
:1000280018EF00F01AEF00F01CEF00F083808382D5
:10003800050E01180210D8A424EF00F026EF00F0F6
:1000480027EF00F08392080E01180210D8A42FEFB2
:1000580000F031EF00F032EF00F0839002BE3EEF87
:1000680000F0025009E10A0E015CD8A03EEF00F052
:1000780040EF00F011EF00F0000E026E000E016E6E
:1000880011EF00F007EF00F00600F2A44EEF00F0C9
:1000980050EF00F057EF00F0014A022AF294B10E37
:1000A800D76EE00ED66E03921100F29ED59AD586D1
:1000B800D59CB10ED76EE00ED66ED58EF294F28A2C
:1000C800F28E1200026A016A03900392000109EF9E
:0200D80000F036
:020000040020DA
:08000000FFFFFFFFFFFFFFFF00
:020000040030CA
:0E00000000081F1FFF8385FF0FC00FE00F4099
:00000001FF
