:020000040000FA
:0400000007EF00F016
:1000080057827DED05F0FDEF08F03950800B426E08
:1000180039503924486E38AE14EF00F016EF00F06E
:1000280017EF00F048804850D8B41DEF00F01FEFDC
:1000380000F032EF00F04828D8A425EF00F027EFB1
:1000480000F02FEF00F0000E366E000E376E000E37
:10005800386E000E396E388E3AEF00F0000E366EAC
:10006800000E376E000E386E000E396E3D50800B54
:10007800421A3D503D24476E3CAE45EF00F047EF35
:1000880000F048EF00F047804750D8B44EEF00F03A
:1000980050EF00F063EF00F04728D8A456EF00F0C7
:1000A80058EF00F060EF00F0000E3A6E000E3B6E65
:1000B800000E3C6E000E3D6E3C8E6BEF00F0000EA5
:1000C8003A6E000E3B6E000E3C6E000E3D6E4750C1
:1000D800D8B471EF00F073EF00F07BEF00F04850F8
:1000E800D8A479EF00F07BEF00F085EF00F0000E68
:1000F800366E000E376E000E386E000E396E1DEF2C
:1001080002F03C503602F3CF4DF0F4CF4EF04D5094
:10011800436E446A456A466A4E50496E4A6A4B6A5B
:100128004C6A3B503702F3CF4DF0F4CF4EF04D50B0
:100138004326000E4422452246224E504926000EF0
:100148004A224B224C223A503802F3CF4DF0F4CFDA
:100158004EF04D504326000E4422452246224E5072
:100168004926000E4A224B224C2245C046F044C084
:1001780045F043C044F0436A3A503702F3CF4DF09C
:10018800F4CF4EF04D5043264E504422000E4522E7
:10019800000E46223B503602F3CF4DF0F4CF4EF01E
:1001A8004D5043264E504422000E4522000E462252
:1001B80045C046F044C045F043C044F0436A3A5055
:1001C8003602F3CF4DF0F4CF4EF04D5043264E504B
:1001D8004422000E4522000E46223C503702F3CF3F
:1001E8004DF0F4CF4EF04D5049264E504A22000EA5
:1001F8004B22000E4C223B503802F3CF4DF0F4CF87
:100208004EF04D5049264E504A22000E4B22000E09
:100218004C223C503802F3CF4DF0F4CF4EF04D5005
:100228003E6E4E503F6E406A416A40C041F03FC04A
:1002380040F03EC03FF03E6A3E5049263F504A22B9
:1002480040504B2241504C2243C03EF044C03FF046
:1002580045C040F046C041F0190E38EF01F0D89083
:10026800413240323F323E32E82E33EF01F03E5009
:1002780049263F504A2240504B2241504C2245C00B
:1002880046F044C045F043C044F0436A475048C074
:100298003EF03F6A3E26000E3F22820E3E244D6EFF
:1002A800FF0E3F204E6E6EEF01F0D89049364A3669
:1002B8004B364C3646AE63EF01F065EF01F066EF62
:1002C80001F04980D89043364436453646364D06C7
:1002D800D8A04E064BAE73EF01F075EF01F059EF61
:1002E80001F0000E476E46AE7CEF01F07EEF01F0A4
:1002F800A2EF01F0FF0E43143E6EFF0E44143F6E52
:10030800FF0E4514406E7F0E4614416E3E503F105E
:1003180040104110D8B493EF01F095EF01F099EF38
:1003280001F0010E476EA2EF01F049A09EEF01F027
:10033800A0EF01F0A2EF01F095EF01F04750D8B41B
:10034800A8EF01F0AAEF01F0CEEF01F0010E492667
:10035800000E4A224B224C224CA0B5EF01F0B7EF19
:1003680001F0CEEF01F049C03EF04AC03FF04BC06B
:1003780040F04CC041F04134413240323F323E32CD
:100388003EC049F03FC04AF040C04BF041C04CF07D
:100398004D4A4E2A4EBED9EF01F04E5008E14D2885
:1003A800D8A0D9EF01F0DBEF01F0E5EF01F0000E86
:1003B800496E000E4A6E800E4B6E7F0E4C6E13EF28
:1003C80002F04EBEF2EF01F04E5006E14D04D8B0F7
:1003D800F0EF01F0F2EF01F0FEEF01F0000E496ED0
:1003E800000E4A6E000E4B6E000E4C6E000E426EF2
:1003F80013EF02F04DC048F0FF0E4916FF0E4A16E3
:100408007F0E4B16000E4C1648A00DEF02F00FEFB2
:1004180002F010EF02F04B8ED89048304C6E4250EC
:100428004C1249C036F04AC037F04BC038F04CC0C7
:1004380039F012002050800B2D6E20502024346E8D
:100448001FAE29EF02F02BEF02F02CEF02F0348000
:100458003450D8B432EF02F034EF02F049EF02F032
:100468003428D8A43AEF02F03CEF02F044EF02F04F
:10047800000E1D6E000E1E6E000E1F6E000E206E0A
:100488001F8E000E206E51EF02F0000E1D6E000E42
:100498001E6E000E1F6E000E206E2450800B2D1A4B
:1004A80024502424356E23AE5CEF02F05EEF02F098
:1004B8005FEF02F035803550D8B465EF02F067EF92
:1004C80002F07CEF02F03528D8A46DEF02F06FEF50
:1004D80002F077EF02F0000E216E000E226E000E81
:1004E800236E000E246E238E000E246E84EF02F01D
:1004F800000E216E000E226E000E236E000E246E7A
:100508002150221023102410D8A48DEF02F08FEF71
:1005180002F0A7EF02F0000E1D6E000E1E6E000E18
:100528001F6E000E206E800E1F127F0E20122D509F
:1005380020121DC01DF01EC01EF01FC01FF020C0DD
:1005480020F0EAEF03F03450D8A4ADEF02F0AFEF9B
:1005580002F0B9EF02F0000E1D6E000E1E6E000EC6
:100568001F6E000E206EEAEF03F0355034C025F000
:10057800266A255E000E265A7F0E25242E6E000E52
:1005880026202F6E1DC029F01EC02AF01FC02BF098
:1005980020C02CF0000E1D6E000E1E6E000E1F6E89
:1005A800000E206E000E306E000E316E000E326EA0
:1005B800000E336E000E356E1AEF03F03550D8B4C6
:1005C800E8EF02F0EAEF02F001EF03F0D8902936E5
:1005D8002A362B362C36D8901D361E361F36203636
:1005E80033AEF9EF02F0FBEF02F0FCEF02F01D80F2
:1005F800D89030363136323633362150295C225085
:100608002A5823502B5824502C58D8A00EEF03F00A
:1006180010EF03F019EF03F0338C2150295E2250BC
:100628002A5A23502B5A24502C5A352A190E35642D
:1006380020EF03F022EF03F0E2EF02F029502A1036
:100648002B102C10D8B42BEF03F02DEF03F045EF4F
:1006580003F0308045EF03F0D8901D361E361F3664
:10066800203633AE3AEF03F03CEF03F03DEF03F0F2
:100678001D80D89030363136323633362E06D8A023
:100688002F061FAE4AEF03F04CEF03F030EF03F0F4
:10069800000E356E33AE53EF03F055EF03F079EFEC
:1006A80003F0FF0E3014256EFF0E3114266EFF0E78
:1006B8003214276E7F0E3314286E2550261027100B
:1006C8002810D8B46AEF03F06CEF03F070EF03F072
:1006D800010E356E79EF03F01DA075EF03F077EF8B
:1006E80003F079EF03F06CEF03F03550D8B47FEFE7
:1006F80003F081EF03F0A5EF03F0010E1D26000EB5
:100708001E221F22202220A08CEF03F08EEF03F080
:10071800A5EF03F01DC025F01EC026F01FC027F06E
:1007280020C028F02834283227322632253225C026
:100738001DF026C01EF027C01FF028C020F02E4A4A
:100748002F2A2FBEB0EF03F02F5008E12E28D8A093
:10075800B0EF03F0B2EF03F0BDEF03F0000E2F6E21
:100768002E68000E1D6E000E1E6E000E1F6E000E0F
:10077800206E2FBECAEF03F02F5006E12E04D8B02A
:10078800C8EF03F0CAEF03F0D8EF03F0000E2F6EA6
:10079800000E2E6E000E1D6E000E1E6E000E1F6ED9
:1007A800000E206E000E2D6E2EC034F034A0DFEF48
:1007B80003F0E1EF03F0E4EF03F01F8EE5EF03F041
:1007C8001F9ED8903430206E9BEF02F01200700EFE
:1007D800D3120E0EC16EC280C050C70B2009C06E66
:1007E800C050F80B0109C06EC08EC30EC216F19E30
:1007F8009280F10E936E000E956E96909692809070
:100808000E0E816E000E836E84908492F28EF288B2
:10081800F18CF292F286F290C282FC0E816EFA0E90
:10082800816EF60E816EC45000016B6F6A6BC35007
:100838006A25726F000E6B21736F000E3A6E000E00
:100848003B6EA00E3C6E400E3D6E000E216EC00E3B
:10085800226E7F0E236E440E246E72C009F073C0A0
:100868000AF0000E0C6E640E0B6ED7EC08F009C08F
:100878000FF00AC010F0000E10BEFF0E116E126EBF
:10088800010EBFEC06F00FC01DF010C01EF011C025
:100898001FF012C020F01EEC02F01DC036F01EC082
:1008A80037F01FC038F020C039F009EC00F036C02E
:1008B80060F037C061F038C062F039C063F099EC7D
:1008C80007F060C070F061C071F0000171BF76EF91
:1008D80004F0715109E13C0E705DD8A076EF04F088
:1008E80078EF04F07BEF04F084827CEF04F08492CC
:1008F80076057711D8A483EF04F085EF04F0C4EFF0
:1009080004F074C009F075C00AF0000E0C6E0A0EEF
:100918000B6E7FEC08F009C06AF00AC06BF074C077
:1009280009F075C00AF0000E0C6E0A0E0B6E1DEC75
:1009380008F00950100DF35000016A25836E848079
:100948000B0E00016B6F260E6A6F5D0EE82EFED748
:100958006A2FFCD76B2FFAD700D000017407D8A0F4
:10096800750774517511D8A4BCEF04F0BEEF04F0FC
:1009780010EF04F0000E776F000E766F10EF04F0A2
:10098800020E76197711D8A4CCEF04F0CEEF04F05C
:10099800EFEF04F074C009F075C00AF0000E0C6E99
:1009A8000A0E0B6E7FEC08F009C06AF00AC06BF003
:1009B80074C009F075C00AF0000E0C6E0A0E0B6EBA
:1009C8001DEC08F00950100DF35000016A25836EE4
:1009D800849010EF04F0030E76197711D8A4F7EF7E
:1009E80004F0F9EF04F05AEF05F0000E756F000EF1
:1009F800746F000E846E000E6F6F000E6E6F6E5176
:100A0800110DF3CF83FF0B0E00016B6F260E6A6F7B
:100A18005D0EE82EFED76A2FFCD76B2FFAD700D0D1
:100A280000016E4B6F2B6FBF23EF05F06F5109E18B
:100A38000A0E6E5DD8A023EF05F025EF05F003EF51
:100A480005F0000E6D6F000E6C6F030E846E060EBF
:100A580000016B6F130E6A6FAD0EE82EFED76A2F7A
:100A6800FCD76B2FFAD700D0000E846E060E00015B
:100A78006B6F130E6A6FAD0EE82EFED76A2FFCD788
:100A88006B2FFAD700D000016C4B6D2B6DBF56EF62
:100A980005F06D5109E1030E6C5DD8A056EF05F025
:100AA80058EF05F029EF05F0BEEF04F074C009F027
:100AB80075C00AF0000E0C6E0A0E0B6E7FEC08F083
:100AC80009C06AF00AC06BF074C009F075C00AF07A
:100AD800000E0C6E0A0E0B6E1DEC08F00950100D7E
:100AE800F35000016A25836E849010EF04F007EF3D
:100AF80000F00600F3CF07F0F4CF08F0F2A087EF7C
:100B080005F089EF05F05FEF06F081B28EEF05F092
:100B180090EF05F0C7EF05F081B895EF05F097EF76
:100B280005F09DEF05F0000E506E010E4F6E514A14
:100B3800522A81BAA2EF05F0A4EF05F0AAEF05F05A
:100B4800000E506E040E4F6E514A522A81BCAFEF10
:100B580005F0B1EF05F0B7EF05F0000E506E070E87
:100B68004F6E514A522A81BEBCEF05F0BEEF05F028
:100B7800C7EF05F0000E526E000E516E000E000118
:100B8800776F010E766F81B4CCEF05F0CEEF05F0EC
:100B980002EF06F081B8D3EF05F0D5EF05F0DBEFF3
:100BA80005F0000E506E020E4F6E514A522A81BA5D
:100BB800E0EF05F0E2EF05F0E8EF05F0000E506E0B
:100BC800050E4F6E514A522A81BCEDEF05F0EFEF4A
:100BD80005F0F5EF05F0000E506E080E4F6E514A05
:100BE800522A81BEFAEF05F0FCEF05F002EF06F09D
:100BF800000E506E000E4F6E514A522A81B607EF12
:100C080006F009EF06F042EF06F081B80EEF06F0A5
:100C180010EF06F016EF06F0000E506E030E4F6E42
:100C2800514A522A81BA1BEF06F01DEF06F023EF56
:100C380006F0000E506E060E4F6E514A522A81BCC5
:100C480028EF06F02AEF06F030EF06F0000E506E9F
:100C5800090E4F6E514A522A81BE35EF06F037EF22
:100C680006F042EF06F0000E526E000E516E000EB6
:100C78000001776F020E766F744B752B81A847EFD2
:100C880006F049EF06F042EF06F081AA4EEF06F0B3
:100C980050EF06F042EF06F081AC55EF06F057EF43
:100CA80006F042EF06F081AE5CEF06F05EEF06F06C
:100CB80042EF06F0F29051045210D8A466EF06F005
:100CC80068EF06F07DEF06F04FC053F050C054F0C7
:100CD80055C001F056C002F0000E046E0A0E036EF5
:100CE800EAEC08F0535001240001746F54500220BC
:100CF800756F020E51185210D8A485EF06F087EFD1
:100D080006F0ACEF06F053C055F054C056F04FC093
:100D180053F050C054F055C001F056C002F0000E18
:100D2800046E0A0E036EEAEC08F053500124000129
:100D3800746F54500220756F000E526E000E516E83
:100D4800000E566E000E556E000E546E000E536E59
:100D5800F2A2B1EF06F0B3EF06F0B9EF06F0000E1D
:100D68000001776F030E766FF29208C0F4FF07C098
:100D7800F3FF57921100176E1750D8B4C6EF06F05C
:100D8800C8EF06F0EAEF06F012BECFEF06F0CDEF9F
:100D980006F0EAEF06F00FC013F010C014F011C00F
:100DA80015F012C016F0131E141E151E161E132A57
:100DB800000E14221522162213C019F014C01AF0BE
:100DC80015C01BF016C01CF0F2EF06F00FC019F0AA
:100DD80010C01AF011C01BF012C01CF00F501010F8
:100DE80011101210D8A4FBEF06F0FDEF06F007EF84
:100DF80007F0000E0F6E000E106E000E116E000E42
:100E0800126E98EF07F0960E186E11EF07F0182A79
:100E1800D8901C321B321A321932000E1914136E74
:100E2800000E1A14146E000E1B14156EFE0E1C1400
:100E3800166E1350141015101610D8A426EF07F0CC
:100E480028EF07F00BEF07F036EF07F0182A010E2E
:100E58001926000E1A221B221C22D8901C321B3283
:100E68001A321932000E1914136E000E1A14146E69
:100E7800000E1B14156EFF0E1C14166E1350141062
:100E880015101610D8A44BEF07F04DEF07F02AEF16
:100E980007F055EF07F01806D89019361A361B36A2
:100EA8001C361BBE5AEF07F05CEF07F064EF07F043
:100EB800020E186062EF07F064EF07F04FEF07F0DB
:100EC80018B069EF07F06BEF07F06CEF07F01B9EA7
:100ED800D890183218C013F0146A156A166A13C02D
:100EE80016F0156A146A136A1350191214501A125C
:100EF80015501B1216501C121750D8B486EF07F065
:100F080088EF07F090EF07F012BE8FEF07F08DEF34
:100F180007F090EF07F01C8E19C00FF01AC010F000
:100F28001BC011F01CC012F01200000162356335BD
:100F3800696F6951D8A4A3EF07F0A5EF07F0AFEFE9
:100F480007F0000E606F000E616F000E626F000EFA
:100F5800636F1CEF08F060C064F061C065F062C0A8
:100F680066F063C067F0200EBFEF07F0D8906733D4
:100F7800663365336433E82EBAEF07F06451686F5F
:100F8800628FFF0E6017FF0E6117FF0E6217000ECB
:100F98006317960E695F69BFD6EF07F0D4EF07F0C5
:100FA800ECEF07F06951800A970FD8B0DEEF07F031
:100FB800E0EF07F0E2EF07F0A5EF07F0D890633312
:100FC800623361336033693FE2EF07F004EF08F002
:100FD8001F0E6965F2EF07F0F4EF07F0FCEF07F07A
:100FE800A5EF07F0D8906037613762376337690734
:100FF8006951D8A402EF08F004EF08F0F6EF07F003
:101008006851D8B40AEF08F00CEF08F014EF08F0B4
:10101800631F621F611F606D000E612362236323DB
:1010280060C060F061C061F062C062F063C063F0EC
:101038001200000E0E6E0CBE26EF08F024EF08F02A
:101048002CEF08F00B6C0C1ED8B00C2A010E0E6E9B
:101058000ABE33EF08F031EF08F039EF08F0096CF9
:101068000A1ED8B00A2A010E0E1A000E106E000EC3
:101078000F6E0B500C10D8B444EF08F046EF08F090
:101088006EEF08F0010E0D6E4EEF08F0D8900B369B
:101098000C360D2A0CAE53EF08F055EF08F04AEF66
:1010A80008F0D8900F3610360B50095C0C500A58CF
:1010B800D8A061EF08F063EF08F068EF08F00B5074
:1010C800095E0C500A5A0F80D8900C320B320D2E44
:1010D80055EF08F00E50D8B474EF08F076EF08F02A
:1010E8007AEF08F00F6C101ED8B0102A0FC009F064
:1010F80010C00AF01200000E0E6E0ABE88EF08F04B
:1011080086EF08F08EEF08F0096C0A1ED8B00A2A9C
:10111800010E0E6E0CBE95EF08F093EF08F099EFF4
:1011280008F00B6C0C1ED8B00C2A0B500C10D8B45D
:10113800A0EF08F0A2EF08F0C6EF08F0010E0D6E60
:10114800AAEF08F0D8900B360C360D2A0CAEAFEF8C
:1011580008F0B1EF08F0A6EF08F00B50095C0C504E
:101168000A58D8A0BAEF08F0BCEF08F0C0EF08F0B2
:101178000B50095E0C500A5AD8900C320B320D2EC7
:10118800B1EF08F00E50D8B4CCEF08F0CEEF08F06D
:10119800D2EF08F0096C0A1ED8B00A2A09C009F073
:1011A8000AC00AF0120009500B02F3CF0DF0F4CF79
:1011B8000EF009500C02F3500E260A500B02F350A1
:1011C8000E260DC009F00EC00AF0120001500302ED
:1011D800F3CF05F0F4CF06F001500402F3500626D1
:1011E80002500302F350062605C001F006C002F0C3
:1011F80012000001776B766B756B746B00EE4FF025
:10120800080EEE6AE806FDE1579057920001EBEFF1
:0212180003F0E1
:020000040020DA
:08000000FFFFFFFFFFFFFFFF00
:020000040030CA
:0E00000000081F1FFF8385FF0FC00FE00F4099
:00000001FF
