:020000040000FA
:0400000007EF00F016
:100008000F8240ED01F087EF01F069EC01F090EC10
:1000180001F07AEC01F00DC001F00EC002F0000E04
:10002800046E0A0E036EE8EC00F001C009F002C08D
:100038000AF00DC001F00EC002F0000E046E0A0EA8
:10004800036E86EC00F00150100DF3500924836E06
:100058000B500C10D8A433EF00F035EF00F063EF2D
:1000680000F00D500E10D8A43CEF00F03EEF00F069
:1000780042EF00F08196819A818481880D040E10E8
:10008800D8A449EF00F04BEF00F04FEF00F0819457
:1000980081988186818A0EBE5BEF00F00E5009E1DF
:1000A800020E0D5CD8A05BEF00F05DEF00F00FEFE3
:1000B80000F0000E0E6E000E0D6E0FEF00F00D50EA
:1000C8000E10D8A46AEF00F06CEF00F070EF00F0AB
:1000D8008196819A818481880F0E0D180E10D8A4FC
:1000E80078EF00F07AEF00F00FEF00F0000E0E6EE0
:1000F800000E0D6E000E0C6E000E0B6E0FEF00F072
:1001080007EF00F0000E066E04BE8FEF00F08DEFD3
:1001180000F095EF00F0036C041ED8B0042A010E1D
:10012800066E02BE9CEF00F09AEF00F0A2EF00F01E
:10013800016C021ED8B0022A010E061A000E086EC3
:10014800000E076E03500410D8B4ADEF00F0AFEF07
:1001580000F0D7EF00F0010E056EB7EF00F0D89071
:1001680003360436052A04AEBCEF00F0BEEF00F0FB
:10017800B3EF00F0D890073608360350015C0450FE
:100188000258D8A0CAEF00F0CCEF00F0D1EF00F091
:100198000350015E0450025A0780D890043203329B
:1001A800052EBEEF00F00650D8B4DDEF00F0DFEF0B
:1001B80000F0E3EF00F0076C081ED8B0082A07C06B
:1001C80001F008C002F01200000E066E02BEF1EF48
:1001D80000F0EFEF00F0F7EF00F0016C021ED8B06E
:1001E800022A010E066E04BEFEEF00F0FCEF00F0DE
:1001F80002EF01F0036C041ED8B0042A0350041067
:10020800D8B409EF01F00BEF01F02FEF01F0010E68
:10021800056E13EF01F0D89003360436052A04AEB4
:1002280018EF01F01AEF01F00FEF01F00350015C35
:1002380004500258D8A023EF01F025EF01F029EF70
:1002480001F00350015E0450025AD8900432033280
:10025800052E1AEF01F00650D8B435EF01F037EF4C
:1002680001F03BEF01F0016C021ED8B0022A01C078
:1002780001F002C002F012000600F2A446EF01F0FD
:1002880048EF01F04FEF01F00D4A0E2AF2940B0EE1
:10029800D76EDC0ED66EF2B254EF01F056EF01F0D5
:1002A8005DEF01F0F0A05BEF01F05DEF01F067EFAB
:1002B80001F0000E0C6E010E0B6EF292F090000E23
:1002C8000E6E000E0D6E0F921100F29ED59AD59605
:1002D800D550F80B0409D56ED59C0B0ED76EDC0EE5
:1002E800D66ED58EF294F28AF28E1200700ED31268
:1002F8000F0EC16E030E936E000E956E000E816E8A
:10030800000E836E12000E6A0D6A0C6A0B6A0F905B
:100318000F92000109EF00F0F18CF18AF292F28855
:06032800F090F0861200C7
:020000040020DA
:08000000FFFFFFFFFFFFFFFF00
:020000040030CA
:0E00000000081F1FFF8385FF0FC00FE00F4099
:00000001FF
